{"abi":[{"type":"constructor","inputs":[{"name":"_trustToken","type":"address","internalType":"address"}],"stateMutability":"nonpayable"},{"type":"function","name":"MIN_STAKE","inputs":[],"outputs":[{"name":"","type":"uint256","internalType":"uint256"}],"stateMutability":"view"},{"type":"function","name":"deregisterNode","inputs":[{"name":"nodeId","type":"bytes32","internalType":"bytes32"}],"outputs":[],"stateMutability":"nonpayable"},{"type":"function","name":"getNode","inputs":[{"name":"nodeId","type":"bytes32","internalType":"bytes32"}],"outputs":[{"name":"","type":"bytes32","internalType":"bytes32"},{"name":"","type":"address","internalType":"address"},{"name":"","type":"bytes","internalType":"bytes"},{"name":"","type":"string[]","internalType":"string[]"},{"name":"","type":"uint256","internalType":"uint256"},{"name":"","type":"bool","internalType":"bool"},{"name":"","type":"uint256","internalType":"uint256"}],"stateMutability":"view"},{"type":"function","name":"isRegistered","inputs":[{"name":"nodeId","type":"bytes32","internalType":"bytes32"}],"outputs":[{"name":"","type":"bool","internalType":"bool"}],"stateMutability":"view"},{"type":"function","name":"nodeCount","inputs":[],"outputs":[{"name":"","type":"uint256","internalType":"uint256"}],"stateMutability":"view"},{"type":"function","name":"nodeIds","inputs":[{"name":"","type":"uint256","internalType":"uint256"}],"outputs":[{"name":"","type":"bytes32","internalType":"bytes32"}],"stateMutability":"view"},{"type":"function","name":"nodeOwner","inputs":[{"name":"nodeId","type":"bytes32","internalType":"bytes32"}],"outputs":[{"name":"","type":"address","internalType":"address"}],"stateMutability":"view"},{"type":"function","name":"owner","inputs":[],"outputs":[{"name":"","type":"address","internalType":"address"}],"stateMutability":"view"},{"type":"function","name":"ownerToNode","inputs":[{"name":"","type":"address","internalType":"address"}],"outputs":[{"name":"","type":"bytes32","internalType":"bytes32"}],"stateMutability":"view"},{"type":"function","name":"registerNode","inputs":[{"name":"nodeId","type":"bytes32","internalType":"bytes32"},{"name":"publicKey","type":"bytes","internalType":"bytes"},{"name":"domainTags","type":"string[]","internalType":"string[]"}],"outputs":[],"stateMutability":"nonpayable"},{"type":"function","name":"renounceOwnership","inputs":[],"outputs":[],"stateMutability":"nonpayable"},{"type":"function","name":"transferOwnership","inputs":[{"name":"newOwner","type":"address","internalType":"address"}],"outputs":[],"stateMutability":"nonpayable"},{"type":"function","name":"trustToken","inputs":[],"outputs":[{"name":"","type":"address","internalType":"contract IERC20"}],"stateMutability":"view"},{"type":"event","name":"NodeDeregistered","inputs":[{"name":"nodeId","type":"bytes32","indexed":true,"internalType":"bytes32"},{"name":"owner","type":"address","indexed":true,"internalType":"address"}],"anonymous":false},{"type":"event","name":"NodeRegistered","inputs":[{"name":"nodeId","type":"bytes32","indexed":true,"internalType":"bytes32"},{"name":"owner","type":"address","indexed":true,"internalType":"address"},{"name":"stakeAmount","type":"uint256","indexed":false,"internalType":"uint256"}],"anonymous":false},{"type":"event","name":"OwnershipTransferred","inputs":[{"name":"previousOwner","type":"address","indexed":true,"internalType":"address"},{"name":"newOwner","type":"address","indexed":true,"internalType":"address"}],"anonymous":false},{"type":"error","name":"OwnableInvalidOwner","inputs":[{"name":"owner","type":"address","internalType":"address"}]},{"type":"error","name":"OwnableUnauthorizedAccount","inputs":[{"name":"account","type":"address","internalType":"address"}]},{"type":"error","name":"SafeERC20FailedOperation","inputs":[{"name":"token","type":"address","internalType":"address"}]}],"bytecode":{"object":"0x60a03461011d57601f6110fc38819003918201601f19168301916001600160401b038311848410176101215780849260209460405283398101031261011d57516001600160a01b038082169182900361011d573315610105575f543360018060a01b03198216175f55604051913391167f8be0079c531659141344cd1fd0a4f28419497f9722a3daafe3b4186f6b6457e05f80a381156100c35750608052604051610fc6908161013682396080518181816101c1015281816102cf01526109920152f35b62461bcd60e51b815260206004820152601860248201527f4e6f646552656769737472793a207a65726f20746f6b656e00000000000000006044820152606490fd5b604051631e4fbdf760e01b81525f6004820152602490fd5b5f80fd5b634e487b7160e01b5f52604160045260245ffdfe6080806040526004361015610012575f80fd5b5f3560e01c90816327258b2214610cf85750806350c946fe14610ba25780636da49b8314610b85578063715018a614610b2e5780638da5cb5b14610b075780639854316614610acf578063bb74cae314610932578063cb1c2b5c1461090f578063d0eaf995146101f0578063d13deb2f146101ac578063d752267514610170578063f2fde38b146100e45763ff75542b146100ab575f80fd5b346100e05760203660031901126100e0576004355f526001602052602060018060a01b03600160405f20015416604051908152f35b5f80fd5b346100e05760203660031901126100e0576004356001600160a01b03818116918290036100e057610113610f65565b8115610158575f54826bffffffffffffffffffffffff60a01b8216175f55167f8be0079c531659141344cd1fd0a4f28419497f9722a3daafe3b4186f6b6457e05f80a3005b604051631e4fbdf760e01b81525f6004820152602490fd5b346100e05760203660031901126100e0576004356001600160a01b038116908190036100e0575f526002602052602060405f2054604051908152f35b346100e0575f3660031901126100e0576040517f00000000000000000000000000000000000000000000000000000000000000006001600160a01b03168152602090f35b346100e05760603660031901126100e05760043567ffffffffffffffff602435116100e0573660236024350112156100e05767ffffffffffffffff60243560040135116100e05736602480356004013581350101116100e05767ffffffffffffffff604435116100e0573660236044350112156100e05767ffffffffffffffff60443560040135116100e0573660246044356004013560051b6044350101116100e05780156108ca57805f52600160205260ff600560405f2001541661088657335f52600260205260405f20546108425760243560040135156107fd577f0000000000000000000000000000000000000000000000000000000000000000906040516323b872dd60e01b5f52336004523060245268056bc75e2d63100000928360445260205f60648180855af160015f51148116156107de575b826040525f606052156107c057505061034860443560040135610e98565b6103556040519182610e76565b60046044350135808252601f199061036c90610e98565b015f5b8181106107af5750506044353603604219015f5b60443560040135811061074a57505060405160e0810181811067ffffffffffffffff8211176105655760405282815260208101913383526103cf36602435600401356024803501610ec4565b90604083019182526060830152426080830152600160a08301528460c0830152835f52600160205260405f209282518455600184019060018060a01b039051166bffffffffffffffffffffffff60a01b8254161790555180519067ffffffffffffffff821161056557610452826104496002870154610dad565b60028701610f20565b602090601f83116001146106dc5761048192915f91836106d1575b50508160011b915f199060031b1c19161790565b60028301555b6060810151805190600160401b821161056557600384015482600386015580831061065d575b5060200190600384015f5260205f20915f905b828210610579575050505060c0816080600693015160048501556005840160a0820151151560ff801983541691161790550151910155335f5260026020528060405f2055600354600160401b811015610565578060016105239201600355610d64565b81549060031b9083821b915f19901b19161790556040519182527f11a7b6b912db49220c71a4c83b477f565c6b1319c7146faa80e15453fc185cb860203393a3005b634e487b7160e01b5f52604160045260245ffd5b805180519067ffffffffffffffff8211610565576105a18261059b8854610dad565b88610f20565b602090601f83116001146105f157926105d7836001959460209487965f926105e65750508160011b915f199060031b1c19161790565b87555b019401910190926104c0565b015190508e8061046d565b90865f5260205f20915f5b601f1985168110610645575083602093600196938796938794601f1981161061062d575b505050811b0187556105da565b01515f1960f88460031b161c191690558d8080610620565b919260206001819286850151815501940192016105fc565b600385015f5260205f20908382015b818301811061067c5750506104ad565b8061068960019254610dad565b80610696575b500161066c565b601f811183146106ab57505f81555b8a61068f565b5f908282526106c8601f60208420920160051c8201858301610f0a565b818355556106a5565b01519050878061046d565b9190600285015f5260205f20905f935b601f198416851061072f576001945083601f19811610610717575b505050811b016002830155610487565b01515f1960f88460031b161c19169055868080610707565b818101518355602094850194600190930192909101906106ec565b60248160051b604435010135828112156100e057604435019060248201359167ffffffffffffffff83116100e0576044019180360383136100e057600192610793913691610ec4565b61079d8286610eb0565b526107a88185610eb0565b5001610383565b80606060208093860101520161036f565b635274afe760e01b82526001600160a01b0316600482015260249150fd5b60018115166107f457813b15153d15161661032a565b823d5f823e3d90fd5b60405162461bcd60e51b815260206004820152601d60248201527f4e6f646552656769737472793a20656d707479207075626c69634b65790000006044820152606490fd5b606460405162461bcd60e51b815260206004820152602060248201527f4e6f646552656769737472793a206f6e65206e6f646520706572206f776e65726044820152fd5b606460405162461bcd60e51b815260206004820152602060248201527f4e6f646552656769737472793a20616c726561647920726567697374657265646044820152fd5b60405162461bcd60e51b815260206004820152601960248201527f4e6f646552656769737472793a207a65726f206e6f64654964000000000000006044820152606490fd5b346100e0575f3660031901126100e057602060405168056bc75e2d631000008152f35b346100e0576020806003193601126100e05760043590815f526001815260405f20600581019081549160ff831615610a8a5760018201546001600160a01b03939084163303610a455760ff19169055335f52600283525f604081205560067f0000000000000000000000000000000000000000000000000000000000000000910154926040519363a9059cbb60e01b5f52336004526024525f60448180855af160015f5114811615610a26575b8360405215610a105733847f4fbca14b36bf88062db3956201b4356f36747c50bb571421cb4a745fee47aa515f80a3005b635274afe760e01b835216600482015260249150fd5b6001811516610a3c57813b15153d1516166109df565b833d5f823e3d90fd5b60405162461bcd60e51b815260048101869052601760248201527f4e6f646552656769737472793a206e6f74206f776e65720000000000000000006044820152606490fd5b60405162461bcd60e51b815260048101859052601860248201527f4e6f646552656769737472793a206e6f742061637469766500000000000000006044820152606490fd5b346100e05760203660031901126100e0576004356003548110156100e057610af8602091610d64565b90549060031b1c604051908152f35b346100e0575f3660031901126100e0575f546040516001600160a01b039091168152602090f35b346100e0575f3660031901126100e057610b46610f65565b5f80546001600160a01b0319811682556001600160a01b03167f8be0079c531659141344cd1fd0a4f28419497f9722a3daafe3b4186f6b6457e08280a3005b346100e0575f3660031901126100e0576020600354604051908152f35b346100e0576020806003193601126100e0576004355f526001906001815260405f209081549160018060a01b0360018201541691600382019260048301549060ff600585015416926002610c0c600687015496610c056040518094819301610de5565b0382610e76565b865492610c1884610e98565b93610c266040519586610e76565b8085528a848601809a5f52855f20865f925b858410610cd35750505050505090610c6591604051998a52838a015260e060408a015260e0890190610d26565b918783036060890152519081835280830192818360051b82010197935f915b848310610ca6578a808b8b8b8b6080850152151560a084015260c08301520390f35b9091929394988480610cc38e93601f198682030187528d51610d26565b9b01930193019194939290610c84565b84918291604051610ce881610c058189610de5565b8152019201920191908790610c38565b346100e05760203660031901126100e0576020906004355f526001825260ff600560405f2001541615158152f35b91908251928382525f5b848110610d50575050825f602080949584010152601f8019910116010190565b602081830181015184830182015201610d30565b600354811015610d995760035f527fc2575a0e9e593c00f959f8c92f12db2869c3395a3b0502d05e2516446f71f85b01905f90565b634e487b7160e01b5f52603260045260245ffd5b90600182811c92168015610ddb575b6020831014610dc757565b634e487b7160e01b5f52602260045260245ffd5b91607f1691610dbc565b80545f9392610df382610dad565b918282526020936001916001811690815f14610e575750600114610e19575b5050505050565b90939495505f92919252835f2092845f945b838610610e4357505050500101905f80808080610e12565b805485870183015294019385908201610e2b565b60ff19168685015250505090151560051b010191505f80808080610e12565b90601f8019910116810190811067ffffffffffffffff82111761056557604052565b67ffffffffffffffff81116105655760051b60200190565b8051821015610d995760209160051b010190565b92919267ffffffffffffffff82116105655760405191610eee601f8201601f191660200184610e76565b8294818452818301116100e0578281602093845f960137010152565b818110610f15575050565b5f8155600101610f0a565b9190601f8111610f2f57505050565b610f59925f5260205f20906020601f840160051c83019310610f5b575b601f0160051c0190610f0a565b565b9091508190610f4c565b5f546001600160a01b03163303610f7857565b60405163118cdaa760e01b8152336004820152602490fdfea2646970667358221220429ab3a0862fd4174eafdecaa8f1c9fe905bc6b8cc5f66e50b56123c857b019864736f6c63430008180033","linkReferences":{}},"methodIdentifiers":{"MIN_STAKE()":"cb1c2b5c","deregisterNode(bytes32)":"bb74cae3","getNode(bytes32)":"50c946fe","isRegistered(bytes32)":"27258b22","nodeCount()":"6da49b83","nodeIds(uint256)":"98543166","nodeOwner(bytes32)":"ff75542b","owner()":"8da5cb5b","ownerToNode(address)":"d7522675","registerNode(bytes32,bytes,string[])":"d0eaf995","renounceOwnership()":"715018a6","transferOwnership(address)":"f2fde38b","trustToken()":"d13deb2f"},"id":55}