{"abi":[{"type":"constructor","inputs":[{"name":"_skillToken","type":"address","internalType":"address"},{"name":"_trustOracle","type":"address","internalType":"address"},{"name":"_nodeRegistry","type":"address","internalType":"address"},{"name":"_dailyEmissionCap","type":"uint256","internalType":"uint256"}],"stateMutability":"nonpayable"},{"type":"function","name":"DECAY_FACTOR","inputs":[],"outputs":[{"name":"","type":"uint256","internalType":"uint256"}],"stateMutability":"view"},{"type":"function","name":"DIVERSITY_BONUS","inputs":[],"outputs":[{"name":"","type":"uint256","internalType":"uint256"}],"stateMutability":"view"},{"type":"function","name":"DIVERSITY_THRESHOLD","inputs":[],"outputs":[{"name":"","type":"uint256","internalType":"uint256"}],"stateMutability":"view"},{"type":"function","name":"MAX_DAILY_ACTIVITIES","inputs":[],"outputs":[{"name":"","type":"uint256","internalType":"uint256"}],"stateMutability":"view"},{"type":"function","name":"MIN_ATTESTOR_TRUST","inputs":[],"outputs":[{"name":"","type":"uint256","internalType":"uint256"}],"stateMutability":"view"},{"type":"function","name":"WAD","inputs":[],"outputs":[{"name":"","type":"uint256","internalType":"uint256"}],"stateMutability":"view"},{"type":"function","name":"attestProof","inputs":[{"name":"proofId","type":"uint256","internalType":"uint256"}],"outputs":[],"stateMutability":"nonpayable"},{"type":"function","name":"attestationWindow","inputs":[],"outputs":[{"name":"","type":"uint256","internalType":"uint256"}],"stateMutability":"view"},{"type":"function","name":"categoryConfigs","inputs":[{"name":"","type":"uint8","internalType":"enum LifeRewards.Category"}],"outputs":[{"name":"baseReward","type":"uint256","internalType":"uint256"},{"name":"dailyCap","type":"uint256","internalType":"uint256"},{"name":"minAttestations","type":"uint256","internalType":"uint256"},{"name":"active","type":"bool","internalType":"bool"}],"stateMutability":"view"},{"type":"function","name":"consecutiveDaysOf","inputs":[{"name":"user","type":"address","internalType":"address"}],"outputs":[{"name":"","type":"uint256","internalType":"uint256"}],"stateMutability":"view"},{"type":"function","name":"dailyEmissionCap","inputs":[],"outputs":[{"name":"","type":"uint256","internalType":"uint256"}],"stateMutability":"view"},{"type":"function","name":"emissionDay","inputs":[],"outputs":[{"name":"","type":"uint256","internalType":"uint256"}],"stateMutability":"view"},{"type":"function","name":"expireProof","inputs":[{"name":"proofId","type":"uint256","internalType":"uint256"}],"outputs":[],"stateMutability":"nonpayable"},{"type":"function","name":"getDailyActivity","inputs":[{"name":"user","type":"address","internalType":"address"}],"outputs":[{"name":"categoryCount","type":"uint256[6]","internalType":"uint256[6]"},{"name":"categoryEarned","type":"uint256[6]","internalType":"uint256[6]"},{"name":"activeCategories","type":"uint256","internalType":"uint256"}],"stateMutability":"view"},{"type":"function","name":"getEmissionStatus","inputs":[],"outputs":[{"name":"emitted","type":"uint256","internalType":"uint256"},{"name":"cap","type":"uint256","internalType":"uint256"},{"name":"remaining","type":"uint256","internalType":"uint256"}],"stateMutability":"view"},{"type":"function","name":"getStreakMultiplier","inputs":[{"name":"user","type":"address","internalType":"address"}],"outputs":[{"name":"","type":"uint256","internalType":"uint256"}],"stateMutability":"view"},{"type":"function","name":"hasAttested","inputs":[{"name":"","type":"uint256","internalType":"uint256"},{"name":"","type":"address","internalType":"address"}],"outputs":[{"name":"","type":"bool","internalType":"bool"}],"stateMutability":"view"},{"type":"function","name":"nodeRegistry","inputs":[],"outputs":[{"name":"","type":"address","internalType":"contract NodeRegistry"}],"stateMutability":"view"},{"type":"function","name":"owner","inputs":[],"outputs":[{"name":"","type":"address","internalType":"address"}],"stateMutability":"view"},{"type":"function","name":"pause","inputs":[],"outputs":[],"stateMutability":"nonpayable"},{"type":"function","name":"paused","inputs":[],"outputs":[{"name":"","type":"bool","internalType":"bool"}],"stateMutability":"view"},{"type":"function","name":"proofCount","inputs":[],"outputs":[{"name":"","type":"uint256","internalType":"uint256"}],"stateMutability":"view"},{"type":"function","name":"proofs","inputs":[{"name":"","type":"uint256","internalType":"uint256"}],"outputs":[{"name":"proofId","type":"uint256","internalType":"uint256"},{"name":"submitter","type":"address","internalType":"address"},{"name":"nodeId","type":"bytes32","internalType":"bytes32"},{"name":"category","type":"uint8","internalType":"enum LifeRewards.Category"},{"name":"proofHash","type":"bytes32","internalType":"bytes32"},{"name":"rewardAmount","type":"uint256","internalType":"uint256"},{"name":"submittedAt","type":"uint256","internalType":"uint256"},{"name":"attestationCount","type":"uint256","internalType":"uint256"},{"name":"state","type":"uint8","internalType":"enum LifeRewards.ProofState"}],"stateMutability":"view"},{"type":"function","name":"rejectProof","inputs":[{"name":"proofId","type":"uint256","internalType":"uint256"}],"outputs":[],"stateMutability":"nonpayable"},{"type":"function","name":"renounceOwnership","inputs":[],"outputs":[],"stateMutability":"nonpayable"},{"type":"function","name":"setAttestationWindow","inputs":[{"name":"newWindow","type":"uint256","internalType":"uint256"}],"outputs":[],"stateMutability":"nonpayable"},{"type":"function","name":"setCategoryConfig","inputs":[{"name":"category","type":"uint8","internalType":"enum LifeRewards.Category"},{"name":"baseReward","type":"uint256","internalType":"uint256"},{"name":"dailyCap","type":"uint256","internalType":"uint256"},{"name":"minAttestations","type":"uint256","internalType":"uint256"},{"name":"active","type":"bool","internalType":"bool"}],"outputs":[],"stateMutability":"nonpayable"},{"type":"function","name":"setDailyEmissionCap","inputs":[{"name":"newCap","type":"uint256","internalType":"uint256"}],"outputs":[],"stateMutability":"nonpayable"},{"type":"function","name":"skillToken","inputs":[],"outputs":[{"name":"","type":"address","internalType":"contract SkillToken"}],"stateMutability":"view"},{"type":"function","name":"streaks","inputs":[{"name":"","type":"address","internalType":"address"}],"outputs":[{"name":"lastActiveDay","type":"uint256","internalType":"uint256"},{"name":"consecutiveDays","type":"uint256","internalType":"uint256"}],"stateMutability":"view"},{"type":"function","name":"submitProof","inputs":[{"name":"category","type":"uint8","internalType":"enum LifeRewards.Category"},{"name":"proofHash","type":"bytes32","internalType":"bytes32"}],"outputs":[{"name":"proofId","type":"uint256","internalType":"uint256"}],"stateMutability":"nonpayable"},{"type":"function","name":"todayEmitted","inputs":[],"outputs":[{"name":"","type":"uint256","internalType":"uint256"}],"stateMutability":"view"},{"type":"function","name":"transferOwnership","inputs":[{"name":"newOwner","type":"address","internalType":"address"}],"outputs":[],"stateMutability":"nonpayable"},{"type":"function","name":"trustOracle","inputs":[],"outputs":[{"name":"","type":"address","internalType":"contract TrustOracle"}],"stateMutability":"view"},{"type":"function","name":"unpause","inputs":[],"outputs":[],"stateMutability":"nonpayable"},{"type":"event","name":"AttestationWindowUpdated","inputs":[{"name":"newWindow","type":"uint256","indexed":false,"internalType":"uint256"}],"anonymous":false},{"type":"event","name":"CategoryConfigUpdated","inputs":[{"name":"category","type":"uint8","indexed":true,"internalType":"enum LifeRewards.Category"},{"name":"baseReward","type":"uint256","indexed":false,"internalType":"uint256"},{"name":"dailyCap","type":"uint256","indexed":false,"internalType":"uint256"},{"name":"minAttestations","type":"uint256","indexed":false,"internalType":"uint256"},{"name":"active","type":"bool","indexed":false,"internalType":"bool"}],"anonymous":false},{"type":"event","name":"DailyEmissionCapUpdated","inputs":[{"name":"newCap","type":"uint256","indexed":false,"internalType":"uint256"}],"anonymous":false},{"type":"event","name":"OwnershipTransferred","inputs":[{"name":"previousOwner","type":"address","indexed":true,"internalType":"address"},{"name":"newOwner","type":"address","indexed":true,"internalType":"address"}],"anonymous":false},{"type":"event","name":"Paused","inputs":[{"name":"account","type":"address","indexed":false,"internalType":"address"}],"anonymous":false},{"type":"event","name":"ProofAttested","inputs":[{"name":"proofId","type":"uint256","indexed":true,"internalType":"uint256"},{"name":"attestor","type":"address","indexed":true,"internalType":"address"},{"name":"attestationCount","type":"uint256","indexed":false,"internalType":"uint256"}],"anonymous":false},{"type":"event","name":"ProofExpired","inputs":[{"name":"proofId","type":"uint256","indexed":true,"internalType":"uint256"}],"anonymous":false},{"type":"event","name":"ProofRejected","inputs":[{"name":"proofId","type":"uint256","indexed":true,"internalType":"uint256"}],"anonymous":false},{"type":"event","name":"ProofSubmitted","inputs":[{"name":"proofId","type":"uint256","indexed":true,"internalType":"uint256"},{"name":"submitter","type":"address","indexed":true,"internalType":"address"},{"name":"category","type":"uint8","indexed":false,"internalType":"enum LifeRewards.Category"},{"name":"proofHash","type":"bytes32","indexed":false,"internalType":"bytes32"}],"anonymous":false},{"type":"event","name":"RewardMinted","inputs":[{"name":"proofId","type":"uint256","indexed":true,"internalType":"uint256"},{"name":"recipient","type":"address","indexed":true,"internalType":"address"},{"name":"category","type":"uint8","indexed":false,"internalType":"enum LifeRewards.Category"},{"name":"baseAmount","type":"uint256","indexed":false,"internalType":"uint256"},{"name":"finalAmount","type":"uint256","indexed":false,"internalType":"uint256"}],"anonymous":false},{"type":"event","name":"StreakUpdated","inputs":[{"name":"user","type":"address","indexed":true,"internalType":"address"},{"name":"consecutiveDays","type":"uint256","indexed":false,"internalType":"uint256"}],"anonymous":false},{"type":"event","name":"Unpaused","inputs":[{"name":"account","type":"address","indexed":false,"internalType":"address"}],"anonymous":false},{"type":"error","name":"EnforcedPause","inputs":[]},{"type":"error","name":"ExpectedPause","inputs":[]},{"type":"error","name":"OwnableInvalidOwner","inputs":[{"name":"owner","type":"address","internalType":"address"}]},{"type":"error","name":"OwnableUnauthorizedAccount","inputs":[{"name":"account","type":"address","internalType":"address"}]},{"type":"error","name":"ReentrancyGuardReentrantCall","inputs":[]}],"bytecode":{"object":"0x60e0346200048b57601f6200226238819003918201601f191683019291906001600160401b038411838510176200048f5781608092849260409687528339810103126200048b576200005181620004c3565b60209162000061838201620004c3565b916200006f858301620004c3565b60608093015190331562000474575f8054336001600160a01b0319821681178355895193926001600160a01b03928316907f8be0079c531659141344cd1fd0a4f28419497f9722a3daafe3b4186f6b6457e09080a3600196877f9b779b17422d0df92223018b32b4d1fa46e071723d6817e2486d003becc55f005581620151809687600955169384156200043257508116918215620003ee5716918215620003aa578315620003665760805260a05260c052600655420460085562000133620004a3565b6611c37937e0800081528381019266b1a2bc2ec500008452858201600290818152848401958387525f8052838852885f2094518555518385015551818401556003809301945115159360ff19958681541660ff80971617905562000196620004a3565b926706f05b59d3b20000845287840185674563918244f40000958683528b810186815285820193858552855f52858d528d5f209251835551858301555186820155019051151587898354169116179055620001f0620004a3565b6722b1c8c1227a00008152858982019168015af1d78b58c4000083528b810182815285820193858552875f52858d528d5f20925183555185830155518682015501905115158789835416911617905562000249620004a3565b8481528886818301928c6802b5e3af16b188000094858152818301918483528789850196818852865f52525f2092518355518683015551878201550190511515888a835416911617905588866200029f620004a3565b8781528c83820185815281830191848352878985019681885260045f52525f2092518355518683015551878201550190511515888a8354169116179055620002e6620004a3565b948552888501908152818a860193878552860199818b5260055f5252895f209451855551908401555190820155019251151591835416911617905551611d899081620004d982396080518181816104110152611aa7015260a051818181610b740152611689015260c0518181816103b001528181610aec0152610eaf0152f35b885162461bcd60e51b815260048101899052601760248201527f4c6966653a207a65726f20656d697373696f6e206361700000000000000000006044820152606490fd5b885162461bcd60e51b815260048101899052601760248201527f4c6966653a207a65726f206e6f646552656769737472790000000000000000006044820152606490fd5b895162461bcd60e51b8152600481018a9052601660248201527f4c6966653a207a65726f2074727573744f7261636c65000000000000000000006044820152606490fd5b62461bcd60e51b8152600481018a9052601560248201527f4c6966653a207a65726f20736b696c6c546f6b656e00000000000000000000006044820152606490fd5b8651631e4fbdf760e01b81525f6004820152602490fd5b5f80fd5b634e487b7160e01b5f52604160045260245ffd5b60405190608082016001600160401b038111838210176200048f57604052565b51906001600160a01b03821682036200048b5756fe6080806040526004361015610012575f80fd5b5f3560e01c9081630e8f95f7146116b85750806310a626de14611674578063116ba4db146114f65780633f4ba83a146114875780634206aeef1461143e57806345cfa8041461142157806347fc31e614610e71578063492b2c9414610a0a5780634ea00d55146109ef57806357281aba146109ac578063586a1960146109425780635a0b20f0146108675780635c975abb146108435780636a14602414610821578063715018a6146107ca57806379fd9365146107895780637aeb6f0f1461076c5780638456cb591461070c57806387014882146106ea5780638c6478cc146106615780638da5cb5b1461063a5780638dd5c465146105ff5780639ddaf5aa14610555578063a6c11963146104d6578063addecc06146104b9578063b2b6cba61461049c578063c6f5065114610440578063d1ebdfd3146103fc578063d6d070c3146103df578063d9b5c4a51461039b578063e08eae5f14610379578063e66b6fc314610357578063f1c6c4c014610279578063f2fde38b146101ef5763fe1faae51461019d575f80fd5b346101eb5760403660031901126101eb576024356001600160a01b038116908190036101eb576004355f52600360205260405f20905f52602052602060ff60405f2054166040519015158152f35b5f80fd5b346101eb5760203660031901126101eb576102086116d1565b61021061193a565b6001600160a01b03908116908115610261575f54826bffffffffffffffffffffffff60a01b8216175f55167f8be0079c531659141344cd1fd0a4f28419497f9722a3daafe3b4186f6b6457e05f80a3005b604051631e4fbdf760e01b81525f6004820152602490fd5b346101eb5760203660031901126101eb5760043561029a60025482106118b8565b6102a381611725565b50600881019081549060ff82166004811015610343576102d4916102c9600692156118fa565b015460095490611890565b42111561030a5760ff191660031790557f468e5245a6281be1138c722cca240259a211987b9f7d7b9897a35a3539f0434a5f80a2005b60405162461bcd60e51b8152602060048201526011602482015270131a59994e881b9bdd08195e1c1a5c9959607a1b6044820152606490fd5b634e487b7160e01b5f52602160045260245ffd5b346101eb575f3660031901126101eb57602060405167058d15e1762800008152f35b346101eb575f3660031901126101eb5760206040516709b6e64a8ec600008152f35b346101eb575f3660031901126101eb576040517f00000000000000000000000000000000000000000000000000000000000000006001600160a01b03168152602090f35b346101eb575f3660031901126101eb576020600654604051908152f35b346101eb575f3660031901126101eb576040517f00000000000000000000000000000000000000000000000000000000000000006001600160a01b03168152602090f35b346101eb575f3660031901126101eb57600854620151804204036104945760606007545b6006548181111561048d57610479828261189d565b905b60405192835260208301526040820152f35b5f9061047b565b60605f610464565b346101eb575f3660031901126101eb576020600854604051908152f35b346101eb575f3660031901126101eb576020600254604051908152f35b346101eb5760203660031901126101eb576004356104f261193a565b6104ff60025482106118b8565b600861050a82611725565b5001805460ff811690600482101561034357610528600292156118fa565b60ff19161790557fc4abe6c685219dade23ca08ea316ea9c38314a8dee5bf0b11af51d4a7b88dd445f80a2005b346101eb5760203660031901126101eb576004356002548110156101eb5761057c90611725565b50805460018060a01b0360018301541691600281015460ff60038301541660048301546105d660058501549260068601549460ff600860078901549801541698604051988952602089015260408801526060870190611772565b608085015260a084015260c083015260e082015260048210156103435761012091610100820152f35b346101eb5760203660031901126101eb576001600160a01b036106206116d1565b165f5260056020526020600160405f200154604051908152f35b346101eb575f3660031901126101eb575f546040516001600160a01b039091168152602090f35b346101eb5760203660031901126101eb5760043561067d61193a565b80156106b4576020817ff7b5fcabb6bd4928e0a49a3ad85e5b2ac569aeec198965d4734c91eef9d096e392600655604051908152a1005b60405162461bcd60e51b815260206004820152600e60248201526d04c6966653a207a65726f206361760941b6044820152606490fd5b346101eb575f3660031901126101eb5760206040516710a741a4627800008152f35b346101eb575f3660031901126101eb5761072461193a565b61072c61199d565b5f805460ff60a01b1916600160a01b1790556040513381527f62e78cea01bee320cd4e420270b5ea74000d11b0c9f74754ebdbfc544b05a25890602090a1005b346101eb575f3660031901126101eb576020600954604051908152f35b346101eb5760203660031901126101eb576001600160a01b036107aa6116d1565b165f5260056020526040805f206001815491015482519182526020820152f35b346101eb575f3660031901126101eb576107e261193a565b5f80546001600160a01b0319811682556001600160a01b03167f8be0079c531659141344cd1fd0a4f28419497f9722a3daafe3b4186f6b6457e08280a3005b346101eb575f3660031901126101eb576020604051670de0b6b3a76400008152f35b346101eb575f3660031901126101eb57602060ff5f5460a01c166040519015158152f35b346101eb5760203660031901126101eb5760043561088361193a565b610e1081106109045762093a8081116108c7576020817f2cb81b00ebe4d04090d7025342acb166b8f8a183f77b77cabb3c9e6db5d7d78692600955604051908152a1005b60405162461bcd60e51b81526020600482015260156024820152744c6966653a2077696e646f7720746f6f206c6f6e6760581b6044820152606490fd5b60405162461bcd60e51b8152602060048201526016602482015275131a59994e881dda5b991bddc81d1bdbc81cda1bdc9d60521b6044820152606490fd5b346101eb5760203660031901126101eb5760043560068110156101eb576109689061170e565b80546109a860018301549260ff60036002830154920154169060405194859485926060929594919560808501968552602085015260408401521515910152565b0390f35b346101eb5760203660031901126101eb576001600160a01b036109cd6116d1565b165f52600560205260206109e7600160405f200154611cad565b604051908152f35b346101eb575f3660031901126101eb57602060405160038152f35b346101eb576020806003193601126101eb57600435610a2761199d565b7f9b779b17422d0df92223018b32b4d1fa46e071723d6817e2486d003becc55f00906002825414610e5f5760028255610a6360025482106118b8565b610a6c81611725565b509060ff600883015416600481101561034357610a8990156118fa565b610a9a600683015460095490611890565b4211610e1a5760018201546001600160a01b03949085163314610dd657815f526003815260405f20335f52815260ff60405f205416610d995760405163d752267560e01b8152336004820152602495907f0000000000000000000000000000000000000000000000000000000000000000821683828981845afa918215610caa575f92610d6a575b508115610d265783889160405192838092631392c59160e11b82528660048301525afa908115610caa575f91610cf9575b5015610cb5578290876040518094819363a2cb50ad60e01b835260048301527f0000000000000000000000000000000000000000000000000000000000000000165afa8015610caa575f90610c75575b67058d15e176280000915010610c3c5760019450815f526003815260405f20335f52815260405f208560ff198254161790556007830191610be483546118aa565b8093557f07d940a14e0ab5987f97b30cb71314e55983efc449ea95d6fbd65b457ac678fb604051928484523393a36002610c2460ff60038501541661170e565b01541115610c30575055005b610c39906119bd565b55005b6064906013866040519262461bcd60e51b84526004840152820152724c6966653a20747275737420746f6f206c6f7760681b6044820152fd5b508181813d8311610ca3575b610c8b818361179b565b810103126101eb5767058d15e1762800009051610ba3565b503d610c81565b6040513d5f823e3d90fd5b60405162461bcd60e51b8152600481018490526017818901527f4c6966653a206174746573746f7220696e6163746976650000000000000000006044820152606490fd5b610d199150843d8611610d1f575b610d11818361179b565b810190611869565b88610b53565b503d610d07565b60405162461bcd60e51b8152600481018590526019818a01527f4c6966653a206174746573746f72206e6f742061206e6f6465000000000000006044820152606490fd5b9091508381813d8311610d92575b610d82818361179b565b810103126101eb57519088610b22565b503d610d78565b6064906040519062461bcd60e51b825260048201526016602482015275131a59994e88185b1c9958591e48185d1d195cdd195960521b6044820152fd5b6064906040519062461bcd60e51b82526004820152601860248201527f4c6966653a2063616e6e6f742073656c662d61747465737400000000000000006044820152fd5b60405162461bcd60e51b815260048101859052601960248201527f4c6966653a206174746573746174696f6e2065787069726564000000000000006044820152606490fd5b604051633ee5aeb560e01b8152600490fd5b346101eb5760403660031901126101eb5760068060043510156101eb57610e9661199d565b60405163d752267560e01b8152336004820152602091907f00000000000000000000000000000000000000000000000000000000000000006001600160a01b03168382602481845afa918215610caa575f926113f2575b5081156113ba578360249160405192838092631392c59160e11b82528660048301525afa908115610caa575f9161139d575b501561136257610f3060043561170e565b9160ff6003840154161561131d57335f526004845260405f2090620151804204808354036112be575b5050600a610f6c60043560018401611881565b90549060031b1c101561127957610f8860043560018301611881565b90549060031b1c8354905f905b80821061123457505080936001610fc26007850193610fb660043586611881565b90549060031b1c611890565b9101548091116111e8575b505082156111a3576002549260405192610120840184811067ffffffffffffffff82111761118f57604052848452338685015260408401526004356060840152602435608084015260a08301524260c08301525f60e08301525f6101008301526801000000000000000083101561118f576001830160025561104e83611725565b92909261117c5780518355848101516001840180546001600160a01b0319166001600160a01b039290921691909117905560408101516002840155606081015192600381016006851015610343576101009160089160ff199660ff8883541691161790556080840151600482015560a0840151600582015560c0840151600682015560e084015160078201550191015160048110156103435760ff600d94835416911617905561112b61110660043560018401611881565b61111582548260031b1c6118aa565b82545f1960039390931b92831b1916911b179055565b0160016004351b815417905560405161114681600435611772565b60243583820152817fcb135f8062d931e6734d12cec23df98fbb2a4a7707270cc3b4717843342c7ec460403393a3604051908152f35b634e487b7160e01b5f525f60045260245ffd5b634e487b7160e01b5f52604160045260245ffd5b60405162461bcd60e51b815260048101859052601760248201527f4c6966653a206461696c792063617020726561636865640000000000000000006044820152606490fd5b909193506111f860043583611881565b90549060031b1c81115f1461122c576112176112249260043590611881565b90549060031b1c9061189d565b918480610fcd565b50505f611224565b90916709b6e64a8ec600009081810291818304149015171561126557670de0b6b3a764000060019104920190610f95565b634e487b7160e01b5f52601160045260245ffd5b60405162461bcd60e51b815260048101859052601a60248201527f4c6966653a206461696c79206163746976697479206c696d69740000000000006044820152606490fd5b8255600190600783018284015f5b8381106112e55750505050505f600d8201558480610f59565b806112f1869284611881565b9080545f19809360031b1b1916905561130a8286611881565b909182549160031b1b19169055016112cc565b60405162461bcd60e51b815260048101859052601760248201527f4c6966653a2063617465676f727920696e6163746976650000000000000000006044820152606490fd5b60405162461bcd60e51b81526004810184905260136024820152724c6966653a206e6f646520696e61637469766560681b6044820152606490fd5b6113b49150843d8611610d1f57610d11818361179b565b84610f1f565b60405162461bcd60e51b815260048101859052601060248201526f4c6966653a206e6f742061206e6f646560801b6044820152606490fd5b9091508381813d831161141a575b61140a818361179b565b810103126101eb57519084610eed565b503d611400565b346101eb575f3660031901126101eb576020600754604051908152f35b346101eb5760203660031901126101eb576101a061147f6114656114606116d1565b6117f1565b91929061147560405180956116e7565b60c08401906116e7565b610180820152f35b346101eb575f3660031901126101eb5761149f61193a565b5f5460ff8160a01c16156114e45760ff60a01b19165f556040513381527f5db9ee0a495bf2e6ff9c91a7834c1ba4fdd244a5e8aa4e537bd38aeae4b073aa90602090a1005b604051638dfc202b60e01b8152600490fd5b346101eb5760a03660031901126101eb5760043560068110156101eb576024356044356064359160843592831515938481036101eb5761153461193a565b811561162f578284106115f75760405191608083019583871067ffffffffffffffff88111761118f5760036115f2947f8b5c0472e6b11fb8fb792821b6d8c14dc66b7bae59a3426cef62bcd7f8bc4d4c98604052868152602081018881526040820190858252606083019485526115aa8c61170e565b92518355516001830155516002820155019051151560ff8019835416911617905560405194859485926060929594919560808501968552602085015260408401521515910152565b0390a2005b60405162461bcd60e51b815260206004820152601060248201526f4c6966653a20636170203c206261736560801b6044820152606490fd5b60405162461bcd60e51b815260206004820152601760248201527f4c6966653a207a65726f206174746573746174696f6e730000000000000000006044820152606490fd5b346101eb575f3660031901126101eb576040517f00000000000000000000000000000000000000000000000000000000000000006001600160a01b03168152602090f35b346101eb575f3660031901126101eb5780600a60209252f35b600435906001600160a01b03821682036101eb57565b5f915b600683106116f757505050565b6001908251815260208091019201920191906116ea565b6006811015610343575f52600160205260405f2090565b60025481101561175e5760099060025f52027f405787fa12a823e0f2b7631cc41b3ba8828b3321ca811111fa75cd3aa3bb5ace01905f90565b634e487b7160e01b5f52603260045260245ffd5b9060068210156103435752565b60c0810190811067ffffffffffffffff82111761118f57604052565b90601f8019910116810190811067ffffffffffffffff82111761118f57604052565b60405191905f835b600682106117db575050506117d98261177f565b565b60016020819285548152019301910190916117c5565b604051906117fe8261177f565b60c0368337604051906118108261177f565b60c036833760018060a01b03165f52600460205260405f2091620151804204835403611861575050611844600182016117bd565b9161185e600d611856600785016117bd565b930154611965565b90565b929091505f90565b908160209103126101eb575180151581036101eb5790565b600682101561175e5701905f90565b9190820180921161126557565b9190820391821161126557565b5f1981146112655760010190565b156118bf57565b60405162461bcd60e51b81526020600482015260136024820152722634b3329d1034b73b30b634b210383937b7b360691b6044820152606490fd5b1561190157565b60405162461bcd60e51b81526020600482015260116024820152704c6966653a206e6f742070656e64696e6760781b6044820152606490fd5b5f546001600160a01b0316330361194d57565b60405163118cdaa760e01b8152336004820152602490fd5b905f915f5b60068110611976575050565b6001811b8216611989575b60010161196a565b926119956001916118aa565b939050611981565b60ff5f5460a01c166119ab57565b60405163d93c066560e01b8152600490fd5b600881016001908160ff19825416179055600582018054908284019260018060a01b0392838554165f526005602052604090815f20620151804204938154915f198601928684116112655786611a2e948214918215611ca3575b505015611c695785815403611c23575b0154611cad565b9081810291818304149015171561126557670de0b6b3a764000080910492858754165f526004602052825f209181835414611beb575b508060085403611bde575b600754611a7c8582611890565b600654809111611bba575b508415611baf5784611a9891611890565b600755815414611b77575b50837f00000000000000000000000000000000000000000000000000000000000000001684865416813b156101eb575f9160448392855194859384926340c10f1960e01b845260048401528860248401525af18015611b6d57611b4f575b50906060929160ff60037f068dc6f0906098c0af353d223ab6f252798e4ed84ce5f369dbbd81c5f4f6656d968954985416980154169254611b4482518095611772565b6020840152820152a3565b92919067ffffffffffffffff841161118f5792835290916060611b01565b82513d5f823e3d90fd5b60ff60038801541690600682101561034357611ba9916007611b999201611881565b6111158583548360031b1c611890565b5f611aa3565b505050505050505050565b9094508480821115611bd657611bcf9161189d565b935f611a87565b50505f611bcf565b806008555f600755611a6f565b6003611bfa600d850154611965565b10611a645790936710a741a462780000908181029181830414901517156112655704925f611a64565b818101611c3081546118aa565b8091558682557f46f6fe577ecfefe55b0f14f0b42ddb4c22db1fb9bade43aa02c5ef4e5439512e60208a8c5416928851908152a2611a27565b8180820155858155878954167f46f6fe577ecfefe55b0f14f0b42ddb4c22db1fb9bade43aa02c5ef4e5439512e60208751858152a2611a27565b149050865f611a17565b60078110611d4657601e8110611d0c57605a8110611cd257506714d1120d7b16000090565b601d198101908111611265576702c68af0bb140000908082029182040361126557603c670f43fc2c04ee0000910481018091116112655790565b60061981019081116112655767016345785d8a00009080820291820403611265576017670de0b6b3a7640000910481018091116112655790565b50670de0b6b3a76400009056fea2646970667358221220bb7f0072054231ef2c7c0357371e520512719adf058b75649472d00528df9e7b64736f6c63430008180033","linkReferences":{}},"methodIdentifiers":{"DECAY_FACTOR()":"e08eae5f","DIVERSITY_BONUS()":"87014882","DIVERSITY_THRESHOLD()":"4ea00d55","MAX_DAILY_ACTIVITIES()":"0e8f95f7","MIN_ATTESTOR_TRUST()":"e66b6fc3","WAD()":"6a146024","attestProof(uint256)":"492b2c94","attestationWindow()":"7aeb6f0f","categoryConfigs(uint8)":"586a1960","consecutiveDaysOf(address)":"8dd5c465","dailyEmissionCap()":"d6d070c3","emissionDay()":"b2b6cba6","expireProof(uint256)":"f1c6c4c0","getDailyActivity(address)":"4206aeef","getEmissionStatus()":"c6f50651","getStreakMultiplier(address)":"57281aba","hasAttested(uint256,address)":"fe1faae5","nodeRegistry()":"d9b5c4a5","owner()":"8da5cb5b","pause()":"8456cb59","paused()":"5c975abb","proofCount()":"addecc06","proofs(uint256)":"9ddaf5aa","rejectProof(uint256)":"a6c11963","renounceOwnership()":"715018a6","setAttestationWindow(uint256)":"5a0b20f0","setCategoryConfig(uint8,uint256,uint256,uint256,bool)":"116ba4db","setDailyEmissionCap(uint256)":"8c6478cc","skillToken()":"d1ebdfd3","streaks(address)":"79fd9365","submitProof(uint8,bytes32)":"47fc31e6","todayEmitted()":"45cfa804","transferOwnership(address)":"f2fde38b","trustOracle()":"10a626de","unpause()":"3f4ba83a"},"id":53}