{"abi":[{"type":"constructor","inputs":[{"name":"_nodeRegistry","type":"address","internalType":"address"}],"stateMutability":"nonpayable"},{"type":"function","name":"BLOCKS_PER_EPOCH","inputs":[],"outputs":[{"name":"","type":"uint256","internalType":"uint256"}],"stateMutability":"view"},{"type":"function","name":"MAX_ATTESTATIONS","inputs":[],"outputs":[{"name":"","type":"uint256","internalType":"uint256"}],"stateMutability":"view"},{"type":"function","name":"attestationCount","inputs":[{"name":"nodeId","type":"bytes32","internalType":"bytes32"}],"outputs":[{"name":"","type":"uint256","internalType":"uint256"}],"stateMutability":"view"},{"type":"function","name":"getTrustScore","inputs":[{"name":"nodeId","type":"bytes32","internalType":"bytes32"}],"outputs":[{"name":"","type":"uint256","internalType":"uint256"}],"stateMutability":"view"},{"type":"function","name":"getTrustWeightedVote","inputs":[{"name":"nodeId","type":"bytes32","internalType":"bytes32"}],"outputs":[{"name":"","type":"uint256","internalType":"uint256"}],"stateMutability":"view"},{"type":"function","name":"lastAttestEpoch","inputs":[{"name":"","type":"bytes32","internalType":"bytes32"},{"name":"","type":"bytes32","internalType":"bytes32"}],"outputs":[{"name":"","type":"uint256","internalType":"uint256"}],"stateMutability":"view"},{"type":"function","name":"nodeRegistry","inputs":[],"outputs":[{"name":"","type":"address","internalType":"contract NodeRegistry"}],"stateMutability":"view"},{"type":"function","name":"owner","inputs":[],"outputs":[{"name":"","type":"address","internalType":"address"}],"stateMutability":"view"},{"type":"function","name":"renounceOwnership","inputs":[],"outputs":[],"stateMutability":"nonpayable"},{"type":"function","name":"reportTrust","inputs":[{"name":"targetNodeId","type":"bytes32","internalType":"bytes32"},{"name":"trustScore","type":"uint256","internalType":"uint256"},{"name":"","type":"bytes","internalType":"bytes"}],"outputs":[],"stateMutability":"nonpayable"},{"type":"function","name":"transferOwnership","inputs":[{"name":"newOwner","type":"address","internalType":"address"}],"outputs":[],"stateMutability":"nonpayable"},{"type":"event","name":"OwnershipTransferred","inputs":[{"name":"previousOwner","type":"address","indexed":true,"internalType":"address"},{"name":"newOwner","type":"address","indexed":true,"internalType":"address"}],"anonymous":false},{"type":"event","name":"TrustAggregated","inputs":[{"name":"nodeId","type":"bytes32","indexed":true,"internalType":"bytes32"},{"name":"aggregatedScore","type":"uint256","indexed":false,"internalType":"uint256"}],"anonymous":false},{"type":"event","name":"TrustReported","inputs":[{"name":"targetNodeId","type":"bytes32","indexed":true,"internalType":"bytes32"},{"name":"reporterNodeId","type":"bytes32","indexed":true,"internalType":"bytes32"},{"name":"trustScore","type":"uint256","indexed":false,"internalType":"uint256"}],"anonymous":false},{"type":"error","name":"OwnableInvalidOwner","inputs":[{"name":"owner","type":"address","internalType":"address"}]},{"type":"error","name":"OwnableUnauthorizedAccount","inputs":[{"name":"account","type":"address","internalType":"address"}]}],"bytecode":{"object":"0x60a03461011657601f610e1a38819003918201601f19168301916001600160401b0383118484101761011a5780849260209460405283398101031261011657516001600160a01b03808216918290036101165733156100fe575f543360018060a01b03198216175f55604051913391167f8be0079c531659141344cd1fd0a4f28419497f9722a3daafe3b4186f6b6457e05f80a381156100bc5750608052604051610ceb908161012f823960805181818161013e01526102b50152f35b62461bcd60e51b815260206004820152601a60248201527f54727573744f7261636c653a207a65726f2072656769737472790000000000006044820152606490fd5b604051631e4fbdf760e01b81525f6004820152602490fd5b5f80fd5b634e487b7160e01b5f52604160045260245ffdfe6080604081815260049182361015610015575f80fd5b5f3560e01c908163152560f3146107e2575080631f3adc0f146107c65780632639d99314610235578063715018a6146101de578063778e116f14610197578063883c27f1146101c35780638da5cb5b1461019c578063a2cb50ad14610197578063d65ddd521461016d578063d9b5c4a51461012a5763f2fde38b14610098575f80fd5b34610126576020366003190112610126576001600160a01b03823581811693919290849003610126576100c9610b52565b83156101105750505f54826bffffffffffffffffffffffff60a01b8216175f55167f8be0079c531659141344cd1fd0a4f28419497f9722a3daafe3b4186f6b6457e05f80a3005b905f6024925191631e4fbdf760e01b8352820152fd5b5f80fd5b5034610126575f36600319011261012657517f00000000000000000000000000000000000000000000000000000000000000006001600160a01b03168152602090f35b503461012657602036600319011261012657602091355f526001825260c9815f2001549051908152f35b610810565b5034610126575f366003190112610126575f5490516001600160a01b039091168152602090f35b5034610126575f366003190112610126576020905160328152f35b34610126575f366003190112610126576101f6610b52565b5f80546001600160a01b0319811682556001600160a01b03167f8be0079c531659141344cd1fd0a4f28419497f9722a3daafe3b4186f6b6457e08280a3005b509034610126576060366003190112610126578035602492833560449182359567ffffffffffffffff96878111610126573660238201121561012657808701358881116101265736910182011161012657670de0b6b3a7640000831161078c57815163d752267560e01b81523381880152956020946001600160a01b03907f0000000000000000000000000000000000000000000000000000000000000000821690878a8681855afa998a15610782575f9a610753575b508915610713578551631392c59160e11b8082528582018c90529089818881875afa90811561059c575f916106de575b501561069d578651908152898582015288818781865afa908115610693575f9161065e575b501561061e57888a146105de57611c204304908a5f5260028952865f208a5f52895281875f205410156105a65750895f5260028852855f20895f528852855f205560018752845f209960c88b01946032865406925f8c838a5180948193632864a37f60e11b83528b8301525afa94851561059c575f956104a1575b5050865191608083019081118382101761048e57908c9493929188528b82526103f88a8301938a855289840195865260608401964388526108f8565b96909661047e575050927f8b8031a0d60efed041cbebfa47d10d40fc3cb2358c0830c064a92118729ecd29999a9b949260039260c997955185555160018501555160028401555191015561044c815461091f565b90550180546032811061046c575b505061046585610994565b51908152a3005b6104759061091f565b90555f8061045a565b5f90634e487b7160e01b8252525ffd5b50634e487b7160e01b5f90815260418652fd5b909194503d805f843e6104b4818461083d565b82019060e083830312610126578a83015190811603610126578782015183811161012657820181601f820112156101265781818c6104f493519101610880565b5060608201518381116101265782019080601f830112156101265781518b8061051c836108e0565b6105288d51918261083d565b838152019160051b84010192828411610126578c8101915b8483106105665750505050508061055b60a060c09301610873565b500151925f806103bc565b825187811161012657820184603f82011215610126578e91610591868f938594858201519101610880565b815201920191610540565b88513d5f823e3d90fd5b84742a393ab9ba27b930b1b6329d1031b7b7b63237bbb760591b6064926015898d8c519562461bcd60e51b8752860152840152820152fd5b837f54727573744f7261636c653a2073656c662d61747465737400000000000000006064926018888c8b519562461bcd60e51b8752860152840152820152fd5b837f54727573744f7261636c653a2074617267657420696e61637469766500000000606492601c888c8b519562461bcd60e51b8752860152840152820152fd5b90508881813d831161068c575b610675818361083d565b810103126101265761068690610873565b5f610341565b503d61066b565b87513d5f823e3d90fd5b865162461bcd60e51b81528086018a9052601e818801527f54727573744f7261636c653a207265706f7274657220696e616374697665000081840152606490fd5b90508981813d831161070c575b6106f5818361083d565b810103126101265761070690610873565b5f61031c565b503d6106eb565b837f54727573744f7261636c653a206e6f742061206e6f64650000000000000000006064926017888c8b519562461bcd60e51b8752860152840152820152fd5b9099508781813d831161077b575b61076b818361083d565b810103126101265751985f6102ec565b503d610761565b86513d5f823e3d90fd5b7554727573744f7261636c653a2073636f7265203e203160501b84601688936020606496519562461bcd60e51b8752860152840152820152fd5b5034610126575f3660031901126101265760209051611c208152f35b91905034610126578060031936011261012657602092355f5260028352805f206024355f5283525f20548152f35b34610126576020366003190112610126576004355f526001602052602060ca60405f200154604051908152f35b90601f8019910116810190811067ffffffffffffffff82111761085f57604052565b634e487b7160e01b5f52604160045260245ffd5b5190811515820361012657565b92919267ffffffffffffffff821161085f576020604051916108ac6020601f19601f870116018461083d565b829584845284820111610126575f5b8481106108cf575050505f91602091010152565b8181015184820184015282016108bb565b67ffffffffffffffff811161085f5760051b60200190565b90603281101561090b5760021b01905f90565b634e487b7160e01b5f52603260045260245ffd5b5f19811461092d5760010190565b634e487b7160e01b5f52601160045260245ffd5b9061094b826108e0565b610958604051918261083d565b8281528092610969601f19916108e0565b0190602036910137565b9190820180921161092d57565b805182101561090b5760209160051b010190565b805f5260018060205260405f209060c9820154908115610b4c576109b782610941565b906109c183610941565b9260c88501548181115f14610b455781810390811161092d575b825f5b838110610afe575090505b818110610a375750505091610a216020927f75c75325f6fbbce41eeee01fd70bbc3419b98c568c1740920b68ffc843f8340594610b7d565b908160ca82015560cb43910155604051908152a2565b80610a43849286610980565b5182610a4f8389610980565b519183915b610a76575b90610a6f91610a68828a610980565b5288610980565b52016109e9565b9080929394501586811580610ade575b15610ad357505f1983019280841161092d57610aa2848a610980565b51610aad828b610980565b52610ac3610abb858c610980565b51918b610980565b5261092d57859392919084610a54565b949392919050610a59565b50505f19830183811161092d5782610af789928b610980565b5111610a86565b6002610b2f6032610b0f8487610973565b0684610b1b828d6108f8565b500154610b28858b610980565b528a6108f8565b500154610b3c8289610980565b520183906109de565b505f6109db565b50505050565b5f546001600160a01b03163303610b6557565b60405163118cdaa760e01b8152336004820152602490fd5b908151815103610c7057815115610c2b575f92835b8251851015610bba57610bb2600191610bab8786610980565b5190610973565b940193610b92565b9093505f9291600191821c9084835b610bee575b50505050809150515f19810190811161092d57610bea91610980565b5190565b8451861015610c2657610c0590610bab8784610980565b90828211610c1857948301949083610bc9565b5050505090610bea91610980565b610bce565b60405162461bcd60e51b815260206004820152601760248201527f54727573744d6174683a20656d707479206172726179730000000000000000006044820152606490fd5b60405162461bcd60e51b815260206004820152601a60248201527f54727573744d6174683a206c656e677468206d69736d617463680000000000006044820152606490fdfea264697066735822122016ef0079cc849e2d298bb8c8599d86cf55c767ba159361fc9b8e3d52f82fec6064736f6c63430008180033","linkReferences":{}},"methodIdentifiers":{"BLOCKS_PER_EPOCH()":"1f3adc0f","MAX_ATTESTATIONS()":"883c27f1","attestationCount(bytes32)":"d65ddd52","getTrustScore(bytes32)":"a2cb50ad","getTrustWeightedVote(bytes32)":"778e116f","lastAttestEpoch(bytes32,bytes32)":"152560f3","nodeRegistry()":"d9b5c4a5","owner()":"8da5cb5b","renounceOwnership()":"715018a6","reportTrust(bytes32,uint256,bytes)":"2639d993","transferOwnership(address)":"f2fde38b"},"id":60}