{"abi":[{"type":"constructor","inputs":[{"name":"_nodeRegistry","type":"address","internalType":"address"},{"name":"_skillRegistry","type":"address","internalType":"address"}],"stateMutability":"nonpayable"},{"type":"function","name":"CONSENSUS_THRESHOLD_BPS","inputs":[],"outputs":[{"name":"","type":"uint256","internalType":"uint256"}],"stateMutability":"view"},{"type":"function","name":"MIN_VALIDATORS","inputs":[],"outputs":[{"name":"","type":"uint256","internalType":"uint256"}],"stateMutability":"view"},{"type":"function","name":"challengeCount","inputs":[],"outputs":[{"name":"","type":"uint256","internalType":"uint256"}],"stateMutability":"view"},{"type":"function","name":"challengeValidation","inputs":[{"name":"skillId","type":"bytes32","internalType":"bytes32"},{"name":"targetValidationIdx","type":"uint256","internalType":"uint256"}],"outputs":[],"stateMutability":"nonpayable"},{"type":"function","name":"challenges","inputs":[{"name":"","type":"uint256","internalType":"uint256"}],"outputs":[{"name":"challengeId","type":"uint256","internalType":"uint256"},{"name":"skillId","type":"bytes32","internalType":"bytes32"},{"name":"challengerNodeId","type":"bytes32","internalType":"bytes32"},{"name":"targetValidationIdx","type":"uint256","internalType":"uint256"},{"name":"arbitratorNodeId","type":"bytes32","internalType":"bytes32"},{"name":"resolved","type":"bool","internalType":"bool"},{"name":"upheld","type":"bool","internalType":"bool"},{"name":"createdAt","type":"uint256","internalType":"uint256"}],"stateMutability":"view"},{"type":"function","name":"getValidationConsensus","inputs":[{"name":"skillId","type":"bytes32","internalType":"bytes32"}],"outputs":[{"name":"hasConsensus","type":"bool","internalType":"bool"},{"name":"numValidators","type":"uint256","internalType":"uint256"},{"name":"successRateBps","type":"uint256","internalType":"uint256"}],"stateMutability":"view"},{"type":"function","name":"nextChallengeId","inputs":[],"outputs":[{"name":"","type":"uint256","internalType":"uint256"}],"stateMutability":"view"},{"type":"function","name":"nodeRegistry","inputs":[],"outputs":[{"name":"","type":"address","internalType":"contract NodeRegistry"}],"stateMutability":"view"},{"type":"function","name":"owner","inputs":[],"outputs":[{"name":"","type":"address","internalType":"address"}],"stateMutability":"view"},{"type":"function","name":"renounceOwnership","inputs":[],"outputs":[],"stateMutability":"nonpayable"},{"type":"function","name":"resolveChallenge","inputs":[{"name":"challengeId","type":"uint256","internalType":"uint256"},{"name":"upheld","type":"bool","internalType":"bool"}],"outputs":[],"stateMutability":"nonpayable"},{"type":"function","name":"setStakingContract","inputs":[{"name":"_staking","type":"address","internalType":"address"}],"outputs":[],"stateMutability":"nonpayable"},{"type":"function","name":"skillRegistry","inputs":[],"outputs":[{"name":"","type":"address","internalType":"contract SkillRegistry"}],"stateMutability":"view"},{"type":"function","name":"stakingContract","inputs":[],"outputs":[{"name":"","type":"address","internalType":"address"}],"stateMutability":"view"},{"type":"function","name":"submitValidation","inputs":[{"name":"skillId","type":"bytes32","internalType":"bytes32"},{"name":"success","type":"bool","internalType":"bool"},{"name":"shadowRunCount","type":"uint256","internalType":"uint256"},{"name":"matchCount","type":"uint256","internalType":"uint256"},{"name":"avgSimilarity","type":"uint256","internalType":"uint256"},{"name":"resultIpfsCid","type":"string","internalType":"string"}],"outputs":[],"stateMutability":"nonpayable"},{"type":"function","name":"successCount","inputs":[{"name":"","type":"bytes32","internalType":"bytes32"}],"outputs":[{"name":"","type":"uint256","internalType":"uint256"}],"stateMutability":"view"},{"type":"function","name":"totalCount","inputs":[{"name":"","type":"bytes32","internalType":"bytes32"}],"outputs":[{"name":"","type":"uint256","internalType":"uint256"}],"stateMutability":"view"},{"type":"function","name":"transferOwnership","inputs":[{"name":"newOwner","type":"address","internalType":"address"}],"outputs":[],"stateMutability":"nonpayable"},{"type":"function","name":"validationCount","inputs":[{"name":"skillId","type":"bytes32","internalType":"bytes32"}],"outputs":[{"name":"","type":"uint256","internalType":"uint256"}],"stateMutability":"view"},{"type":"function","name":"validations","inputs":[{"name":"","type":"bytes32","internalType":"bytes32"},{"name":"","type":"uint256","internalType":"uint256"}],"outputs":[{"name":"skillId","type":"bytes32","internalType":"bytes32"},{"name":"validatorNodeId","type":"bytes32","internalType":"bytes32"},{"name":"success","type":"bool","internalType":"bool"},{"name":"shadowRunCount","type":"uint256","internalType":"uint256"},{"name":"matchCount","type":"uint256","internalType":"uint256"},{"name":"avgSimilarity","type":"uint256","internalType":"uint256"},{"name":"resultIpfsCid","type":"string","internalType":"string"},{"name":"timestamp","type":"uint256","internalType":"uint256"}],"stateMutability":"view"},{"type":"function","name":"validatorSubmissionCount","inputs":[{"name":"validator","type":"address","internalType":"address"}],"outputs":[{"name":"count","type":"uint256","internalType":"uint256"}],"stateMutability":"view"},{"type":"event","name":"ChallengeCreated","inputs":[{"name":"challengeId","type":"uint256","indexed":true,"internalType":"uint256"},{"name":"skillId","type":"bytes32","indexed":true,"internalType":"bytes32"},{"name":"challengerNodeId","type":"bytes32","indexed":true,"internalType":"bytes32"}],"anonymous":false},{"type":"event","name":"ChallengeResolved","inputs":[{"name":"challengeId","type":"uint256","indexed":true,"internalType":"uint256"},{"name":"upheld","type":"bool","indexed":false,"internalType":"bool"}],"anonymous":false},{"type":"event","name":"ConsensusReached","inputs":[{"name":"skillId","type":"bytes32","indexed":true,"internalType":"bytes32"},{"name":"totalValidations","type":"uint256","indexed":false,"internalType":"uint256"},{"name":"successRate","type":"uint256","indexed":false,"internalType":"uint256"}],"anonymous":false},{"type":"event","name":"OwnershipTransferred","inputs":[{"name":"previousOwner","type":"address","indexed":true,"internalType":"address"},{"name":"newOwner","type":"address","indexed":true,"internalType":"address"}],"anonymous":false},{"type":"event","name":"StakingContractSet","inputs":[{"name":"stakingContract","type":"address","indexed":false,"internalType":"address"}],"anonymous":false},{"type":"event","name":"ValidationSubmitted","inputs":[{"name":"skillId","type":"bytes32","indexed":true,"internalType":"bytes32"},{"name":"validatorNodeId","type":"bytes32","indexed":true,"internalType":"bytes32"},{"name":"success","type":"bool","indexed":false,"internalType":"bool"}],"anonymous":false},{"type":"error","name":"OwnableInvalidOwner","inputs":[{"name":"owner","type":"address","internalType":"address"}]},{"type":"error","name":"OwnableUnauthorizedAccount","inputs":[{"name":"account","type":"address","internalType":"address"}]}],"bytecode":{"object":"0x60c034620001b2576200191490601f38839003908101601f19168201906001600160401b03821183831017620001b65780839160409586948552833981010312620001b2576200005d60206200005583620001ca565b9201620001ca565b9033156200019b575f8054336001600160a01b03198216811783558551946001600160a01b0394909385939192918416907f8be0079c531659141344cd1fd0a4f28419497f9722a3daafe3b4186f6b6457e09080a31692831562000159575016908115620001155760805260a052516117349081620001e0823960805181818161021701528181610385015281816107f401528181610d5901526114c4015260a051818181610d0b015281816112d901526115000152f35b825162461bcd60e51b815260206004820152601a60248201527f56616c5265673a207a65726f20736b696c6c52656769737472790000000000006044820152606490fd5b62461bcd60e51b815260206004820152601960248201527f56616c5265673a207a65726f206e6f64655265676973747279000000000000006044820152606490fd5b8251631e4fbdf760e01b81525f6004820152602490fd5b5f80fd5b634e487b7160e01b5f52604160045260245ffd5b51906001600160a01b0382168203620001b25756fe6080806040526004361015610012575f80fd5b5f3560e01c9081630f23c83c146112c7575080631613632f14611294578063314a03a4146112785780634d44b9e7146112415780634fc2701914611217578063574c27ac14610c8d5780635ed1f96314610c72578063689ad8a5146107b9578063715018a6146107625780638b1ea648146105e25780638da5cb5b146105bb5780638f1d3776146105345780638fbc10331461050a57806394a754e0146103195780639dd373b914610263578063a2f0572514610246578063d9b5c4a514610202578063ee90c0da146101d8578063ee99205c146101b0578063f2fde38b146101245763fc67aa5014610103575f80fd5b34610120575f366003190112610120576020600654604051908152f35b5f80fd5b34610120576020366003190112610120576004356001600160a01b0381811691829003610120576101536116d3565b8115610198575f54826bffffffffffffffffffffffff60a01b8216175f55167f8be0079c531659141344cd1fd0a4f28419497f9722a3daafe3b4186f6b6457e05f80a3005b604051631e4fbdf760e01b81525f6004820152602490fd5b34610120575f366003190112610120576001546040516001600160a01b039091168152602090f35b34610120576020366003190112610120576004355f526004602052602060405f2054604051908152f35b34610120575f366003190112610120576040517f00000000000000000000000000000000000000000000000000000000000000006001600160a01b03168152602090f35b34610120575f366003190112610120576020600554604051908152f35b34610120576020366003190112610120576004356001600160a01b03811690819003610120576102916116d3565b80156102dd576020817f1253844b0fff3da7dd2829de816c9b4f94c238cf2bf6eb72c02c7d6f2b53beac926bffffffffffffffffffffffff60a01b6001541617600155604051908152a1005b60405162461bcd60e51b815260206004820152601460248201527356616c5265673a207a65726f207374616b696e6760601b6044820152606490fd5b3461012057604036600319011261012057600435610335611308565b6005548210156104c557610348826113d1565b509060058201805460ff8116610480576004938401546040516001628aabd560e01b03198152948501526020936001600160a01b039085816024817f000000000000000000000000000000000000000000000000000000000000000086165afa908115610475575f9161043f575b501633036104015761ffff191682151560081b61ff00161760011790557f1c13286911ea61ab9e07cf462b69b2c12954593a03380a618afdf62d227021ae91906040519015158152a2005b60405162461bcd60e51b81526004810185905260166024820152752b30b62932b39d103737ba1030b93134ba3930ba37b960511b6044820152606490fd5b90508581813d831161046e575b61045681836113af565b810103126101205751818116810361012057876103b6565b503d61044c565b6040513d5f823e3d90fd5b60405162461bcd60e51b815260206004820152601860248201527f56616c5265673a20616c7265616479207265736f6c76656400000000000000006044820152606490fd5b60405162461bcd60e51b815260206004820152601960248201527f56616c5265673a20696e76616c6964206368616c6c656e6765000000000000006044820152606490fd5b34610120576020366003190112610120576004355f526002602052602060405f2054604051908152f35b34610120576020366003190112610120576004356005548110156101205761055e610100916113d1565b5080549060ff6001820154916002810154600382015460048301549160066005850154940154956040519788526020880152604087015260608601526080850152818116151560a085015260081c16151560c083015260e0820152f35b34610120575f366003190112610120575f546040516001600160a01b039091168152602090f35b34610120576105f036611317565b905f526020906002825260405f20908154811015610120576106119161132d565b50805460019260018301549360ff600285015416936003810154600482015490600583015492600681016040519586915f9181549161064f8361135a565b928386528b6001821691825f1461073c5750506001146106fd575b50505060079291610685919b9998979695949a9b03866113af565b01549660405198899761010097895286890152151560408801526060870152608086015260a08501528260c0850152805180938501525f5b8381106106e557505050610120925f84838501015260e0830152601f80199101168101030190f35b818101830151878201610120015286945082016106bd565b8a93505f92919252825f20915f925b8284106107245750505082010181610685600761066a565b8054848c018601528a95508b9490930192810161070c565b60ff19168782015293151560051b8601909301935084925061068591506007905061066a565b34610120575f3660031901126101205761077a6116d3565b5f80546001600160a01b0319811682556001600160a01b03167f8be0079c531659141344cd1fd0a4f28419497f9722a3daafe3b4186f6b6457e08280a3005b34610120576107c736611317565b90805f526020916002835260405f2054811015610c355760405163d752267560e01b8152336004820152927f00000000000000000000000000000000000000000000000000000000000000006001600160a01b0316916024919081868481875afa958615610475575f96610c06575b50610842861515611692565b604051631392c59160e11b81526004810187905282818581885afa908115610475575f91610bd9575b5015610b96576006549361087e85611482565b600655604051636da49b8360e01b81528381600481855afa908115610475575f91610b69575b5060038110610b2d57604051918483019188835287604085015260408452606084019284841067ffffffffffffffff851117610b1a5783604052845190208115610b0757634c2a18b360e11b845206606484015284908290879082905afa9182156104755784905f93610ad8575b505050868114610a9457855f526002835260016109328360405f2061132d565b5001548114610a50576040519261094884611392565b8584528301908682526040840192888452606085019081526080850191825260a08501935f855260c08601935f855260e0870196428852600554600160401b811015610a3d5780600161099e92016005556113d1565b999099610a2c575091610a02959391600698979593518a555160018a01555160028901555160038801555160048701556109eb6005870192511515839060ff801983541691151516179055565b51815461ff00191690151560081b61ff0016179055565b519101557fcce0b8f9159bf6cec40a3b6f3a3e037bf8f3f18ec2ee1e74bc529aaf944324f55f80a4005b634e487b7160e01b5f525f6004525ffd5b89634e487b7160e01b5f5260416004525ffd5b60405162461bcd60e51b8152600481018490526018818601527f56616c5265673a2061726220697320646566656e64616e7400000000000000006044820152606490fd5b60405162461bcd60e51b8152600481018490526019818601527f56616c5265673a20617262206973206368616c6c656e676572000000000000006044820152606490fd5b90809293503d8311610b00575b610aef81856113af565b810103126101205751878381610912565b503d610ae5565b87634e487b7160e01b5f5260126004525ffd5b87634e487b7160e01b5f5260416004525ffd5b60405162461bcd60e51b8152600481018590526015818701527456616c5265673a206e65656420332b206e6f64657360581b6044820152606490fd5b90508381813d8311610b8f575b610b8081836113af565b810103126101205751886108a4565b503d610b76565b50601b6064926040519262461bcd60e51b845260048401528201527f56616c5265673a206368616c6c656e67657220696e61637469766500000000006044820152fd5b610bf99150833d8511610bff575b610bf181836113af565b81019061167a565b8761086b565b503d610be7565b9095508181813d8311610c2e575b610c1e81836113af565b8101031261012057519486610836565b503d610c14565b60405162461bcd60e51b81526004810184905260156024820152740acc2d8a4cace7440d2dcecc2d8d2c840d2dcc8caf605b1b6044820152606490fd5b34610120575f36600319011261012057602060405160038152f35b346101205760c036600319011261012057610ca6611308565b60a4359067ffffffffffffffff821161012057366023830112156101205781600401359167ffffffffffffffff83116101205736602484830101116101205760405163170da40760e21b815260048035908201526001600160a01b03906020816024817f000000000000000000000000000000000000000000000000000000000000000086165afa908115610475575f916111f8575b50156111b35760405163d752267560e01b815233600482015293907f000000000000000000000000000000000000000000000000000000000000000016602085602481845afa948515610475575f9561117e575b506020602491610da1871515611692565b60405192838092631392c59160e11b82528960048301525afa908115610475575f9161115f575b5015611122576004355f52600260205260405f209160405191610dea83611392565b60043583526020830193868552604084019486151586526044356060860152608085019160643583525f602060a0880195608435875280602460405199610e3a85601f19601f860116018c6113af565b828b5201838a01378701015260c086019485524260e08701528054600160401b8110156110fb57610e709160018201815561132d565b96909661110f57610e9d9186518855516001880155511515600287019060ff801983541691151516179055565b606084015160038601555160048501555160058401555180519067ffffffffffffffff82116110fb57610ed3600685015461135a565b601f81116110b7575b50602090601f83116001146110465791806007949260e0945f9261103b575b50508160011b915f199060031b1c19161760068501555b01519101556004355f5260046020528060405f20610f308154611482565b905561101c575b60405190151581527f831a58fbee2f0699fb29248a674cfd6d1c5e0e0cd27aefe807662608c2db2634602060043592a36004355f526004602052600360405f20541015610f8057005b600360205260405f20546127109081810291818304149015171561100857610fb7906004355f52600460205260405f20549061140a565b611a2c811015610fc357005b6004355f52600460205260405f20549060405191825260208201527f71c41c8c26be69c8d84d44608d92a8a6c31398883af0ed1480592619d0214dcc604060043592a2005b634e487b7160e01b5f52601160045260245ffd5b6004355f52600360205260405f206110348154611482565b9055610f37565b015190508880610efb565b90600685015f5260205f20915f5b601f198516811061109f5750926007949260019260e09583601f19811610611087575b505050811b016006850155610f12565b01515f1960f88460031b161c19169055888080611077565b91926020600181928685015181550194019201611054565b600685015f5260205f20601f840160051c8101602085106110f4575b601f830160051c820181106110e9575050610edc565b5f81556001016110d3565b50806110d3565b634e487b7160e01b5f52604160045260245ffd5b634e487b7160e01b5f525f60045260245ffd5b60405162461bcd60e51b815260206004820152601560248201527456616c5265673a206e6f646520696e61637469766560581b6044820152606490fd5b611178915060203d602011610bff57610bf181836113af565b85610dc8565b9094506020813d6020116111ab575b8161119a602093836113af565b810103126101205751936020610d90565b3d915061118d565b60405162461bcd60e51b815260206004820152601860248201527f56616c5265673a20736b696c6c206e6f742061637469766500000000000000006044820152606490fd5b611211915060203d602011610bff57610bf181836113af565b85610d3c565b34610120576020366003190112610120576004355f526003602052602060405f2054604051908152f35b34610120576020366003190112610120576004356001600160a01b038116810361012057611270602091611490565b604051908152f35b34610120575f366003190112610120576020604051611a2c8152f35b346101205760203660031901126101205760606112b2600435611428565b90604051921515835260208301526040820152f35b34610120575f366003190112610120577f00000000000000000000000000000000000000000000000000000000000000006001600160a01b03168152602090f35b60243590811515820361012057565b6040906003190112610120576004359060243590565b8054821015611346575f5260205f209060031b01905f90565b634e487b7160e01b5f52603260045260245ffd5b90600182811c92168015611388575b602083101461137457565b634e487b7160e01b5f52602260045260245ffd5b91607f1691611369565b610100810190811067ffffffffffffffff8211176110fb57604052565b90601f8019910116810190811067ffffffffffffffff8211176110fb57604052565b6005548110156113465760079060055f52027f036b6384b5eca791c62761152d0c79bb0604c104a5fb6f4eb0703f3154bb3db001905f90565b8115611414570490565b634e487b7160e01b5f52601260045260245ffd5b5f52600460205260405f2054801561147957600360205260405f20546127109081810291818304149015171561100857816114629161140a565b60038210158061146f5792565b50611a2c81101592565b505f905f905f90565b5f1981146110085760010190565b6040805163d752267560e01b81526001600160a01b0392831660048083019190915260209491925f929091602490878683817f00000000000000000000000000000000000000000000000000000000000000008b165afa958615611670575f96611641575b5085156116355791957f000000000000000000000000000000000000000000000000000000000000000016915f5b8451635c160da560e11b815289818481885afa9081156115f4575f91611608575b508110156115fe578451630b9b256d60e21b815282810182905289818581885afa9081156115f4575f916115c7575b505f5260028952845f205f908054915b82811061159557505050600101611523565b8960016115a2838561132d565b500154146115b3575b600101611583565b976115bf600191611482565b9890506115ab565b90508981813d83116115ed575b6115de81836113af565b8101031261012057515f611573565b503d6115d4565b86513d5f823e3d90fd5b5050505050925050565b90508981813d831161162e575b61161f81836113af565b8101031261012057515f611544565b503d611615565b50509450505050505f90565b9095508781813d8311611669575b61165981836113af565b810103126101205751945f6114f5565b503d61164f565b84513d5f823e3d90fd5b90816020910312610120575180151581036101205790565b1561169957565b60405162461bcd60e51b815260206004820152601260248201527156616c5265673a206e6f742061206e6f646560701b6044820152606490fd5b5f546001600160a01b031633036116e657565b60405163118cdaa760e01b8152336004820152602490fdfea2646970667358221220093e4bf4dcddb4401c137bc9612f197a6e5e985f489a6bb78c5fc1a9a1dba78f64736f6c63430008180033","linkReferences":{}},"methodIdentifiers":{"CONSENSUS_THRESHOLD_BPS()":"314a03a4","MIN_VALIDATORS()":"5ed1f963","challengeCount()":"a2f05725","challengeValidation(bytes32,uint256)":"689ad8a5","challenges(uint256)":"8f1d3776","getValidationConsensus(bytes32)":"1613632f","nextChallengeId()":"fc67aa50","nodeRegistry()":"d9b5c4a5","owner()":"8da5cb5b","renounceOwnership()":"715018a6","resolveChallenge(uint256,bool)":"94a754e0","setStakingContract(address)":"9dd373b9","skillRegistry()":"0f23c83c","stakingContract()":"ee99205c","submitValidation(bytes32,bool,uint256,uint256,uint256,string)":"574c27ac","successCount(bytes32)":"4fc27019","totalCount(bytes32)":"ee90c0da","transferOwnership(address)":"f2fde38b","validationCount(bytes32)":"8fbc1033","validations(bytes32,uint256)":"8b1ea648","validatorSubmissionCount(address)":"4d44b9e7"},"id":61}