{"abi":[{"type":"constructor","inputs":[{"name":"_trustToken","type":"address","internalType":"address"},{"name":"_nodeRegistry","type":"address","internalType":"address"},{"name":"_skillRegistry","type":"address","internalType":"address"},{"name":"_validationRegistry","type":"address","internalType":"address"},{"name":"_marketplace","type":"address","internalType":"address"},{"name":"_lifeRewards","type":"address","internalType":"address"}],"stateMutability":"nonpayable"},{"type":"function","name":"MAX_REFERRALS","inputs":[],"outputs":[{"name":"","type":"uint256","internalType":"uint256"}],"stateMutability":"view"},{"type":"function","name":"REFERRAL_WINDOW","inputs":[],"outputs":[{"name":"","type":"uint256","internalType":"uint256"}],"stateMutability":"view"},{"type":"function","name":"claimFirstPurchaseBonus","inputs":[],"outputs":[],"stateMutability":"nonpayable"},{"type":"function","name":"claimFirstSkillBonus","inputs":[],"outputs":[],"stateMutability":"nonpayable"},{"type":"function","name":"claimFirstValidationBonus","inputs":[],"outputs":[],"stateMutability":"nonpayable"},{"type":"function","name":"claimReferralBonus","inputs":[{"name":"referrerNodeId","type":"bytes32","internalType":"bytes32"}],"outputs":[],"stateMutability":"nonpayable"},{"type":"function","name":"claimStarter","inputs":[],"outputs":[],"stateMutability":"nonpayable"},{"type":"function","name":"claimStreakBonus","inputs":[{"name":"streakDays","type":"uint8","internalType":"uint8"}],"outputs":[],"stateMutability":"nonpayable"},{"type":"function","name":"firstBuyAmount","inputs":[],"outputs":[{"name":"","type":"uint256","internalType":"uint256"}],"stateMutability":"view"},{"type":"function","name":"firstBuyClaimed","inputs":[{"name":"","type":"address","internalType":"address"}],"outputs":[{"name":"","type":"bool","internalType":"bool"}],"stateMutability":"view"},{"type":"function","name":"firstSkillAmount","inputs":[],"outputs":[{"name":"","type":"uint256","internalType":"uint256"}],"stateMutability":"view"},{"type":"function","name":"firstSkillClaimed","inputs":[{"name":"","type":"address","internalType":"address"}],"outputs":[{"name":"","type":"bool","internalType":"bool"}],"stateMutability":"view"},{"type":"function","name":"firstValAmount","inputs":[],"outputs":[{"name":"","type":"uint256","internalType":"uint256"}],"stateMutability":"view"},{"type":"function","name":"firstValClaimed","inputs":[{"name":"","type":"address","internalType":"address"}],"outputs":[{"name":"","type":"bool","internalType":"bool"}],"stateMutability":"view"},{"type":"function","name":"fundPool","inputs":[{"name":"amount","type":"uint256","internalType":"uint256"}],"outputs":[],"stateMutability":"nonpayable"},{"type":"function","name":"lifeRewards","inputs":[],"outputs":[{"name":"","type":"address","internalType":"contract ILifeRewards"}],"stateMutability":"view"},{"type":"function","name":"marketplace","inputs":[],"outputs":[{"name":"","type":"address","internalType":"contract IMarketplace"}],"stateMutability":"view"},{"type":"function","name":"nodeRegistry","inputs":[],"outputs":[{"name":"","type":"address","internalType":"contract INodeRegistry"}],"stateMutability":"view"},{"type":"function","name":"owner","inputs":[],"outputs":[{"name":"","type":"address","internalType":"address"}],"stateMutability":"view"},{"type":"function","name":"pauseRewards","inputs":[],"outputs":[],"stateMutability":"nonpayable"},{"type":"function","name":"paused","inputs":[],"outputs":[{"name":"","type":"bool","internalType":"bool"}],"stateMutability":"view"},{"type":"function","name":"poolBalance","inputs":[],"outputs":[{"name":"","type":"uint256","internalType":"uint256"}],"stateMutability":"view"},{"type":"function","name":"referralClaimedByNewUser","inputs":[{"name":"","type":"address","internalType":"address"}],"outputs":[{"name":"","type":"bool","internalType":"bool"}],"stateMutability":"view"},{"type":"function","name":"referralCount","inputs":[{"name":"","type":"address","internalType":"address"}],"outputs":[{"name":"","type":"uint256","internalType":"uint256"}],"stateMutability":"view"},{"type":"function","name":"referredAmount","inputs":[],"outputs":[{"name":"","type":"uint256","internalType":"uint256"}],"stateMutability":"view"},{"type":"function","name":"referrerAmount","inputs":[],"outputs":[{"name":"","type":"uint256","internalType":"uint256"}],"stateMutability":"view"},{"type":"function","name":"renounceOwnership","inputs":[],"outputs":[],"stateMutability":"nonpayable"},{"type":"function","name":"setRewardAmounts","inputs":[{"name":"_starter","type":"uint256","internalType":"uint256"},{"name":"_firstSkill","type":"uint256","internalType":"uint256"},{"name":"_firstVal","type":"uint256","internalType":"uint256"},{"name":"_firstBuy","type":"uint256","internalType":"uint256"},{"name":"_referrer","type":"uint256","internalType":"uint256"},{"name":"_referred","type":"uint256","internalType":"uint256"},{"name":"_streak","type":"uint256","internalType":"uint256"}],"outputs":[],"stateMutability":"nonpayable"},{"type":"function","name":"skillRegistry","inputs":[],"outputs":[{"name":"","type":"address","internalType":"contract ISkillRegistry"}],"stateMutability":"view"},{"type":"function","name":"starterAmount","inputs":[],"outputs":[{"name":"","type":"uint256","internalType":"uint256"}],"stateMutability":"view"},{"type":"function","name":"starterClaimed","inputs":[{"name":"","type":"address","internalType":"address"}],"outputs":[{"name":"","type":"bool","internalType":"bool"}],"stateMutability":"view"},{"type":"function","name":"streakAmount","inputs":[],"outputs":[{"name":"","type":"uint256","internalType":"uint256"}],"stateMutability":"view"},{"type":"function","name":"streaksClaimedCount","inputs":[{"name":"","type":"address","internalType":"address"}],"outputs":[{"name":"","type":"uint256","internalType":"uint256"}],"stateMutability":"view"},{"type":"function","name":"transferOwnership","inputs":[{"name":"newOwner","type":"address","internalType":"address"}],"outputs":[],"stateMutability":"nonpayable"},{"type":"function","name":"trustToken","inputs":[],"outputs":[{"name":"","type":"address","internalType":"contract IERC20"}],"stateMutability":"view"},{"type":"function","name":"unpauseRewards","inputs":[],"outputs":[],"stateMutability":"nonpayable"},{"type":"function","name":"validationRegistry","inputs":[],"outputs":[{"name":"","type":"address","internalType":"contract IValidationRegistry"}],"stateMutability":"view"},{"type":"event","name":"MilestoneClaimed","inputs":[{"name":"user","type":"address","indexed":true,"internalType":"address"},{"name":"milestone","type":"string","indexed":false,"internalType":"string"},{"name":"amount","type":"uint256","indexed":false,"internalType":"uint256"}],"anonymous":false},{"type":"event","name":"OwnershipTransferred","inputs":[{"name":"previousOwner","type":"address","indexed":true,"internalType":"address"},{"name":"newOwner","type":"address","indexed":true,"internalType":"address"}],"anonymous":false},{"type":"event","name":"Paused","inputs":[{"name":"account","type":"address","indexed":false,"internalType":"address"}],"anonymous":false},{"type":"event","name":"PoolFunded","inputs":[{"name":"funder","type":"address","indexed":true,"internalType":"address"},{"name":"amount","type":"uint256","indexed":false,"internalType":"uint256"}],"anonymous":false},{"type":"event","name":"ReferralClaimed","inputs":[{"name":"referrer","type":"address","indexed":true,"internalType":"address"},{"name":"newUser","type":"address","indexed":true,"internalType":"address"},{"name":"referrerReward","type":"uint256","indexed":false,"internalType":"uint256"},{"name":"newUserReward","type":"uint256","indexed":false,"internalType":"uint256"}],"anonymous":false},{"type":"event","name":"StarterClaimed","inputs":[{"name":"user","type":"address","indexed":true,"internalType":"address"},{"name":"amount","type":"uint256","indexed":false,"internalType":"uint256"}],"anonymous":false},{"type":"event","name":"Unpaused","inputs":[{"name":"account","type":"address","indexed":false,"internalType":"address"}],"anonymous":false},{"type":"error","name":"EnforcedPause","inputs":[]},{"type":"error","name":"ExpectedPause","inputs":[]},{"type":"error","name":"OwnableInvalidOwner","inputs":[{"name":"owner","type":"address","internalType":"address"}]},{"type":"error","name":"OwnableUnauthorizedAccount","inputs":[{"name":"account","type":"address","internalType":"address"}]},{"type":"error","name":"ReentrancyGuardReentrantCall","inputs":[]},{"type":"error","name":"SafeERC20FailedOperation","inputs":[{"name":"token","type":"address","internalType":"address"}]}],"bytecode":{"object":"0x610140346200040657601f6200257338819003918201601f191683019291906001600160401b038411838510176200040a578160c09284926040968752833981010312620004065762000052816200041e565b91602091620000638382016200041e565b620000708383016200041e565b6200007e606084016200041e565b916200009b60a062000093608087016200041e565b95016200041e565b963315620003ef575f8054336001600160a01b03198216811783558851946001600160a01b039390928416907f8be0079c531659141344cd1fd0a4f28419497f9722a3daafe3b4186f6b6457e09080a360017f9b779b17422d0df92223018b32b4d1fa46e071723d6817e2486d003becc55f005581678ac7230489e8000093846001556802b5e3af16b188000060025568015af1d78b58c4000060035560049480865567d02ab486cedc0000600555600655674563918244f4000060075516938415620003ae575081169384156200036b5781169485156200032a578116958615620002e75781169889156200029857169687156200024a57505060805260a05260c05260e052610100928352610120918252519061213f92836200043484396080518381816105e201528181610ca4015281816110fb0152611f9f015260a0518381816102dd015281816106fe0152818161077601528181610d1701528181611343015281816117560152611a4d015260c0518381816117f70152611c09015260e05183818161037e0152611645015251828181610db50152611027015251818181610fa501526113d70152f35b865162461bcd60e51b815291820152602360248201527f4f6e626f617264696e67526577617264733a207a65726f206c6966655265776160448201526272647360e81b606482015260849150fd5b875162461bcd60e51b81528084018a9052602360248201527f4f6e626f617264696e67526577617264733a207a65726f206d61726b6574706c60448201526261636560e81b6064820152608490fd5b875162461bcd60e51b81528084018a9052601e60248201527f4f6e626f617264696e67526577617264733a207a65726f2076616c52656700006044820152606490fd5b6064838a808b519262461bcd60e51b845283015260248201527f4f6e626f617264696e67526577617264733a207a65726f20736b696c6c5265676044820152fd5b875162461bcd60e51b81528084018a9052601f60248201527f4f6e626f617264696e67526577617264733a207a65726f206e6f6465526567006044820152606490fd5b62461bcd60e51b81528381018a9052601d60248201527f4f6e626f617264696e67526577617264733a207a65726f20746f6b656e0000006044820152606490fd5b8551631e4fbdf760e01b81525f6004820152602490fd5b5f80fd5b634e487b7160e01b5f52604160045260245ffd5b51906001600160a01b0382168203620004065756fe604060808152600480361015610013575f80fd5b5f3560e01c806304a96d1714611c385780630f23c83c14611bf557806323f0152a14611a155780632adc54da146119d65780632e41d7841461171557806346bdb8d4146116d65780634bda6998146116925780634c14caa4146116745780634c6b993a146116315780634e2ca83c146112f357806350d759b1146112d557806357dad30a146112b75780635c975abb14611292578063704bd6f314611274578063715018a61461121d5780637c902953146111ff5780638587f073146111e15780638da5cb5b146111ba578063908c14651461117b57806396365d44146110cd578063979eedce146110b257806398a7df6514611073578063a95d5d2214611056578063abc8c7af14611013578063ba740f1e14610fd4578063c206e6d814610f91578063c3c40e3e14610cd3578063d13deb2f14610c90578063d373af9214610c22578063d3a5e4bb1461072d578063d9b5c4a5146106ea578063da3a5f72146105c4578063db74559b1461058a578063e0d2f8561461029c578063e4f5cf311461027f578063f2fde38b146101ef5763f68fc3fd146101b2575f80fd5b346101eb5760203660031901126101eb57356001600160a01b03811691908290036101eb576020915f52600e8252805f20549051908152f35b5f80fd5b5090346101eb5760203660031901126101eb576001600160a01b038235818116939192908490036101eb57610222611f06565b83156102695750505f54826bffffffffffffffffffffffff60a01b8216175f55167f8be0079c531659141344cd1fd0a4f28419497f9722a3daafe3b4186f6b6457e05f80a3005b905f6024925191631e4fbdf760e01b8352820152fd5b82346101eb575f3660031901126101eb5760209051620151808152f35b50346101eb575f3660031901126101eb576102b5611f31565b6102bd611f60565b815163d752267560e01b81523381830152602091906001600160a01b03907f00000000000000000000000000000000000000000000000000000000000000008216908481602481855afa80156105805785915f91610551575b50610322811515611ccc565b6024875180948193631392c59160e11b8352888301525afa8015610547575f90610511575b6103519150611d2f565b335f52600a835260ff845f2054166104b35782602491855192838092634d44b9e760e01b825233878301527f0000000000000000000000000000000000000000000000000000000000000000165afa9081156104a9575f9161047c575b50156104275750335f52600a8152815f20600160ff198254161790556103d660035433611f80565b6003549060108351938085528401526f3334b939ba16bb30b634b230ba34b7b760811b60608401528201525f805160206120ca83398151915260803392a260015f805160206120ea83398151915255005b915162461bcd60e51b815291820152602b60248201527f4f6e626f617264696e67526577617264733a206e6f2076616c69646174696f6e60448201526a1cc81cdd589b5a5d1d195960aa1b6064820152608490fd5b90508281813d83116104a2575b6104938183611c96565b810103126101eb57515f6103ae565b503d610489565b84513d5f823e3d90fd5b50915162461bcd60e51b815291820152603360248201527f4f6e626f617264696e67526577617264733a2066697273742d76616c696461746044820152721a5bdb88185b1c9958591e4818db185a5b5959606a1b6064820152608490fd5b508381813d8311610540575b6105278183611c96565b810103126101eb5761053b61035191611d22565b610347565b503d61051d565b85513d5f823e3d90fd5b82819392503d8311610579575b6105688183611c96565b810103126101eb578490515f610316565b503d61055e565b86513d5f823e3d90fd5b50346101eb5760203660031901126101eb57356001600160a01b03811691908290036101eb576020915f52600d8252805f20549051908152f35b5090346101eb5760203660031901126101eb5781359182156106a8577f0000000000000000000000000000000000000000000000000000000000000000908251916323b872dd60e01b5f52338252306024528460445260205f60648180855af160015f5114811615610689575b8385525f6060521561066c57505050519081527f32173d8e51cec3a6fe484b7a1c3febe760cdf96e03d4cca36a43563a4333e83860203392a2005b635274afe760e01b83526001600160a01b03169082015260249150fd5b600181151661069f57813b15153d151616610631565b833d5f823e3d90fd5b6020606492519162461bcd60e51b8352820152601e60248201527f4f6e626f617264696e67526577617264733a207a65726f20616d6f756e7400006044820152fd5b82346101eb575f3660031901126101eb57517f00000000000000000000000000000000000000000000000000000000000000006001600160a01b03168152602090f35b50346101eb57602091826003193601126101eb5781359161074c611f31565b610754611f60565b815163d752267560e01b80825233828401526001600160a01b039260249290917f000000000000000000000000000000000000000000000000000000000000000085169188818681865afa908115610a0b575f91610bf5575b506107b9811515611ccc565b8651631392c59160e11b918282528582015289818781875afa8015610beb575f90610bb5575b6107e99150611d2f565b335f52600c895260ff875f205416610b5f578651908152878482015288818681865afa908115610a0b575f91610b2a575b5015610ad557855194632864a37f60e11b97888752848701525f868681865afa958615610a0b575f96610ab2575b50851696338814610a6557875f52600d89526032875f20541015610a15578651918252338483015288828681865afa908115610a0b5785905f926109da575b5f9350885194859384928352878301525afa9081156105475762015180916108b7915f916109b1575b5042611d7a565b1161096157335f52600c8652835f20600160ff19825416179055845f52600d8652835f20918254915f19831461095057505060010190556005547f751b763c83cb4551ddd8d17a5dce6917e7b1acd158f6a6165634685ab64722cd929161091e9190611f80565b61092a60065433611f80565b600554936006549082519586528501523393a360015f805160206120ea83398151915255005b601190634e487b7160e01b5f52525ffd5b60276084928786519362461bcd60e51b85528401528201527f4f6e626f617264696e67526577617264733a20726567697374726174696f6e206044820152661d1bdbc81bdb1960ca1b6064820152fd5b6109cd91503d805f833e6109c58183611c96565b810190611dfb565b505093505050505f6108b0565b9150508882813d8311610a04575b6109f28183611c96565b810103126101eb57845f925191610887565b503d6109e8565b87513d5f823e3d90fd5b865162461bcd60e51b81528085018a90526025818701527f4f6e626f617264696e67526577617264733a207265666572726572206d61786560448201526419081bdd5d60da1b6064820152608490fd5b608484868b8a519262461bcd60e51b8452830152808201527f4f6e626f617264696e67526577617264733a2063616e6e6f742073656c662d7260448201526332b332b960e11b6064820152fd5b610ac79196503d805f833e6109c58183611c96565b50505050509050945f610848565b855162461bcd60e51b8152808401899052602a818601527f4f6e626f617264696e67526577617264733a207265666572726572206e6f74206044820152691c9959da5cdd195c995960b21b6064820152608490fd5b90508881813d8311610b58575b610b418183611c96565b810103126101eb57610b5290611d22565b5f61081a565b503d610b37565b865162461bcd60e51b81528085018a9052602b818701527f4f6e626f617264696e67526577617264733a20726566657272616c20616c726560448201526a18591e4818db185a5b595960aa1b6064820152608490fd5b508981813d8311610be4575b610bcb8183611c96565b810103126101eb57610bdf6107e991611d22565b6107df565b503d610bc1565b88513d5f823e3d90fd5b90508881813d8311610c1b575b610c0c8183611c96565b810103126101eb57515f6107ad565b503d610c02565b5090346101eb575f3660031901126101eb57610c3c611f06565b5f549160ff8360a01c1615610c825760ff60a01b1983165f5581513381527f5db9ee0a495bf2e6ff9c91a7834c1ba4fdd244a5e8aa4e537bd38aeae4b073aa90602090a1005b9051638dfc202b60e01b8152fd5b82346101eb575f3660031901126101eb57517f00000000000000000000000000000000000000000000000000000000000000006001600160a01b03168152602090f35b50346101eb575f3660031901126101eb57610cec611f31565b610cf4611f60565b815163d752267560e01b81523381830152602091906024906001600160a01b03907f000000000000000000000000000000000000000000000000000000000000000082169085818581855afa8015610a0b5786915f91610f62575b50610d5b811515611ccc565b84885180948193631392c59160e11b8352898301525afa8015610580575f90610f2c575b610d899150611d2f565b335f52600b845260ff855f205416610ed157838291865192838092638540e27160e01b825233888301527f0000000000000000000000000000000000000000000000000000000000000000165afa908115610547575f91610ea4575b5015610e595750335f52600b8252825f20600160ff19825416179055610e0c815433611f80565b5490600e8351938085528401526d66697273742d707572636861736560901b60608401528201525f805160206120ca83398151915260803392a260015f805160206120ea83398151915255005b60849284519262461bcd60e51b8452830152808201527f4f6e626f617264696e67526577617264733a206e6f20707572636861736573206044820152636d61646560e01b6064820152fd5b90508381813d8311610eca575b610ebb8183611c96565b810103126101eb57515f610de5565b503d610eb1565b5060319192608494519362461bcd60e51b85528401528201527f4f6e626f617264696e67526577617264733a2066697273742d707572636861736044820152701948185b1c9958591e4818db185a5b5959607a1b6064820152fd5b508481813d8311610f5b575b610f428183611c96565b810103126101eb57610f56610d8991611d22565b610d7f565b503d610f38565b82819392503d8311610f8a575b610f798183611c96565b810103126101eb578590515f610d4f565b503d610f6f565b82346101eb575f3660031901126101eb57517f00000000000000000000000000000000000000000000000000000000000000006001600160a01b03168152602090f35b50346101eb5760203660031901126101eb57356001600160a01b03811691908290036101eb576020915f52600c825260ff815f20541690519015158152f35b82346101eb575f3660031901126101eb57517f00000000000000000000000000000000000000000000000000000000000000006001600160a01b03168152602090f35b5090346101eb575f3660031901126101eb57602091549051908152f35b50346101eb5760203660031901126101eb57356001600160a01b03811691908290036101eb576020915f526008825260ff815f20541690519015158152f35b82346101eb575f3660031901126101eb576020905160328152f35b5090346101eb575f3660031901126101eb5780516370a0823160e01b815230928101929092526020826024817f00000000000000000000000000000000000000000000000000000000000000006001600160a01b03165afa908115611172575f9161113d575b6020925051908152f35b90506020823d60201161116a575b8161115860209383611c96565b810103126101eb576020915190611133565b3d915061114b565b513d5f823e3d90fd5b50346101eb5760203660031901126101eb57356001600160a01b03811691908290036101eb576020915f52600a825260ff815f20541690519015158152f35b82346101eb575f3660031901126101eb575f5490516001600160a01b039091168152602090f35b82346101eb575f3660031901126101eb576020906007549051908152f35b82346101eb575f3660031901126101eb576020906005549051908152f35b346101eb575f3660031901126101eb57611235611f06565b5f80546001600160a01b0319811682556001600160a01b03167f8be0079c531659141344cd1fd0a4f28419497f9722a3daafe3b4186f6b6457e08280a3005b82346101eb575f3660031901126101eb576020906002549051908152f35b82346101eb575f3660031901126101eb5760209060ff5f5460a01c1690519015158152f35b82346101eb575f3660031901126101eb576020906003549051908152f35b82346101eb575f3660031901126101eb576020906006549051908152f35b50346101eb576020806003193601126101eb57813560ff81168091036101eb5761131b611f31565b611323611f60565b835163d752267560e01b81523384820152602491906001600160a01b03907f000000000000000000000000000000000000000000000000000000000000000082169085818681855afa8015610beb5786915f91611602575b50611387811515611ccc565b85895180948193631392c59160e11b83528b8301525afa8015610a0b575f906115cc575b6113b59150611d2f565b6007821061157d57838391875192838092638dd5c46560e01b8252338a8301527f0000000000000000000000000000000000000000000000000000000000000000165afa80156105805782915f9161154c575b50106114fe57600760ff91041692335f52600e8352845f20548411156114ab57335f52600e835261143c855f205485611d7a565b93335f52600e8452855f2055600754938481029481860414901517156109505750506114688233611f80565b60068351938085528401526573747265616b60d01b60608401528201525f805160206120ca83398151915260803392a260015f805160206120ea83398151915255005b602a6084928487519362461bcd60e51b85528401528201527f4f6e626f617264696e67526577617264733a2073747265616b7320616c726561604482015269191e4818db185a5b595960b21b6064820152fd5b50602591608494519362461bcd60e51b85528401528201527f4f6e626f617264696e67526577617264733a2073747265616b206e6f742072656044820152641858da195960da1b6064820152fd5b809250858092503d8311611576575b6115658183611c96565b810103126101eb578190515f611408565b503d61155b565b5050602591608494519362461bcd60e51b85528401528201527f4f6e626f617264696e67526577617264733a206e65656420372b206461792073604482015264747265616b60d81b6064820152fd5b508481813d83116115fb575b6115e28183611c96565b810103126101eb576115f66113b591611d22565b6113ab565b503d6115d8565b82819392503d831161162a575b6116198183611c96565b810103126101eb578590515f61137b565b503d61160f565b82346101eb575f3660031901126101eb57517f00000000000000000000000000000000000000000000000000000000000000006001600160a01b03168152602090f35b82346101eb575f3660031901126101eb576020906001549051908152f35b50346101eb5760e03660031901126101eb576116ac611f06565b8035600155602435600255604435600355606435905560843560055560a43560065560c435600755005b50346101eb5760203660031901126101eb57356001600160a01b03811691908290036101eb576020915f52600b825260ff815f20541690519015158152f35b50346101eb575f3660031901126101eb5761172e611f31565b611736611f60565b815163d752267560e01b81523381830152602091906001600160a01b03907f00000000000000000000000000000000000000000000000000000000000000008216908481602481855afa80156105805785915f916119a7575b5061179b811515611ccc565b6024875180948193631392c59160e11b8352888301525afa8015610547575f90611971575b6117ca9150611d2f565b335f526009835260ff845f205416611918578260249185519283809263c1d34f5560e01b825233878301527f0000000000000000000000000000000000000000000000000000000000000000165afa9081156104a9575f916118eb575b501561189b5750335f5260098152815f20600160ff1982541617905561184f60025433611f80565b60025490600b8351938085528401526a199a5c9cdd0b5cdada5b1b60aa1b60608401528201525f805160206120ca83398151915260803392a260015f805160206120ea83398151915255005b915162461bcd60e51b815291820152602660248201527f4f6e626f617264696e67526577617264733a206e6f20736b696c6c73207075626044820152651b1a5cda195960d21b6064820152608490fd5b90508281813d8311611911575b6119028183611c96565b810103126101eb57515f611827565b503d6118f8565b50915162461bcd60e51b815291820152602e60248201527f4f6e626f617264696e67526577617264733a2066697273742d736b696c6c206160448201526d1b1c9958591e4818db185a5b595960921b6064820152608490fd5b508381813d83116119a0575b6119878183611c96565b810103126101eb5761199b6117ca91611d22565b6117c0565b503d61197d565b82819392503d83116119cf575b6119be8183611c96565b810103126101eb578490515f61178f565b503d6119b4565b50346101eb5760203660031901126101eb57356001600160a01b03811691908290036101eb576020915f526009825260ff815f20541690519015158152f35b50346101eb575f3660031901126101eb57611a2e611f31565b611a36611f60565b815163d752267560e01b81523381830152602091907f00000000000000000000000000000000000000000000000000000000000000006001600160a01b0316908381602481855afa80156105475784915f91611bc6575b50611a99811515611ccc565b6024865180948193631392c59160e11b8352878301525afa80156104a9575f90611b90575b611ac89150611d2f565b335f526008825260ff835f205416611b3c57507f52dde3b6ac4d2c94b2e878aaf033c38945dcaf805d7cb55ab344702151abd23290335f5260088152825f20600160ff19825416179055611b1e60015433611f80565b60015492519283523392a260015f805160206120ea83398151915255005b915162461bcd60e51b815291820152602a60248201527f4f6e626f617264696e67526577617264733a207374617274657220616c726561604482015269191e4818db185a5b595960b21b6064820152608490fd5b508281813d8311611bbf575b611ba68183611c96565b810103126101eb57611bba611ac891611d22565b611abe565b503d611b9c565b82819392503d8311611bee575b611bdd8183611c96565b810103126101eb578390515f611a8d565b503d611bd3565b82346101eb575f3660031901126101eb57517f00000000000000000000000000000000000000000000000000000000000000006001600160a01b03168152602090f35b82346101eb575f3660031901126101eb5760207f62e78cea01bee320cd4e420270b5ea74000d11b0c9f74754ebdbfc544b05a25891611c75611f06565b611c7d611f60565b5f805460ff60a01b1916600160a01b17905551338152a1005b90601f8019910116810190811067ffffffffffffffff821117611cb857604052565b634e487b7160e01b5f52604160045260245ffd5b15611cd357565b60405162461bcd60e51b815260206004820152602160248201527f4f6e626f617264696e67526577617264733a206e6f74207265676973746572656044820152601960fa1b6064820152608490fd5b519081151582036101eb57565b15611d3657565b606460405162461bcd60e51b815260206004820152602060248201527f4f6e626f617264696e67526577617264733a206e6f646520696e6163746976656044820152fd5b91908203918211611d8757565b634e487b7160e01b5f52601160045260245ffd5b92919267ffffffffffffffff8211611cb857602060405191611dc76020601f19601f8701160184611c96565b8295848452848201116101eb575f5b848110611dea575050505f91602091010152565b818101518482018401528201611dd6565b919060e0838203126101eb578251926020928382015160018060a01b03811681036101eb5793604090604084015167ffffffffffffffff908181116101eb57850186601f820112156101eb57868184611e5693519101611d9b565b9560608601518281116101eb5786019181601f840112156101eb57825194818611611cb8578560051b9160405196611e9087850189611c96565b87528580880193860101948486116101eb57868101935b868510611ed15750505050505050509160808101519160c0611ecb60a08401611d22565b92015190565b84518381116101eb57820186603f820112156101eb578891611efb88838886809601519101611d9b565b815201940193611ea7565b5f546001600160a01b03163303611f1957565b60405163118cdaa760e01b8152336004820152602490fd5b5f805160206120ea8339815191526002815414611f4e5760029055565b604051633ee5aeb560e01b8152600490fd5b60ff5f5460a01c16611f6e57565b60405163d93c066560e01b8152600490fd5b6040516370a0823160e01b815230600482015290916001600160a01b037f000000000000000000000000000000000000000000000000000000000000000081811693909260209290918381602481895afa80156120be5783915f9161208d575b501061204a576040519563a9059cbb60e01b5f52166004526024525f60448180855af19060015f5114821615612034575b50826040521561201f575050565b635274afe760e01b8252600482015260249150fd5b600182151661069f573b15153d1516165f612011565b6064836040519062461bcd60e51b825280600483015260248201527f4f6e626f617264696e67526577617264733a20706f6f6c206465706c657465646044820152fd5b809250858092503d83116120b7575b6120a68183611c96565b810103126101eb578290515f611fe0565b503d61209c565b6040513d5f823e3d90fdfe2ef9e6b44872ead85900fec581f880d91c9fd51f17b70b1f1cfbde423822dbc69b779b17422d0df92223018b32b4d1fa46e071723d6817e2486d003becc55f00a26469706673582212201d1b3f6804a29e695a9640c8fa5d9d3a225624f2b387a22cbc33f5526220c5f164736f6c63430008180033","linkReferences":{}},"methodIdentifiers":{"MAX_REFERRALS()":"979eedce","REFERRAL_WINDOW()":"e4f5cf31","claimFirstPurchaseBonus()":"c3c40e3e","claimFirstSkillBonus()":"2e41d784","claimFirstValidationBonus()":"e0d2f856","claimReferralBonus(bytes32)":"d3a5e4bb","claimStarter()":"23f0152a","claimStreakBonus(uint8)":"4e2ca83c","firstBuyAmount()":"a95d5d22","firstBuyClaimed(address)":"46bdb8d4","firstSkillAmount()":"704bd6f3","firstSkillClaimed(address)":"2adc54da","firstValAmount()":"57dad30a","firstValClaimed(address)":"908c1465","fundPool(uint256)":"da3a5f72","lifeRewards()":"c206e6d8","marketplace()":"abc8c7af","nodeRegistry()":"d9b5c4a5","owner()":"8da5cb5b","pauseRewards()":"04a96d17","paused()":"5c975abb","poolBalance()":"96365d44","referralClaimedByNewUser(address)":"ba740f1e","referralCount(address)":"db74559b","referredAmount()":"50d759b1","referrerAmount()":"7c902953","renounceOwnership()":"715018a6","setRewardAmounts(uint256,uint256,uint256,uint256,uint256,uint256,uint256)":"4bda6998","skillRegistry()":"0f23c83c","starterAmount()":"4c14caa4","starterClaimed(address)":"98a7df65","streakAmount()":"8587f073","streaksClaimedCount(address)":"f68fc3fd","transferOwnership(address)":"f2fde38b","trustToken()":"d13deb2f","unpauseRewards()":"d373af92","validationRegistry()":"4c6b993a"},"id":56}