{"abi":[{"type":"constructor","inputs":[{"name":"_trustToken","type":"address","internalType":"address"},{"name":"_nodeRegistry","type":"address","internalType":"address"}],"stateMutability":"nonpayable"},{"type":"function","name":"bountyCount","inputs":[],"outputs":[{"name":"","type":"uint256","internalType":"uint256"}],"stateMutability":"view"},{"type":"function","name":"claimBounty","inputs":[{"name":"bountyId","type":"uint256","internalType":"uint256"}],"outputs":[],"stateMutability":"nonpayable"},{"type":"function","name":"completeBounty","inputs":[{"name":"bountyId","type":"uint256","internalType":"uint256"}],"outputs":[],"stateMutability":"nonpayable"},{"type":"function","name":"createBounty","inputs":[{"name":"title","type":"string","internalType":"string"},{"name":"domain","type":"string","internalType":"string"},{"name":"reward","type":"uint256","internalType":"uint256"},{"name":"deadline","type":"uint64","internalType":"uint64"}],"outputs":[{"name":"bountyId","type":"uint256","internalType":"uint256"}],"stateMutability":"nonpayable"},{"type":"function","name":"disputeBounty","inputs":[{"name":"bountyId","type":"uint256","internalType":"uint256"},{"name":"arbitrators","type":"address[3]","internalType":"address[3]"}],"outputs":[],"stateMutability":"nonpayable"},{"type":"function","name":"expireBounty","inputs":[{"name":"bountyId","type":"uint256","internalType":"uint256"}],"outputs":[],"stateMutability":"nonpayable"},{"type":"function","name":"getBounty","inputs":[{"name":"bountyId","type":"uint256","internalType":"uint256"}],"outputs":[{"name":"creator","type":"address","internalType":"address"},{"name":"claimant","type":"address","internalType":"address"},{"name":"reward","type":"uint256","internalType":"uint256"},{"name":"deadline","type":"uint64","internalType":"uint64"},{"name":"skillId","type":"bytes32","internalType":"bytes32"},{"name":"status","type":"uint8","internalType":"enum SkillBounty.Status"},{"name":"title","type":"string","internalType":"string"},{"name":"domain","type":"string","internalType":"string"}],"stateMutability":"view"},{"type":"function","name":"getOpenBounties","inputs":[],"outputs":[{"name":"","type":"uint256[]","internalType":"uint256[]"}],"stateMutability":"view"},{"type":"function","name":"nextBountyId","inputs":[],"outputs":[{"name":"","type":"uint256","internalType":"uint256"}],"stateMutability":"view"},{"type":"function","name":"nodeRegistry","inputs":[],"outputs":[{"name":"","type":"address","internalType":"address"}],"stateMutability":"view"},{"type":"function","name":"submitSkill","inputs":[{"name":"bountyId","type":"uint256","internalType":"uint256"},{"name":"skillId","type":"bytes32","internalType":"bytes32"}],"outputs":[],"stateMutability":"nonpayable"},{"type":"function","name":"trustToken","inputs":[],"outputs":[{"name":"","type":"address","internalType":"contract IERC20"}],"stateMutability":"view"},{"type":"function","name":"voteOnDispute","inputs":[{"name":"bountyId","type":"uint256","internalType":"uint256"},{"name":"inFavor","type":"bool","internalType":"bool"}],"outputs":[],"stateMutability":"nonpayable"},{"type":"event","name":"BountyClaimed","inputs":[{"name":"bountyId","type":"uint256","indexed":true,"internalType":"uint256"},{"name":"claimant","type":"address","indexed":true,"internalType":"address"}],"anonymous":false},{"type":"event","name":"BountyCompleted","inputs":[{"name":"bountyId","type":"uint256","indexed":true,"internalType":"uint256"},{"name":"claimant","type":"address","indexed":true,"internalType":"address"},{"name":"reward","type":"uint256","indexed":false,"internalType":"uint256"}],"anonymous":false},{"type":"event","name":"BountyCreated","inputs":[{"name":"bountyId","type":"uint256","indexed":true,"internalType":"uint256"},{"name":"creator","type":"address","indexed":true,"internalType":"address"},{"name":"reward","type":"uint256","indexed":false,"internalType":"uint256"},{"name":"deadline","type":"uint64","indexed":false,"internalType":"uint64"}],"anonymous":false},{"type":"event","name":"BountyDisputed","inputs":[{"name":"bountyId","type":"uint256","indexed":true,"internalType":"uint256"},{"name":"arbitrators","type":"address[3]","indexed":false,"internalType":"address[3]"}],"anonymous":false},{"type":"event","name":"BountyExpired","inputs":[{"name":"bountyId","type":"uint256","indexed":true,"internalType":"uint256"}],"anonymous":false},{"type":"event","name":"DisputeResolved","inputs":[{"name":"bountyId","type":"uint256","indexed":true,"internalType":"uint256"},{"name":"releasedToClaimant","type":"bool","indexed":false,"internalType":"bool"}],"anonymous":false},{"type":"event","name":"DisputeVoted","inputs":[{"name":"bountyId","type":"uint256","indexed":true,"internalType":"uint256"},{"name":"arbitrator","type":"address","indexed":true,"internalType":"address"},{"name":"inFavor","type":"bool","indexed":false,"internalType":"bool"}],"anonymous":false},{"type":"event","name":"SkillSubmitted","inputs":[{"name":"bountyId","type":"uint256","indexed":true,"internalType":"uint256"},{"name":"skillId","type":"bytes32","indexed":false,"internalType":"bytes32"}],"anonymous":false},{"type":"error","name":"ReentrancyGuardReentrantCall","inputs":[]},{"type":"error","name":"SafeERC20FailedOperation","inputs":[{"name":"token","type":"address","internalType":"address"}]}],"bytecode":{"object":"0x60c0346200017d57601f62001b2038819003918201601f19168301916001600160401b03831184841017620001815780849260409485528339810103126200017d576200005a6020620000528362000195565b920162000195565b60017f9b779b17422d0df92223018b32b4d1fa46e071723d6817e2486d003becc55f0055906001600160a01b039081169081156200013857821615620000f35760805260a0526040516119759081620001ab823960805181818161035d0152818161080f015281816108bb01528181610b2901528181610f2a01528181610f67015281816110f001526114b9015260a051816103190152f35b60405162461bcd60e51b815260206004820152601a60248201527f536b696c6c426f756e74793a207a65726f2072656769737472790000000000006044820152606490fd5b60405162461bcd60e51b815260206004820152601760248201527f536b696c6c426f756e74793a207a65726f20746f6b656e0000000000000000006044820152606490fd5b5f80fd5b634e487b7160e01b5f52604160045260245ffd5b51906001600160a01b03821682036200017d5756fe60806040526004361015610011575f80fd5b5f3560e01c8063139005ab146114155780633e362c96146100a857806344021ad71461129b57806349c0c190146111e95780635faedcef1461106a5780637d0e914f14610a67578063a4f5df12146106ae578063d0e62fcd1461038c578063d13deb2f14610348578063d9b5c4a514610304578063ee00c01e1461019f578063ee8c4bbf146100c85763fd14fad4146100a8575f80fd5b346100c4575f3660031901126100c45760205f54604051908152f35b5f80fd5b346100c45760203660031901126100c4576004355f52600160205260405f2060018060a01b039081815416916001820154169160028201546001600160401b03600384015416600484015460ff60058601541691610134600761012d6006890161173b565b970161173b565b93604051976101009689526020890152604088015260608701526080860152600681101561018b578493610187936101799260a08701528060c0870152850190611531565b9083820360e0850152611531565b0390f35b634e487b7160e01b5f52602160045260245ffd5b346100c45760403660031901126100c457600435602435815f52600160205260405f20600581019182549260ff8416600681101561018b576001036102bf5760018301546001600160a01b0316330361027a578115610235576004602093839260027fa10d30f239bef3f673da16cf4dd1c1040b16be95992bf6adcd09cec4418ed7679760ff19161790550155604051908152a2005b60405162461bcd60e51b815260206004820152601960248201527f536b696c6c426f756e74793a207a65726f20736b696c6c4964000000000000006044820152606490fd5b60405162461bcd60e51b815260206004820152601960248201527f536b696c6c426f756e74793a206e6f7420636c61696d616e74000000000000006044820152606490fd5b60405162461bcd60e51b815260206004820152601860248201527f536b696c6c426f756e74793a206e6f7420636c61696d656400000000000000006044820152606490fd5b346100c4575f3660031901126100c4576040517f00000000000000000000000000000000000000000000000000000000000000006001600160a01b03168152602090f35b346100c4575f3660031901126100c4576040517f00000000000000000000000000000000000000000000000000000000000000006001600160a01b03168152602090f35b346100c45760803660031901126100c4576004356084366084116100c457815f526001602081815260405f20906005820180549260ff8416600681101561018b5760026103dc919792971461156f565b85546001600160a01b039686918816906103f73383146115bb565b88835f92015416925b6104bb575b50505050600460ff19809416179055845f526002815260405f20916024845f5b600381106104a25750505060056003936003810161ffff1981541690550190815416905560405193849060245f925b85841061048357887fc895bbd3fb2cff4174bca20ccfe13dfa8bcd8601ed35ae02dcd6a6c889e4998c60608aa2005b8135908382168092036100c45790815292860192908401908401610454565b846104ac84611727565b93019281870155018590610425565b6003808210156106a857896104d76104d284611715565b611727565b161561066357828a6104eb6104d285611715565b161461061457838a6104ff6104d285611715565b16146105c4578882018083116105b057908995949392915b81811061052b575050840190919293610400565b9091929394955061053e6104d284611715565b8b8061054c6104d285611715565b1691161461056257890190899594939291610517565b60405162461bcd60e51b815260048101899052602160248201527f536b696c6c426f756e74793a206475706c69636174652061726269747261746f6044820152603960f91b60648201528690fd5b634e487b7160e01b5f52601160045260245ffd5b60405162461bcd60e51b815260048101889052602360248201527f536b696c6c426f756e74793a20636c61696d616e7420617320617262697472616044820152623a37b960e91b60648201528590fd5b60405162461bcd60e51b815260048101889052602260248201527f536b696c6c426f756e74793a2063726561746f7220617320617262697472617460448201526137b960f11b60648201528590fd5b60405162461bcd60e51b815260048101889052601c60248201527f536b696c6c426f756e74793a207a65726f2061726269747261746f72000000006044820152606490fd5b50610405565b346100c45760403660031901126100c4576004356024908135918215158084036100c4576106da6117dd565b825f5260019360209185835260405f2091600583019160ff90818454166006811015610a5457600403610a1057875f526002865260405f20906005820197838954166109cd576004830190335f528189528460405f20541661098a575f8c5f5b60038110610965575b50501561092257509060039291335f52885260405f209460ff19958c878254161790555f146108fa578282018054868661077e818416611704565b1691161790555b604051908152897f910296c2d7f214e2d62a9c4e6e403cc9c5ac4585d96830dbf018e51c75fd0826893393a301546002828216106108555750508454811687179094558054909316600317909255818401546002909201547f5a87909bff68caaaaf0b3fd9c74eeccc928832f879315e5c6fb7a73612f26c0c9261083391906001600160a01b03167f000000000000000000000000000000000000000000000000000000000000000061180c565b61083c8361188a565b604051848152a25b5f8051602061192083398151915255005b906002916008959493951c161015610873575b505050505050610844565b60058386896108df967f5a87909bff68caaaaf0b3fd9c74eeccc928832f879315e5c6fb7a73612f26c0c995416179055825416179055600260018060a01b03825416910154907f000000000000000000000000000000000000000000000000000000000000000061180c565b6108e88361188a565b6040515f8152a2818080808080610868565b828201805461ff00610910878360081c16611704565b60081b169061ff001916179055610785565b88601b6064926040519262461bcd60e51b845260048401528201527f536b696c6c426f756e74793a206e6f742061726269747261746f7200000000006044820152fd5b868101546001600160a01b0316331461098057018d9061073a565b5090508c8e610743565b88601a6064926040519262461bcd60e51b845260048401528201527f536b696c6c426f756e74793a20616c726561647920766f7465640000000000006044820152fd5b87601d6064926040519262461bcd60e51b845260048401528201527f536b696c6c426f756e74793a20616c7265616479207265736f6c7665640000006044820152fd5b60405162461bcd60e51b8152600481018790526019818901527f536b696c6c426f756e74793a206e6f74206469737075746564000000000000006044820152606490fd5b87634e487b7160e01b5f5260216004525ffd5b346100c45760803660031901126100c4576004356001600160401b0381116100c457610a97903690600401611504565b6024356001600160401b0381116100c457610ab6903690600401611504565b919092606435926001600160401b03841684036100c457610ad56117dd565b6044351561102557426001600160401b0385161115610fe0578215610f9b575f54925f1984146105b057600184015f556040516323b872dd60e01b5f52336004523060245260443560445260205f606481807f00000000000000000000000000000000000000000000000000000000000000005af160015f5114811615610f5c575b816040525f60605215610f1e5750604051956101008701908782106001600160401b03831117610db357610bd1916040523388525f602089015260443560408901526001600160401b0387166060890152610bc260808901955f875260a08a01945f86523691611628565b9360c089019485523691611628565b60e0870152835f52600160205260405f209260018060a01b03808851166bffffffffffffffffffffffff60a01b9081875416178655600186019160208a0151169082541617905560408701516002850155600384016001600160401b036060890151166001600160401b0319825416179055516004840155600583019051600681101561018b5760ff80198354169116179055518051906001600160401b038211610db357610c83600684015461166d565b601f8111610eeb575b50602090601f8311600114610e7a57918060e094926007945f92610e6f575b50508160011b915f199060031b1c19161760068201555b019301519283516001600160401b038111610db357610ce1825461166d565b601f8111610e34575b50602094601f8211600114610dd2579481929394955f92610dc7575b50508160011b915f199060031b1c19161790555b6003549168010000000000000000831015610db357610d5d82610d45856001602097016003556116bb565b90919082549060031b91821b915f19901b1916179055565b6001600160401b036040519160443583521683820152817fda63281a77512a68324ed65546309595e2d260c8a5121803288c0cb8ce76dff460403393a360015f8051602061192083398151915255604051908152f35b634e487b7160e01b5f52604160045260245ffd5b015190508580610d06565b601f19821695835f5260205f20915f5b888110610e1c57508360019596979810610e04575b505050811b019055610d1a565b01515f1960f88460031b161c19169055858080610df7565b91926020600181928685015181550194019201610de2565b610e5f90835f5260205f20601f840160051c81019160208510610e65575b601f0160051c01906116a5565b85610cea565b9091508190610e52565b015190508880610cab565b90600684015f5260205f20915f5b601f1985168110610ed357509260e0949260019260079583601f19811610610ebb575b505050811b016006820155610cc2565b01515f1960f88460031b161c19169055888080610eab565b91926020600181928685015181550194019201610e88565b610f1890600685015f5260205f20601f850160051c81019160208610610e6557601f0160051c01906116a5565b86610c8c565b635274afe760e01b81527f00000000000000000000000000000000000000000000000000000000000000006001600160a01b03166004820152602490fd5b6001811516610f92577f00000000000000000000000000000000000000000000000000000000000000003b15153d151616610b57565b503d5f823e3d90fd5b60405162461bcd60e51b815260206004820152601860248201527f536b696c6c426f756e74793a20656d707479207469746c6500000000000000006044820152606490fd5b60405162461bcd60e51b815260206004820152601d60248201527f536b696c6c426f756e74793a20646561646c696e6520696e20706173740000006044820152606490fd5b60405162461bcd60e51b815260206004820152601860248201527f536b696c6c426f756e74793a207a65726f2072657761726400000000000000006044820152606490fd5b346100c45760203660031901126100c4576004356110866117dd565b805f52600160205260405f20600581019081549160ff8316600681101561018b5780159081156111de575b5015611199576001600160401b036003830154164211156111545760ff19909216600517909155805460029190910154611114916001600160a01b03167f000000000000000000000000000000000000000000000000000000000000000061180c565b61111d8161188a565b7f7e45726102429d3393312813ea8bafe4c9b51580b5d82860d827662116ff9df25f80a260015f8051602061192083398151915255005b60405162461bcd60e51b815260206004820152601e60248201527f536b696c6c426f756e74793a206e6f74207061737420646561646c696e6500006044820152606490fd5b60405162461bcd60e51b815260206004820152601a60248201527f536b696c6c426f756e74793a2063616e6e6f74206578706972650000000000006044820152606490fd5b6001915014856110b1565b346100c4575f3660031901126100c457604051806003548083526020809301809160035f527fc2575a0e9e593c00f959f8c92f12db2869c3395a3b0502d05e2516446f71f85b905f5b8682821061128757868661124882880383611607565b60405192839281840190828552518091526040840192915f5b82811061127057505050500390f35b835185528695509381019392810192600101611261565b835485529093019260019283019201611232565b346100c45760203660031901126100c457600435805f52600160205260405f20600581019081549160ff8316600681101561018b576113d8576001600160401b0360038301541642116113935781546001600160a01b03163314611344576001809360ff191617905501336bffffffffffffffffffffffff60a01b82541617905533907fbf59c0d059a57ebf273b4b1643599fc4b48cf5effdd82113a740ed64d262ec935f80a3005b60405162461bcd60e51b815260206004820152602160248201527f536b696c6c426f756e74793a2063726561746f722063616e6e6f7420636c61696044820152606d60f81b6064820152608490fd5b60405162461bcd60e51b815260206004820152601a60248201527f536b696c6c426f756e74793a207061737420646561646c696e650000000000006044820152606490fd5b60405162461bcd60e51b815260206004820152601560248201527429b5b4b6362137bab73a3c9d103737ba1037b832b760591b6044820152606490fd5b346100c45760203660031901126100c4576004356114316117dd565b805f52600160205260405f209060058201805460ff811690600682101561018b577f285d0f935b4d6592b80efc46cc3d9eb3e93e27fe245f0a6c2b5b9a9d04800ee79261148260026020941461156f565b85546001600160a01b039260039161149d90851633146115bb565b60ff1916179055600185016114dd6002838354169701968754907f000000000000000000000000000000000000000000000000000000000000000061180c565b6114e68561188a565b54169354604051908152a360015f8051602061192083398151915255005b9181601f840112156100c4578235916001600160401b0383116100c457602083818601950101116100c457565b91908251928382525f5b84811061155b575050825f602080949584010152601f8019910116010190565b60208183018101518483018201520161153b565b1561157657565b60405162461bcd60e51b815260206004820152601a60248201527f536b696c6c426f756e74793a206e6f74207375626d69747465640000000000006044820152606490fd5b156115c257565b60405162461bcd60e51b815260206004820152601860248201527f536b696c6c426f756e74793a206e6f742063726561746f7200000000000000006044820152606490fd5b90601f801991011681019081106001600160401b03821117610db357604052565b9291926001600160401b038211610db35760405191611651601f8201601f191660200184611607565b8294818452818301116100c4578281602093845f960137010152565b90600182811c9216801561169b575b602083101461168757565b634e487b7160e01b5f52602260045260245ffd5b91607f169161167c565b8181106116b0575050565b5f81556001016116a5565b6003548110156116f05760035f527fc2575a0e9e593c00f959f8c92f12db2869c3395a3b0502d05e2516446f71f85b01905f90565b634e487b7160e01b5f52603260045260245ffd5b60ff1660ff81146105b05760010190565b60038110156116f05760051b60240190565b356001600160a01b03811681036100c45790565b9060405191825f825461174d8161166d565b908184526020946001916001811690815f146117bb575060011461177d575b50505061177b92500383611607565b565b5f90815285812095935091905b8183106117a357505061177b93508201015f808061176c565b8554888401850152948501948794509183019161178a565b9250505061177b94925060ff191682840152151560051b8201015f808061176c565b5f8051602061192083398151915260028154146117fa5760029055565b604051633ee5aeb560e01b8152600490fd5b60405163a9059cbb60e01b5f9081526001600160a01b039384166004526024949094529260209060448180855af160015f511481161561186b575b836040521561185557505050565b635274afe760e01b835216600482015260249150fd5b600181151661188157813b15153d151616611847565b833d5f823e3d90fd5b5f5b600380548083101561191957836118a2846116bb565b905490841b1c146118b757505060010161188c565b5f19935090918382019182116105b057610d456118d66118e2936116bb565b905490851b1c916116bb565b80548015611905578201916118f6836116bb565b9091825491841b1b1916905555565b634e487b7160e01b5f52603160045260245ffd5b5050505056fe9b779b17422d0df92223018b32b4d1fa46e071723d6817e2486d003becc55f00a264697066735822122047449d48ccac20fdddc18fc466cf5c38ce80e00ae4379a17085be45bbce29e7f64736f6c63430008180033","linkReferences":{}},"methodIdentifiers":{"bountyCount()":"3e362c96","claimBounty(uint256)":"44021ad7","completeBounty(uint256)":"139005ab","createBounty(string,string,uint256,uint64)":"7d0e914f","disputeBounty(uint256,address[3])":"d0e62fcd","expireBounty(uint256)":"5faedcef","getBounty(uint256)":"ee8c4bbf","getOpenBounties()":"49c0c190","nextBountyId()":"fd14fad4","nodeRegistry()":"d9b5c4a5","submitSkill(uint256,bytes32)":"ee00c01e","trustToken()":"d13deb2f","voteOnDispute(uint256,bool)":"a4f5df12"},"id":56}