{"abi":[{"type":"constructor","inputs":[{"name":"_trustToken","type":"address","internalType":"address"},{"name":"_skillRegistry","type":"address","internalType":"address"},{"name":"_nodeRegistry","type":"address","internalType":"address"},{"name":"_treasury","type":"address","internalType":"address"}],"stateMutability":"nonpayable"},{"type":"function","name":"BPS_DENOMINATOR","inputs":[],"outputs":[{"name":"","type":"uint256","internalType":"uint256"}],"stateMutability":"view"},{"type":"function","name":"BURN_FEE_BPS","inputs":[],"outputs":[{"name":"","type":"uint256","internalType":"uint256"}],"stateMutability":"view"},{"type":"function","name":"CREATOR_FEE_BPS","inputs":[],"outputs":[{"name":"","type":"uint256","internalType":"uint256"}],"stateMutability":"view"},{"type":"function","name":"TREASURY_FEE_BPS","inputs":[],"outputs":[{"name":"","type":"uint256","internalType":"uint256"}],"stateMutability":"view"},{"type":"function","name":"VALIDATOR_FEE_BPS","inputs":[],"outputs":[{"name":"","type":"uint256","internalType":"uint256"}],"stateMutability":"view"},{"type":"function","name":"checkAccess","inputs":[{"name":"user","type":"address","internalType":"address"},{"name":"skillId","type":"bytes32","internalType":"bytes32"}],"outputs":[{"name":"","type":"bool","internalType":"bool"}],"stateMutability":"view"},{"type":"function","name":"claimRoyalties","inputs":[{"name":"skillId","type":"bytes32","internalType":"bytes32"}],"outputs":[],"stateMutability":"nonpayable"},{"type":"function","name":"claimValidatorRewards","inputs":[{"name":"nodeId","type":"bytes32","internalType":"bytes32"}],"outputs":[],"stateMutability":"nonpayable"},{"type":"function","name":"creatorRoyalties","inputs":[{"name":"","type":"bytes32","internalType":"bytes32"}],"outputs":[{"name":"","type":"uint256","internalType":"uint256"}],"stateMutability":"view"},{"type":"function","name":"distributeValidatorReward","inputs":[{"name":"skillId","type":"bytes32","internalType":"bytes32"},{"name":"nodeId","type":"bytes32","internalType":"bytes32"},{"name":"shareAmount","type":"uint256","internalType":"uint256"}],"outputs":[],"stateMutability":"nonpayable"},{"type":"function","name":"hasPurchased","inputs":[{"name":"","type":"address","internalType":"address"},{"name":"","type":"bytes32","internalType":"bytes32"}],"outputs":[{"name":"","type":"bool","internalType":"bool"}],"stateMutability":"view"},{"type":"function","name":"nodeRegistry","inputs":[],"outputs":[{"name":"","type":"address","internalType":"contract NodeRegistry"}],"stateMutability":"view"},{"type":"function","name":"owner","inputs":[],"outputs":[{"name":"","type":"address","internalType":"address"}],"stateMutability":"view"},{"type":"function","name":"purchaseCountOf","inputs":[{"name":"","type":"address","internalType":"address"}],"outputs":[{"name":"","type":"uint256","internalType":"uint256"}],"stateMutability":"view"},{"type":"function","name":"purchaseSkill","inputs":[{"name":"skillId","type":"bytes32","internalType":"bytes32"}],"outputs":[],"stateMutability":"nonpayable"},{"type":"function","name":"renounceOwnership","inputs":[],"outputs":[],"stateMutability":"nonpayable"},{"type":"function","name":"setTreasury","inputs":[{"name":"newTreasury","type":"address","internalType":"address"}],"outputs":[],"stateMutability":"nonpayable"},{"type":"function","name":"skillRegistry","inputs":[],"outputs":[{"name":"","type":"address","internalType":"contract SkillRegistry"}],"stateMutability":"view"},{"type":"function","name":"subscribe","inputs":[{"name":"tier","type":"uint8","internalType":"enum Marketplace.SubscriptionTier"}],"outputs":[],"stateMutability":"nonpayable"},{"type":"function","name":"subscriptions","inputs":[{"name":"","type":"address","internalType":"address"}],"outputs":[{"name":"tier","type":"uint8","internalType":"enum Marketplace.SubscriptionTier"},{"name":"expiresAt","type":"uint256","internalType":"uint256"},{"name":"dailyUsed","type":"uint256","internalType":"uint256"},{"name":"lastUsedDay","type":"uint256","internalType":"uint256"}],"stateMutability":"view"},{"type":"function","name":"tierConfigs","inputs":[{"name":"","type":"uint8","internalType":"enum Marketplace.SubscriptionTier"}],"outputs":[{"name":"monthlyPrice","type":"uint256","internalType":"uint256"},{"name":"dailyLimit","type":"uint256","internalType":"uint256"},{"name":"rewardMultiplier","type":"uint256","internalType":"uint256"}],"stateMutability":"view"},{"type":"function","name":"transferOwnership","inputs":[{"name":"newOwner","type":"address","internalType":"address"}],"outputs":[],"stateMutability":"nonpayable"},{"type":"function","name":"treasury","inputs":[],"outputs":[{"name":"","type":"address","internalType":"address"}],"stateMutability":"view"},{"type":"function","name":"trustToken","inputs":[],"outputs":[{"name":"","type":"address","internalType":"contract SkillToken"}],"stateMutability":"view"},{"type":"function","name":"validatorRewards","inputs":[{"name":"","type":"bytes32","internalType":"bytes32"}],"outputs":[{"name":"","type":"uint256","internalType":"uint256"}],"stateMutability":"view"},{"type":"event","name":"OwnershipTransferred","inputs":[{"name":"previousOwner","type":"address","indexed":true,"internalType":"address"},{"name":"newOwner","type":"address","indexed":true,"internalType":"address"}],"anonymous":false},{"type":"event","name":"RoyaltiesClaimed","inputs":[{"name":"skillId","type":"bytes32","indexed":true,"internalType":"bytes32"},{"name":"creator","type":"address","indexed":true,"internalType":"address"},{"name":"amount","type":"uint256","indexed":false,"internalType":"uint256"}],"anonymous":false},{"type":"event","name":"SkillPurchased","inputs":[{"name":"skillId","type":"bytes32","indexed":true,"internalType":"bytes32"},{"name":"buyer","type":"address","indexed":true,"internalType":"address"},{"name":"price","type":"uint256","indexed":false,"internalType":"uint256"}],"anonymous":false},{"type":"event","name":"Subscribed","inputs":[{"name":"user","type":"address","indexed":true,"internalType":"address"},{"name":"tier","type":"uint8","indexed":false,"internalType":"enum Marketplace.SubscriptionTier"},{"name":"expiresAt","type":"uint256","indexed":false,"internalType":"uint256"}],"anonymous":false},{"type":"event","name":"TreasuryUpdated","inputs":[{"name":"newTreasury","type":"address","indexed":false,"internalType":"address"}],"anonymous":false},{"type":"event","name":"ValidatorRewardsClaimed","inputs":[{"name":"nodeId","type":"bytes32","indexed":true,"internalType":"bytes32"},{"name":"owner","type":"address","indexed":true,"internalType":"address"},{"name":"amount","type":"uint256","indexed":false,"internalType":"uint256"}],"anonymous":false},{"type":"error","name":"OwnableInvalidOwner","inputs":[{"name":"owner","type":"address","internalType":"address"}]},{"type":"error","name":"OwnableUnauthorizedAccount","inputs":[{"name":"account","type":"address","internalType":"address"}]},{"type":"error","name":"ReentrancyGuardReentrantCall","inputs":[]},{"type":"error","name":"SafeERC20FailedOperation","inputs":[{"name":"token","type":"address","internalType":"address"}]}],"bytecode":{"object":"0x60e0346200039d57601f6200185638819003918201601f191683019291906001600160401b03841183851017620003a15781608092849260409687528339810103126200039d576200005181620003d5565b60209162000061838201620003d5565b6200007c606062000074878501620003d5565b9301620003d5565b331562000386575f80546001600160a01b0319808216339081178455895196919591936001600160a01b03938416907f8be0079c531659141344cd1fd0a4f28419497f9722a3daafe3b4186f6b6457e09080a381600197887f9b779b17422d0df92223018b32b4d1fa46e071723d6817e2486d003becc55f005516958615620003445750811691821562000300578116928315620002bc5716938415620002785760805260a05260c05282541617815562000136620003b5565b905f8252828201906005825284830192670de0b6b3a7640000928385525f80526002948591828852885f209351845551848401555191015562000178620003b5565b6802b5e3af16b18800008152838582016032815287830190858252845f52828852885f2093518455518484015551910155620001b3620003b5565b680ad78ebc5ac620000081528385820160c8815287830190858252825f52828852885f2093518455518484015551910155620001ee620003b5565b93683635c9adc5dea00000855283818601915f835287870194855260035f5252855f20945185555190840155519101555161146b9081620003eb82396080518181816104280152818161091401528181610c0301528181610e6c0152610f62015260a05181818161033701528181610b7f01526110e7015260c0518181816108b50152610edb0152f35b875162461bcd60e51b815260048101889052601a60248201527f4d61726b6574706c6163653a207a65726f2074726561737572790000000000006044820152606490fd5b885162461bcd60e51b815260048101899052601960248201527f4d61726b6574706c6163653a207a65726f206e6f6465526567000000000000006044820152606490fd5b885162461bcd60e51b815260048101899052601a60248201527f4d61726b6574706c6163653a207a65726f20736b696c6c5265670000000000006044820152606490fd5b62461bcd60e51b815260048101899052601760248201527f4d61726b6574706c6163653a207a65726f20746f6b656e0000000000000000006044820152606490fd5b8551631e4fbdf760e01b81525f6004820152602490fd5b5f80fd5b634e487b7160e01b5f52604160045260245ffd5b60405190606082016001600160401b03811183821017620003a157604052565b51906001600160a01b03821682036200039d5756fe60806040818152600480361015610014575f80fd5b5f925f3560e01c9081630f23c83c146110d55750806317b6c8d51461102a5780632b2c11fc14610e9757806349c7e63914610cff5780634fd8a79014610b3b57806361d027b314610b135780636c9f17fd14610ace5780636e25ebe614610aa6578063715018a614610a4f5780637461f24a14610a1e5780638540e271146109e75780638da5cb5b146109c05780639da9db2a1461097b578063cacf874e1461095f578063cc3cbd2a14610943578063d13deb2f14610900578063d642aa02146108e4578063d9b5c4a5146108a1578063def392601461087a578063e1a452181461085e578063e5c2ffb2146102fd578063ea243d36146102e0578063f046395a14610278578063f0f44260146101c35763f2fde38b14610133575f80fd5b346101bf5760203660031901126101bf5761014c611116565b906101556112d3565b6001600160a01b039182169283156101a95750505f54826bffffffffffffffffffffffff60a01b8216175f55167f8be0079c531659141344cd1fd0a4f28419497f9722a3daafe3b4186f6b6457e05f80a380f35b51631e4fbdf760e01b8152908101849052602490fd5b8280fd5b5090346101bf5760203660031901126101bf576101de611116565b6101e66112d3565b6001600160a01b03169182156102365750600180546001600160a01b03191683179055519081527f7dae230f18360d76a040c81f050aa14eb9d6dc7901b20fc5d855e2a20fe814d190602090a180f35b6020606492519162461bcd60e51b8352820152601a60248201527f4d61726b6574706c6163653a207a65726f2074726561737572790000000000006044820152fd5b5050346102dc5760203660031901126102dc5760809181906001600160a01b036102a0611116565b1681526003602052209060ff8254169160018101549160036002830154920154926102cd82518096611157565b60208501528301526060820152f35b5080fd5b5050346102dc57816003193601126102dc57602090516101f48152f35b50346105e6576020806003193601126105e65781359061031b6112fe565b835163170da40760e21b81528381018390526001600160a01b037f00000000000000000000000000000000000000000000000000000000000000008116956024959092848188818b5afa9081156105dc575f91610828575b50156107e657335f5260078452825f20855f52845260ff835f2054166107a457335f5260038452825f209660ff885416976103ad8961112c565b8551996103b98b611192565b81548b5260019a8760028d850154948b84019586520154910152848110156107925791899493918893151580610786575b61071f575b51908161068f575b505085519889809263eec332fd60e01b82528a868301525afa9687156105dc575f97610660575b50861561062057827f00000000000000000000000000000000000000000000000000000000000000001692610455883033876113ab565b611b58880290611b57198983040161060e57612710809204916105dc808b02908b8204036105fc57819004906103e88b026103e7198c8204016105ea57916104b38c6104ae836104ae6104ea98968a9804978894611164565b611164565b948b5f52868b526104c88a5f20918254611185565b90558a5f5260068a526104df895f20918254611185565b90558b54168661132d565b833b156105e6575f9383859287519687938492630852cd8d60e31b8452878401525af180156105dc57610589575b505050907f61d54cb2122d14a027c2aaf41fbbf2cc45f062da252ea14526fb611db0fdc86f913387526007825280872084885282528087208660ff198254161790553387526008825280872061056e81546112c5565b9055519384523393a35f805160206114168339815191525580f35b909192975067ffffffffffffffff83116105cb57505085525f947f61d54cb2122d14a027c2aaf41fbbf2cc45f062da252ea14526fb611db0fdc86f8680610518565b604190634e487b7160e01b5f52525ffd5b84513d5f823e3d90fd5b5f80fd5b86601187634e487b7160e01b5f52525ffd5b85601186634e487b7160e01b5f52525ffd5b83601184634e487b7160e01b5f52525ffd5b601a6064928686519362461bcd60e51b85528401528201527f4d61726b6574706c6163653a20736b696c6c20697320667265650000000000006044820152fd5b9096508481813d8311610688575b61067881836111c2565b810103126105e65751955f61041e565b503d61066e565b9092506002919394506201518042046003820181815403610712575b505001908154908110156106d0579186916106c78a95946112c5565b90555f806103f7565b855162461bcd60e51b81528085018890526018818b01527f4d61726b6574706c6163653a206461696c79206c696d697400000000000000006044820152606490fd5b555f828201555f806106ab565b91939450915089820154421161073a579186918994936103ef565b855162461bcd60e51b81528085018890526021818b01527f4d61726b6574706c6163653a20737562736372697074696f6e206578706972656044820152601960fa1b6064820152608490fd5b508b82015415156103ea565b89602186634e487b7160e01b5f52525ffd5b825162461bcd60e51b8152908101849052601e818701527f4d61726b6574706c6163653a20616c72656164792070757263686173656400006044820152606490fd5b825162461bcd60e51b8152908101849052601d818701527f4d61726b6574706c6163653a20736b696c6c206e6f74206163746976650000006044820152606490fd5b90508481813d8311610857575b61083f81836111c2565b810103126105e6575180151581036105e6575f610373565b503d610835565b82346105e6575f3660031901126105e657602090516127108152f35b5090346105e65760203660031901126105e65781602092355f528252805f20549051908152f35b82346105e6575f3660031901126105e657517f00000000000000000000000000000000000000000000000000000000000000006001600160a01b03168152602090f35b82346105e6575f3660031901126105e657602090516103e88152f35b82346105e6575f3660031901126105e657517f00000000000000000000000000000000000000000000000000000000000000006001600160a01b03168152602090f35b82346105e6575f3660031901126105e65760209051611b588152f35b82346105e6575f3660031901126105e657602090516105dc8152f35b5090346105e65760203660031901126105e6578135918210156105e6576109a360609261112c565b805491600260018301549201549181519384526020840152820152f35b82346105e6575f3660031901126105e6575f5490516001600160a01b039091168152602090f35b82346105e65760203660031901126105e6576020906001600160a01b03610a0c611116565b165f5260088252805f20549051908152f35b82346105e657806003193601126105e657602090610a46610a3d611116565b60243590611203565b90519015158152f35b346105e6575f3660031901126105e657610a676112d3565b5f80546001600160a01b0319811682556001600160a01b03167f8be0079c531659141344cd1fd0a4f28419497f9722a3daafe3b4186f6b6457e08280a3005b5090346105e65760203660031901126105e657602091355f5260058252805f20549051908152f35b82346105e657806003193601126105e6576020906001600160a01b03610af2611116565b165f5260078252805f206024355f52825260ff815f20541690519015158152f35b82346105e6575f3660031901126105e65760015490516001600160a01b039091168152602090f35b5090346105e6576020806003193601126105e657823591610b5a6112fe565b80516001626b1b0d60e01b031981528481018490526001600160a01b039083816024817f000000000000000000000000000000000000000000000000000000000000000086165afa908115610cf5579082915f91610cc8575b50163303610c8557835f52848352815f2054948515610c4257857f651db7cebb7eeb63506e0546b8af51f2299bc67f5e1ac2b0fbb2f6449031d76f949392610c2892875f5285525f8481205533907f00000000000000000000000000000000000000000000000000000000000000001661132d565b519384523393a360015f8051602061141683398151915255005b825162461bcd60e51b8152908101849052601960248201527f4d61726b6574706c6163653a206e6f20726f79616c74696573000000000000006044820152606490fd5b815162461bcd60e51b8152808601849052601860248201527f4d61726b6574706c6163653a206e6f742063726561746f7200000000000000006044820152606490fd5b610ce89150853d8711610cee575b610ce081836111c2565b8101906111e4565b87610bb3565b503d610cd6565b83513d5f823e3d90fd5b5090346105e65760203660031901126105e657813590828210156105e657610d256112fe565b610d2e8261112c565b8151610d3981611192565b82600283549384845260018101546020850152015491015280610e54575b5062278d004201804211610e415781516080810181811067ffffffffffffffff821117610e2e57835283815260208101828152838201905f825260608301965f8852335f526003602052855f2093519080821015610e1b5750917f044f95a2d17727b5b87e4f23d70278b59a2b0b285289cc9021cac8cdba4797b796979160039360ff8019875416911617855551600185015551600284015551910155610e0082518095611157565b60208401523392a260015f8051602061141683398151915255005b602190634e487b7160e01b5f525260245ffd5b604186634e487b7160e01b5f525260245ffd5b601184634e487b7160e01b5f525260245ffd5b600154610e9191906001600160a01b039081169033907f0000000000000000000000000000000000000000000000000000000000000000166113ab565b83610d57565b5090346105e6576020806003193601126105e657823591610eb66112fe565b80516001628aabd560e01b031981528481018490526001600160a01b039083816024817f000000000000000000000000000000000000000000000000000000000000000086165afa908115610cf5579082915f9161100d575b50163303610fca57835f5260058352815f2054948515610f87575090610c28857faf001ed7ec9076e4fd3bf9ba7f99a300a09f3c411a7f7f1d8fe555505187642c9493865f52600585525f8481205533907f00000000000000000000000000000000000000000000000000000000000000001661132d565b825162461bcd60e51b8152908101849052601760248201527f4d61726b6574706c6163653a206e6f20726577617264730000000000000000006044820152606490fd5b815162461bcd60e51b8152808601849052601b60248201527f4d61726b6574706c6163653a206e6f74206e6f6465206f776e657200000000006044820152606490fd5b6110249150853d8711610cee57610ce081836111c2565b87610f0f565b5090346105e65760603660031901126105e65781356044359261104b6112d3565b815f52600660205283835f20541061109257509061108e915f526006602052805f20611078848254611164565b90556024355f5260056020525f20918254611185565b9055005b606490602084519162461bcd60e51b8352820152601e60248201527f4d61726b6574706c6163653a20696e73756666696369656e7420706f6f6c00006044820152fd5b346105e6575f3660031901126105e6577f00000000000000000000000000000000000000000000000000000000000000006001600160a01b03168152602090f35b600435906001600160a01b03821682036105e657565b6004811015611143575f52600260205260405f2090565b634e487b7160e01b5f52602160045260245ffd5b9060048210156111435752565b9190820391821161117157565b634e487b7160e01b5f52601160045260245ffd5b9190820180921161117157565b6060810190811067ffffffffffffffff8211176111ae57604052565b634e487b7160e01b5f52604160045260245ffd5b90601f8019910116810190811067ffffffffffffffff8211176111ae57604052565b908160209103126105e657516001600160a01b03811681036105e65790565b60018060a01b031690815f52600760205260405f20905f5260205260ff60405f2054166112bf575f52600360205260405f2060ff8154166112438161112c565b9060405161125081611192565b82548152604060026001850154946020840195865201549101526004811015611143571515806112b2575b6112ac57519081156112a55760038101546201518042040361129f57600201541090565b505f1090565b5050600190565b50505f90565b506001820154421161127b565b50600190565b5f1981146111715760010190565b5f546001600160a01b031633036112e657565b60405163118cdaa760e01b8152336004820152602490fd5b5f80516020611416833981519152600281541461131b5760029055565b604051633ee5aeb560e01b8152600490fd5b60405163a9059cbb60e01b5f9081526001600160a01b039384166004526024949094529260209060448180855af160015f511481161561138c575b836040521561137657505050565b635274afe760e01b835216600482015260249150fd5b60018115166113a257813b15153d151616611368565b833d5f823e3d90fd5b6040516323b872dd60e01b5f9081526001600160a01b03938416600452938316602452604494909452909160209060648180855af160015f51148116156113ff575b836040525f6060521561137657505050565b60018115166113a257813b15153d1516166113ed56fe9b779b17422d0df92223018b32b4d1fa46e071723d6817e2486d003becc55f00a264697066735822122095c879d1e40b88c9cd673d357f9f1928fe84d7803524678e8e199f1cb34579c564736f6c63430008180033","linkReferences":{}},"methodIdentifiers":{"BPS_DENOMINATOR()":"e1a45218","BURN_FEE_BPS()":"ea243d36","CREATOR_FEE_BPS()":"cc3cbd2a","TREASURY_FEE_BPS()":"d642aa02","VALIDATOR_FEE_BPS()":"cacf874e","checkAccess(address,bytes32)":"7461f24a","claimRoyalties(bytes32)":"4fd8a790","claimValidatorRewards(bytes32)":"2b2c11fc","creatorRoyalties(bytes32)":"def39260","distributeValidatorReward(bytes32,bytes32,uint256)":"17b6c8d5","hasPurchased(address,bytes32)":"6c9f17fd","nodeRegistry()":"d9b5c4a5","owner()":"8da5cb5b","purchaseCountOf(address)":"8540e271","purchaseSkill(bytes32)":"e5c2ffb2","renounceOwnership()":"715018a6","setTreasury(address)":"f0f44260","skillRegistry()":"0f23c83c","subscribe(uint8)":"49c7e639","subscriptions(address)":"f046395a","tierConfigs(uint8)":"9da9db2a","transferOwnership(address)":"f2fde38b","treasury()":"61d027b3","trustToken()":"d13deb2f","validatorRewards(bytes32)":"6e25ebe6"},"id":54}