{"abi":[{"type":"constructor","inputs":[{"name":"admin","type":"address","internalType":"address"},{"name":"wayfinder","type":"address","internalType":"address"},{"name":"daoTreasury","type":"address","internalType":"address"}],"stateMutability":"nonpayable"},{"type":"function","name":"DEFAULT_ADMIN_ROLE","inputs":[],"outputs":[{"name":"","type":"bytes32","internalType":"bytes32"}],"stateMutability":"view"},{"type":"function","name":"DOMAIN_SEPARATOR","inputs":[],"outputs":[{"name":"","type":"bytes32","internalType":"bytes32"}],"stateMutability":"view"},{"type":"function","name":"MAX_SUPPLY","inputs":[],"outputs":[{"name":"","type":"uint256","internalType":"uint256"}],"stateMutability":"view"},{"type":"function","name":"MINTER_ROLE","inputs":[],"outputs":[{"name":"","type":"bytes32","internalType":"bytes32"}],"stateMutability":"view"},{"type":"function","name":"allowance","inputs":[{"name":"owner","type":"address","internalType":"address"},{"name":"spender","type":"address","internalType":"address"}],"outputs":[{"name":"","type":"uint256","internalType":"uint256"}],"stateMutability":"view"},{"type":"function","name":"approve","inputs":[{"name":"spender","type":"address","internalType":"address"},{"name":"value","type":"uint256","internalType":"uint256"}],"outputs":[{"name":"","type":"bool","internalType":"bool"}],"stateMutability":"nonpayable"},{"type":"function","name":"balanceOf","inputs":[{"name":"account","type":"address","internalType":"address"}],"outputs":[{"name":"","type":"uint256","internalType":"uint256"}],"stateMutability":"view"},{"type":"function","name":"burn","inputs":[{"name":"value","type":"uint256","internalType":"uint256"}],"outputs":[],"stateMutability":"nonpayable"},{"type":"function","name":"burnFrom","inputs":[{"name":"account","type":"address","internalType":"address"},{"name":"value","type":"uint256","internalType":"uint256"}],"outputs":[],"stateMutability":"nonpayable"},{"type":"function","name":"claimVested","inputs":[],"outputs":[],"stateMutability":"nonpayable"},{"type":"function","name":"claimableVested","inputs":[{"name":"beneficiary","type":"address","internalType":"address"}],"outputs":[{"name":"","type":"uint256","internalType":"uint256"}],"stateMutability":"view"},{"type":"function","name":"decimals","inputs":[],"outputs":[{"name":"","type":"uint8","internalType":"uint8"}],"stateMutability":"view"},{"type":"function","name":"eip712Domain","inputs":[],"outputs":[{"name":"fields","type":"bytes1","internalType":"bytes1"},{"name":"name","type":"string","internalType":"string"},{"name":"version","type":"string","internalType":"string"},{"name":"chainId","type":"uint256","internalType":"uint256"},{"name":"verifyingContract","type":"address","internalType":"address"},{"name":"salt","type":"bytes32","internalType":"bytes32"},{"name":"extensions","type":"uint256[]","internalType":"uint256[]"}],"stateMutability":"view"},{"type":"function","name":"getRoleAdmin","inputs":[{"name":"role","type":"bytes32","internalType":"bytes32"}],"outputs":[{"name":"","type":"bytes32","internalType":"bytes32"}],"stateMutability":"view"},{"type":"function","name":"grantRole","inputs":[{"name":"role","type":"bytes32","internalType":"bytes32"},{"name":"account","type":"address","internalType":"address"}],"outputs":[],"stateMutability":"nonpayable"},{"type":"function","name":"hasRole","inputs":[{"name":"role","type":"bytes32","internalType":"bytes32"},{"name":"account","type":"address","internalType":"address"}],"outputs":[{"name":"","type":"bool","internalType":"bool"}],"stateMutability":"view"},{"type":"function","name":"mint","inputs":[{"name":"to","type":"address","internalType":"address"},{"name":"amount","type":"uint256","internalType":"uint256"}],"outputs":[],"stateMutability":"nonpayable"},{"type":"function","name":"name","inputs":[],"outputs":[{"name":"","type":"string","internalType":"string"}],"stateMutability":"view"},{"type":"function","name":"nonces","inputs":[{"name":"owner","type":"address","internalType":"address"}],"outputs":[{"name":"","type":"uint256","internalType":"uint256"}],"stateMutability":"view"},{"type":"function","name":"permit","inputs":[{"name":"owner","type":"address","internalType":"address"},{"name":"spender","type":"address","internalType":"address"},{"name":"value","type":"uint256","internalType":"uint256"},{"name":"deadline","type":"uint256","internalType":"uint256"},{"name":"v","type":"uint8","internalType":"uint8"},{"name":"r","type":"bytes32","internalType":"bytes32"},{"name":"s","type":"bytes32","internalType":"bytes32"}],"outputs":[],"stateMutability":"nonpayable"},{"type":"function","name":"renounceRole","inputs":[{"name":"role","type":"bytes32","internalType":"bytes32"},{"name":"callerConfirmation","type":"address","internalType":"address"}],"outputs":[],"stateMutability":"nonpayable"},{"type":"function","name":"revokeRole","inputs":[{"name":"role","type":"bytes32","internalType":"bytes32"},{"name":"account","type":"address","internalType":"address"}],"outputs":[],"stateMutability":"nonpayable"},{"type":"function","name":"supportsInterface","inputs":[{"name":"interfaceId","type":"bytes4","internalType":"bytes4"}],"outputs":[{"name":"","type":"bool","internalType":"bool"}],"stateMutability":"view"},{"type":"function","name":"symbol","inputs":[],"outputs":[{"name":"","type":"string","internalType":"string"}],"stateMutability":"view"},{"type":"function","name":"totalSupply","inputs":[],"outputs":[{"name":"","type":"uint256","internalType":"uint256"}],"stateMutability":"view"},{"type":"function","name":"transfer","inputs":[{"name":"to","type":"address","internalType":"address"},{"name":"value","type":"uint256","internalType":"uint256"}],"outputs":[{"name":"","type":"bool","internalType":"bool"}],"stateMutability":"nonpayable"},{"type":"function","name":"transferFrom","inputs":[{"name":"from","type":"address","internalType":"address"},{"name":"to","type":"address","internalType":"address"},{"name":"value","type":"uint256","internalType":"uint256"}],"outputs":[{"name":"","type":"bool","internalType":"bool"}],"stateMutability":"nonpayable"},{"type":"function","name":"vestingSchedules","inputs":[{"name":"","type":"address","internalType":"address"}],"outputs":[{"name":"total","type":"uint256","internalType":"uint256"},{"name":"claimed","type":"uint256","internalType":"uint256"},{"name":"start","type":"uint256","internalType":"uint256"},{"name":"cliffDuration","type":"uint256","internalType":"uint256"},{"name":"vestingDuration","type":"uint256","internalType":"uint256"}],"stateMutability":"view"},{"type":"event","name":"Approval","inputs":[{"name":"owner","type":"address","indexed":true,"internalType":"address"},{"name":"spender","type":"address","indexed":true,"internalType":"address"},{"name":"value","type":"uint256","indexed":false,"internalType":"uint256"}],"anonymous":false},{"type":"event","name":"EIP712DomainChanged","inputs":[],"anonymous":false},{"type":"event","name":"RoleAdminChanged","inputs":[{"name":"role","type":"bytes32","indexed":true,"internalType":"bytes32"},{"name":"previousAdminRole","type":"bytes32","indexed":true,"internalType":"bytes32"},{"name":"newAdminRole","type":"bytes32","indexed":true,"internalType":"bytes32"}],"anonymous":false},{"type":"event","name":"RoleGranted","inputs":[{"name":"role","type":"bytes32","indexed":true,"internalType":"bytes32"},{"name":"account","type":"address","indexed":true,"internalType":"address"},{"name":"sender","type":"address","indexed":true,"internalType":"address"}],"anonymous":false},{"type":"event","name":"RoleRevoked","inputs":[{"name":"role","type":"bytes32","indexed":true,"internalType":"bytes32"},{"name":"account","type":"address","indexed":true,"internalType":"address"},{"name":"sender","type":"address","indexed":true,"internalType":"address"}],"anonymous":false},{"type":"event","name":"Transfer","inputs":[{"name":"from","type":"address","indexed":true,"internalType":"address"},{"name":"to","type":"address","indexed":true,"internalType":"address"},{"name":"value","type":"uint256","indexed":false,"internalType":"uint256"}],"anonymous":false},{"type":"event","name":"VestingClaimed","inputs":[{"name":"beneficiary","type":"address","indexed":true,"internalType":"address"},{"name":"amount","type":"uint256","indexed":false,"internalType":"uint256"}],"anonymous":false},{"type":"event","name":"VestingCreated","inputs":[{"name":"beneficiary","type":"address","indexed":true,"internalType":"address"},{"name":"total","type":"uint256","indexed":false,"internalType":"uint256"},{"name":"start","type":"uint256","indexed":false,"internalType":"uint256"},{"name":"cliffDuration","type":"uint256","indexed":false,"internalType":"uint256"},{"name":"vestingDuration","type":"uint256","indexed":false,"internalType":"uint256"}],"anonymous":false},{"type":"error","name":"AccessControlBadConfirmation","inputs":[]},{"type":"error","name":"AccessControlUnauthorizedAccount","inputs":[{"name":"account","type":"address","internalType":"address"},{"name":"neededRole","type":"bytes32","internalType":"bytes32"}]},{"type":"error","name":"ECDSAInvalidSignature","inputs":[]},{"type":"error","name":"ECDSAInvalidSignatureLength","inputs":[{"name":"length","type":"uint256","internalType":"uint256"}]},{"type":"error","name":"ECDSAInvalidSignatureS","inputs":[{"name":"s","type":"bytes32","internalType":"bytes32"}]},{"type":"error","name":"ERC20InsufficientAllowance","inputs":[{"name":"spender","type":"address","internalType":"address"},{"name":"allowance","type":"uint256","internalType":"uint256"},{"name":"needed","type":"uint256","internalType":"uint256"}]},{"type":"error","name":"ERC20InsufficientBalance","inputs":[{"name":"sender","type":"address","internalType":"address"},{"name":"balance","type":"uint256","internalType":"uint256"},{"name":"needed","type":"uint256","internalType":"uint256"}]},{"type":"error","name":"ERC20InvalidApprover","inputs":[{"name":"approver","type":"address","internalType":"address"}]},{"type":"error","name":"ERC20InvalidReceiver","inputs":[{"name":"receiver","type":"address","internalType":"address"}]},{"type":"error","name":"ERC20InvalidSender","inputs":[{"name":"sender","type":"address","internalType":"address"}]},{"type":"error","name":"ERC20InvalidSpender","inputs":[{"name":"spender","type":"address","internalType":"address"}]},{"type":"error","name":"ERC2612ExpiredSignature","inputs":[{"name":"deadline","type":"uint256","internalType":"uint256"}]},{"type":"error","name":"ERC2612InvalidSigner","inputs":[{"name":"signer","type":"address","internalType":"address"},{"name":"owner","type":"address","internalType":"address"}]},{"type":"error","name":"InvalidAccountNonce","inputs":[{"name":"account","type":"address","internalType":"address"},{"name":"currentNonce","type":"uint256","internalType":"uint256"}]},{"type":"error","name":"InvalidShortString","inputs":[]},{"type":"error","name":"StringTooLong","inputs":[{"name":"str","type":"string","internalType":"string"}]}],"bytecode":{"object":"0x610160346200072e57601f601f19620022573881900383810183168501916001600160401b039190828411878510176200062e5781606092889260409687528339810103126200072e5762000054856200074e565b9360209062000072846200006a848a016200074e565b98016200074e565b92845195620000818762000732565b60168752838701977f536b696c6c436861696e20547275737420546f6b656e0000000000000000000090818a52875191620000bc8362000732565b6016835286830152875194620000d28662000732565b600586526415149554d560da1b87870152885190620000f18262000732565b60019687835288830191603160f81b835285518881116200062e576003968754908b82811c9216801562000723575b8d8310146200070f578c8285859411620006b9575b50508c908483116001146200064e575f9262000642575b50505f1982891b1c1916908a1b1786555b8151918883116200062e5760049788548b81811c9116801562000623575b8d8210146200061057908c82858796959411620005b6575b50508c9284116001146200055557505f9262000549575b50505f1982871b1c191690881b1785555b620001c68b62000874565b9b6101209c8d52620001d88362000a2c565b9b6101409c8d52519020918260e0525190209b8c916101009d8e524660a0528a5192898401917f8b73c3c69bb8fe3d512ecc4cf759cc79239f7b179b0ffacaa9a75d522b39400f83528c85015260608401524660808401523060a084015260a0835260c0830190838210888311176200053657818c52835190206080523060c0526001600160a01b039284841615620004f45750508116978815620004b157169081156200046e578062000290620002979262000763565b50620007d3565b506002546aa56fa5b99019a5c8000000908181018091116200045b578795949392915f916002558282528187528a82208181540190558a519081527fddf252ad1be2c89b69c2b068fc378daa952ba7f163c4a11628f55a4df523b3ef988991a330156200044557600254956a7c13bc4b2c133c56000000968781018091116200043257600255305f525f8552885f208781540190555f895191888352863093a387519260a08401908111848210176200041f579260809592897f0ef11fd80fff9cb633beabeab03e30cd8c01b8f7f20493f9644fc85b9cd5bc789896938a968252878452848401955f875282850142815260608601916301e13380988984528c880195630784ce009b8c88525f5260098a525f2097518855519087015551600286015551908401555191015587519384524290840152868301526060820152a2519161163d938462000bda853960805184611043015260a0518461110f015260c0518461100d015260e05184611092015251836110b80152518261069a015251816106c40152f35b604183634e487b7160e01b5f525260245ffd5b601184634e487b7160e01b5f525260245ffd5b875163ec442f0560e01b81525f81840152602490fd5b601185634e487b7160e01b5f525260245ffd5b885162461bcd60e51b8152808501889052601960248201527f536b696c6c546f6b656e3a207a65726f207472656173757279000000000000006044820152606490fd5b895162461bcd60e51b8152808601899052601a60248201527f536b696c6c546f6b656e3a207a65726f2077617966696e6465720000000000006044820152606490fd5b907f536b696c6c546f6b656e3a207a65726f2061646d696e000000000000000000006101046064938c62461bcd60e51b855260c4820152601660e48201520152fd5b604187634e487b7160e01b5f525260245ffd5b015190505f80620001aa565b5f8a81528d81208d969094939216908e5b8282106200059e575050841162000586575b505050811b018555620001bb565b01515f1983891b60f8161c191690555f808062000578565b8385015186558e979095019493840193018e62000566565b9091929394508a5f5284825f209181880160051c830193881062000606575b9187968f92969594930160051c01915b828110620005f757508e915062000193565b5f81558796508e9101620005e5565b92508192620005d5565b60228a634e487b7160e01b5f525260245ffd5b90607f16906200017b565b634e487b7160e01b5f52604160045260245ffd5b015190505f806200014c565b908d918b8e95168b5f52835f20935f905b8282106200069757505084116200067f575b505050811b0186556200015d565b01515f19838b1b60f8161c191690555f808062000671565b91929395968291958786015181550195019301908f918f96959493926200065f565b90919250895f5284825f209181860160051c830193861062000705575b918e91869594930160051c01915b828110620006f657508e915062000135565b5f81558594508e9101620006e4565b92508192620006d6565b634e487b7160e01b5f52602260045260245ffd5b91607f169162000120565b5f80fd5b604081019081106001600160401b038211176200062e57604052565b51906001600160a01b03821682036200072e57565b6001600160a01b03165f8181525f8051602062002237833981519152602052604090205460ff16620007ce575f8181525f805160206200223783398151915260205260408120805460ff191660011790553391905f80516020620022178339815191528180a4600190565b505f90565b6001600160a01b03165f8181527f51a495916474fe1a0c0fcfb65a8a97682b84a054118858cdd1f5dfd7fc0919eb60205260409020547f9f2df0fed2c77648de5860a4cc508cd0818c85b8b8a1ab4ceeef8d981c8956a6919060ff166200086e57815f52600860205260405f20815f5260205260405f20600160ff1982541617905533915f80516020620022178339815191525f80a4600190565b50505f90565b8051602091908281101562000910575090601f825111620008b15780825192015190808310620008a357501790565b825f19910360031b1b161790565b90604051809263305a27a960e01b82528060048301528251908160248401525f935b828510620008f6575050604492505f838284010152601f80199101168101030190fd5b8481018201518686016044015293810193859350620008d3565b6001600160401b0381116200062e576005928354926001938481811c9116801562000a21575b838210146200070f57601f8111620009ed575b5081601f84116001146200098757509282939183925f946200097b575b50501b915f199060031b1c191617905560ff90565b015192505f8062000966565b919083601f198116875f52845f20945f905b88838310620009d25750505010620009b9575b505050811b01905560ff90565b01515f1960f88460031b161c191690555f8080620009ac565b85870151885590960195948501948793509081019062000999565b855f5284601f845f209201871c820191601f8601881c015b82811062000a1557505062000949565b5f815501859062000a05565b90607f169062000936565b80516020908181101562000ab85750601f82511162000a595780825192015190808310620008a357501790565b90604051809263305a27a960e01b82528060048301528251908160248401525f935b82851062000a9e575050604492505f838284010152601f80199101168101030190fd5b848101820151868601604401529381019385935062000a7b565b906001600160401b0382116200062e57600654926001938481811c9116801562000bce575b838210146200070f57601f811162000b97575b5081601f841160011462000b2f57509282939183925f9462000b23575b50501b915f199060031b1c19161760065560ff90565b015192505f8062000b0d565b919083601f19811660065f52845f20945f905b8883831062000b7c575050501062000b63575b505050811b0160065560ff90565b01515f1960f88460031b161c191690555f808062000b55565b85870151885590960195948501948793509081019062000b42565b60065f5284601f845f20920160051c820191601f860160051c015b82811062000bc257505062000af0565b5f815501859062000bb2565b90607f169062000add56fe608060409080825260049081361015610016575f80fd5b5f3560e01c90816301ffc9a714610bf45750806306fdde0314610b22578063095ea7b314610af957806318160ddd14610adb57806323b872dd14610a9f578063248a9ca314610a745780632f2ff15d14610a4b578063313ce56714610a3057806332cb6b0c14610a0a5780633644e515146109ee57806336568abe146109a957806340c10f191461085a57806342966c681461083d57806370a082311461080757806379cc6790146107d85780637ecebe00146107a157806384b0196e1461068457806391d148541461063f57806395d89b4114610554578063a217fddf1461053a578063a9059cbb1461050a578063d01c44cd14610402578063d505accf146102a4578063d53913931461026a578063d547741f1461022d578063dd62ed3e146101e4578063f4bfa0ab146101b85763fdb20ccb14610154575f80fd5b346101b45760203660031901126101b45760a0916001600160a01b03610178610c84565b165f526009602052805f208054926001820154926002830154916003840154930154938151958652602086015284015260608301526080820152f35b5f80fd5b82346101b45760203660031901126101b4576020906101dd6101d8610c84565b610d68565b9051908152f35b82346101b457806003193601126101b457602090610200610c84565b610208610c9a565b9060018060a01b038091165f5260018452825f2091165f528252805f20549051908152f35b5090346101b457806003193601126101b45761026891356102636001610251610c9a565b93835f5260086020525f200154610f4c565b611135565b005b82346101b4575f3660031901126101b457602090517f9f2df0fed2c77648de5860a4cc508cd0818c85b8b8a1ab4ceeef8d981c8956a68152f35b50346101b45760e03660031901126101b4576102be610c84565b6102c6610c9a565b906044359260643560843560ff811681036101b4578142116103eb5760018060a01b039081851692835f526007602052885f209081549160018301905589519060208201927f6e71edae12b1b97f4d1f60370fef10105fa2faae0126114a169c64845d6126c98452868c840152858a1660608401528a608084015260a083015260c082015260c0815260e0810181811067ffffffffffffffff8211176103d8578a525190206103aa916103a19161037b61100a565b908b519161190160f01b83526002830152602282015260c43591604260a43592206114f7565b90929192611584565b168181036103bd576102688686866112af565b86516325c0072360e11b815292830152602482015260449150fd5b604187634e487b7160e01b5f525260245ffd5b865163313c898160e11b8152808401839052602490fd5b5090346101b4575f3660031901126101b457335f526009602052805f208054156104ce57600161043182611248565b91019061044082548092610d5b565b93841561048b57508361045291610d3a565b905561045f823330610e72565b519081527f9fe9b7be9d151c7a8b6de49a1312ff27a15096d0d1d12999af85fe4310e0b12560203392a2005b606490602085519162461bcd60e51b8352820152601c60248201527f536b696c6c546f6b656e3a206e6f7468696e6720746f20636c61696d000000006044820152fd5b815162461bcd60e51b81526020818501526016602482015275536b696c6c546f6b656e3a206e6f2076657374696e6760501b6044820152606490fd5b82346101b457806003193601126101b457602090610533610529610c84565b6024359033610e72565b5160018152f35b82346101b4575f3660031901126101b457602090515f8152f35b50346101b4575f3660031901126101b457815191825f835461057581610cb0565b90818452602095600191876001821691825f146106185750506001146105bc575b5050506105b892916105a9910385610d18565b51928284938452830190610c46565b0390f35b5f90815286935091907f8a35acfbc15ff81a39ae7d344fd709f28e8600b4aa8c65c6b64bfe7fe36bd19b5b82841061060057505050820101816105a96105b8610596565b8054848a0186015288955087949093019281016105e7565b60ff19168782015293151560051b860190930193508492506105a991506105b89050610596565b5090346101b457806003193601126101b45760209161065c610c9a565b90355f5260088352815f209060018060a01b03165f52825260ff815f20541690519015158152f35b50346101b4575f3660031901126101b4576106be7f000000000000000000000000000000000000000000000000000000000000000061133c565b916106e87f000000000000000000000000000000000000000000000000000000000000000061143a565b815191602091602084019484861067ffffffffffffffff87111761078e5750610743826020928761073699989795525f85528151988998600f60f81b8a5260e0868b015260e08a0190610c46565b9188830390890152610c46565b914660608701523060808701525f60a087015285830360c087015251918281520192915f5b82811061077757505050500390f35b835185528695509381019392810192600101610768565b604190634e487b7160e01b5f525260245ffd5b82346101b45760203660031901126101b4576020906001600160a01b036107c6610c84565b165f5260078252805f20549051908152f35b82346101b4573660031901126101b4576102686107f3610c84565b60243590610802823383610da5565b6111a9565b82346101b45760203660031901126101b4576020906001600160a01b0361082c610c84565b165f525f8252805f20549051908152f35b50346101b45760203660031901126101b4576102689035336111a9565b5090346101b457806003193601126101b457610874610c84565b90602435917f9f2df0fed2c77648de5860a4cc508cd0818c85b8b8a1ab4ceeef8d981c8956a6805f526008602052825f20335f5260205260ff835f2054161561098b5750600254906b033b2e3c9fd0803ce80000006108d38584610d3a565b11610948576001600160a01b03169384156109325750827fddf252ad1be2c89b69c2b068fc378daa952ba7f163c4a11628f55a4df523b3ef926109195f95602094610d3a565b60025585855284835280852082815401905551908152a3005b6024905f84519163ec442f0560e01b8352820152fd5b825162461bcd60e51b8152602081870152601860248201527f536b696c6c546f6b656e3a2063617020657863656564656400000000000000006044820152606490fd5b825163e2517d3f60e01b815233818701526024810191909152604490fd5b5090346101b457806003193601126101b4576109c3610c9a565b90336001600160a01b038316036109df57506102689135611135565b5163334bd91960e11b81529050fd5b82346101b4575f3660031901126101b4576020906101dd61100a565b82346101b4575f3660031901126101b457602090516b033b2e3c9fd0803ce80000008152f35b82346101b4575f3660031901126101b4576020905160128152f35b5090346101b457806003193601126101b4576102689135610a6f6001610251610c9a565b610f8c565b5090346101b45760203660031901126101b457602091355f52600882526001815f2001549051908152f35b82346101b45760603660031901126101b457602090610533610abf610c84565b610ac7610c9a565b60443591610ad6833383610da5565b610e72565b82346101b4575f3660031901126101b4576020906002549051908152f35b82346101b457806003193601126101b457602090610533610b18610c84565b60243590336112af565b82346101b4575f3660031901126101b45780516003549091825f610b4584610cb0565b808352602094600190866001821691825f14610bd2575050600114610b77575b50506105b892916105a9910385610d18565b9085925060035f527fc2575a0e9e593c00f959f8c92f12db2869c3395a3b0502d05e2516446f71f85b915f925b828410610bba57505050820101816105a9610b65565b8054848a018601528895508794909301928101610ba4565b60ff19168682015292151560051b850190920192508391506105a99050610b65565b82346101b45760203660031901126101b457359063ffffffff60e01b82168092036101b457602091637965db0b60e01b8114908115610c35575b5015158152f35b6301ffc9a760e01b14905083610c2e565b91908251928382525f5b848110610c70575050825f602080949584010152601f8019910116010190565b602081830181015184830182015201610c50565b600435906001600160a01b03821682036101b457565b602435906001600160a01b03821682036101b457565b90600182811c92168015610cde575b6020831014610cca57565b634e487b7160e01b5f52602260045260245ffd5b91607f1691610cbf565b6040810190811067ffffffffffffffff821117610d0457604052565b634e487b7160e01b5f52604160045260245ffd5b90601f8019910116810190811067ffffffffffffffff821117610d0457604052565b91908201809211610d4757565b634e487b7160e01b5f52601160045260245ffd5b91908203918211610d4757565b6001600160a01b03165f908152600960205260409020805415610da057806001610d94610d9d93611248565b91015490610d5b565b90565b505f90565b919060018060a01b0380931692835f526001602052604093845f2091831691825f52602052845f2054925f198410610de0575b505050505050565b848410610e4257508015610e2b578115610e14575f526001602052835f20905f5260205203905f20555f8080808080610dd8565b8451634a1406b160e11b81525f6004820152602490fd5b845163e602df0560e01b81525f6004820152602490fd5b8551637dc7a0d960e11b81526001600160a01b039190911660048201526024810184905260448101859052606490fd5b916001600160a01b03808416928315610f345716928315610f1c57825f525f60205260405f205490828210610eea5750817fddf252ad1be2c89b69c2b068fc378daa952ba7f163c4a11628f55a4df523b3ef92602092855f525f84520360405f2055845f5260405f20818154019055604051908152a3565b60405163391434e360e21b81526001600160a01b03919091166004820152602481019190915260448101829052606490fd5b60405163ec442f0560e01b81525f6004820152602490fd5b604051634b637e8f60e11b81525f6004820152602490fd5b805f52600860205260405f20335f5260205260ff60405f20541615610f6e5750565b6044906040519063e2517d3f60e01b82523360048301526024820152fd5b90815f52600860205260405f209060018060a01b031690815f5260205260ff60405f205416155f1461100457815f52600860205260405f20815f5260205260405f20600160ff1982541617905533917f2f8788117e7eff1d82e926ec794901d17c78024a50270940304540a733656f0d5f80a4600190565b50505f90565b307f00000000000000000000000000000000000000000000000000000000000000006001600160a01b0316148061110c575b15611065577f000000000000000000000000000000000000000000000000000000000000000090565b60405160208101907f8b73c3c69bb8fe3d512ecc4cf759cc79239f7b179b0ffacaa9a75d522b39400f82527f000000000000000000000000000000000000000000000000000000000000000060408201527f000000000000000000000000000000000000000000000000000000000000000060608201524660808201523060a082015260a0815260c0810181811067ffffffffffffffff821117610d045760405251902090565b507f0000000000000000000000000000000000000000000000000000000000000000461461103c565b90815f52600860205260405f209060018060a01b031690815f5260205260ff60405f2054165f1461100457815f52600860205260405f20815f5260205260405f2060ff19815416905533917ff6391f5c32d9c69d2a47ea670b442974b53935d1edc7fd64eb21e047a839171b5f80a4600190565b91906001600160a01b038316908115610f3457815f525f60205260405f20549381851061121657506020817fddf252ad1be2c89b69c2b068fc378daa952ba7f163c4a11628f55a4df523b3ef925f95968587528684520360408620558060025403600255604051908152a3565b60405163391434e360e21b81526001600160a01b03919091166004820152602481018590526044810191909152606490fd5b600281015461125b600383015482610d3a565b42106110045761126b9042610d5b565b600482015491828210156112a85754818102918183041490151715610d47578115611294570490565b634e487b7160e01b5f52601260045260245ffd5b9150505490565b6001600160a01b03908116918215611324571691821561130c5760207f8c5be1e5ebec7d5bd14f71427d1e84f3dd0314c0f7b2291e5b200ac8c7c3b92591835f526001825260405f20855f5282528060405f2055604051908152a3565b604051634a1406b160e11b81525f6004820152602490fd5b60405163e602df0560e01b81525f6004820152602490fd5b60ff811461137a5760ff811690601f8211611368576040519161135e83610ce8565b8252602082015290565b604051632cd44ac360e21b8152600490fd5b50604051600554815f61138c83610cb0565b8083529260209060019081811690811561141657506001146113b7575b5050610d9d92500382610d18565b91509260055f527f036b6384b5eca791c62761152d0c79bb0604c104a5fb6f4eb0703f3154bb3db0935f925b8284106113fe5750610d9d9450505081016020015f806113a9565b855487850183015294850194869450928101926113e3565b91505060209250610d9d94915060ff191682840152151560051b8201015f806113a9565b60ff811461145c5760ff811690601f8211611368576040519161135e83610ce8565b50604051600654815f61146e83610cb0565b808352926020906001908181169081156114165750600114611498575050610d9d92500382610d18565b91509260065f527ff652222313e28459528d920b65115c16c04f3efc82aaedc97be59f3f377c0d3f935f925b8284106114df5750610d9d9450505081016020015f806113a9565b855487850183015294850194869450928101926114c4565b91907f7fffffffffffffffffffffffffffffff5d576e7357a4501ddfe92f46681b20a08411611579579160209360809260ff5f9560405194855216868401526040830152606082015282805260015afa1561156e575f516001600160a01b0381161561156457905f905f90565b505f906001905f90565b6040513d5f823e3d90fd5b5050505f9160039190565b60048110156115f35780611596575050565b600181036115b05760405163f645eedf60e01b8152600490fd5b600281036115d15760405163fce698f760e01b815260048101839052602490fd5b6003146115db5750565b602490604051906335e2f38360e21b82526004820152fd5b634e487b7160e01b5f52602160045260245ffdfea264697066735822122027c469df25f969a7619415db54d9852b77ea887613856843e1127dc6e726284e64736f6c634300081800332f8788117e7eff1d82e926ec794901d17c78024a50270940304540a733656f0d5eff886ea0ce6ca488a3d6e336d6c0f75f46d19b42c06ce5ee98e42c96d256c7","linkReferences":{}},"methodIdentifiers":{"DEFAULT_ADMIN_ROLE()":"a217fddf","DOMAIN_SEPARATOR()":"3644e515","MAX_SUPPLY()":"32cb6b0c","MINTER_ROLE()":"d5391393","allowance(address,address)":"dd62ed3e","approve(address,uint256)":"095ea7b3","balanceOf(address)":"70a08231","burn(uint256)":"42966c68","burnFrom(address,uint256)":"79cc6790","claimVested()":"d01c44cd","claimableVested(address)":"f4bfa0ab","decimals()":"313ce567","eip712Domain()":"84b0196e","getRoleAdmin(bytes32)":"248a9ca3","grantRole(bytes32,address)":"2f2ff15d","hasRole(bytes32,address)":"91d14854","mint(address,uint256)":"40c10f19","name()":"06fdde03","nonces(address)":"7ecebe00","permit(address,address,uint256,uint256,uint8,bytes32,bytes32)":"d505accf","renounceRole(bytes32,address)":"36568abe","revokeRole(bytes32,address)":"d547741f","supportsInterface(bytes4)":"01ffc9a7","symbol()":"95d89b41","totalSupply()":"18160ddd","transfer(address,uint256)":"a9059cbb","transferFrom(address,address,uint256)":"23b872dd","vestingSchedules(address)":"fdb20ccb"},"id":58}