{"abi":[{"type":"constructor","inputs":[{"name":"_trustToken","type":"address","internalType":"address"},{"name":"_nodeRegistry","type":"address","internalType":"address"}],"stateMutability":"nonpayable"},{"type":"function","name":"DEFAULT_ADMIN_ROLE","inputs":[],"outputs":[{"name":"","type":"bytes32","internalType":"bytes32"}],"stateMutability":"view"},{"type":"function","name":"SLASHER_ROLE","inputs":[],"outputs":[{"name":"","type":"bytes32","internalType":"bytes32"}],"stateMutability":"view"},{"type":"function","name":"UNSTAKE_COOLDOWN","inputs":[],"outputs":[{"name":"","type":"uint256","internalType":"uint256"}],"stateMutability":"view"},{"type":"function","name":"completeUnstake","inputs":[{"name":"nodeId","type":"bytes32","internalType":"bytes32"}],"outputs":[],"stateMutability":"nonpayable"},{"type":"function","name":"getRoleAdmin","inputs":[{"name":"role","type":"bytes32","internalType":"bytes32"}],"outputs":[{"name":"","type":"bytes32","internalType":"bytes32"}],"stateMutability":"view"},{"type":"function","name":"getTier","inputs":[{"name":"nodeId","type":"bytes32","internalType":"bytes32"}],"outputs":[{"name":"","type":"uint8","internalType":"enum Staking.StakeTier"}],"stateMutability":"view"},{"type":"function","name":"grantRole","inputs":[{"name":"role","type":"bytes32","internalType":"bytes32"},{"name":"account","type":"address","internalType":"address"}],"outputs":[],"stateMutability":"nonpayable"},{"type":"function","name":"hasRole","inputs":[{"name":"role","type":"bytes32","internalType":"bytes32"},{"name":"account","type":"address","internalType":"address"}],"outputs":[{"name":"","type":"bool","internalType":"bool"}],"stateMutability":"view"},{"type":"function","name":"isBanned","inputs":[{"name":"nodeId","type":"bytes32","internalType":"bytes32"}],"outputs":[{"name":"","type":"bool","internalType":"bool"}],"stateMutability":"view"},{"type":"function","name":"nodeRegistry","inputs":[],"outputs":[{"name":"","type":"address","internalType":"contract NodeRegistry"}],"stateMutability":"view"},{"type":"function","name":"renounceRole","inputs":[{"name":"role","type":"bytes32","internalType":"bytes32"},{"name":"callerConfirmation","type":"address","internalType":"address"}],"outputs":[],"stateMutability":"nonpayable"},{"type":"function","name":"revokeRole","inputs":[{"name":"role","type":"bytes32","internalType":"bytes32"},{"name":"account","type":"address","internalType":"address"}],"outputs":[],"stateMutability":"nonpayable"},{"type":"function","name":"rewardMultiplier","inputs":[{"name":"nodeId","type":"bytes32","internalType":"bytes32"}],"outputs":[{"name":"","type":"uint256","internalType":"uint256"}],"stateMutability":"view"},{"type":"function","name":"slash","inputs":[{"name":"nodeId","type":"bytes32","internalType":"bytes32"},{"name":"reason","type":"uint8","internalType":"enum Staking.SlashReason"},{"name":"affected","type":"address","internalType":"address"}],"outputs":[],"stateMutability":"nonpayable"},{"type":"function","name":"slashRates","inputs":[{"name":"","type":"uint8","internalType":"enum Staking.SlashReason"}],"outputs":[{"name":"","type":"uint256","internalType":"uint256"}],"stateMutability":"view"},{"type":"function","name":"stake","inputs":[{"name":"nodeId","type":"bytes32","internalType":"bytes32"},{"name":"amount","type":"uint256","internalType":"uint256"}],"outputs":[],"stateMutability":"nonpayable"},{"type":"function","name":"stakedAmount","inputs":[{"name":"nodeId","type":"bytes32","internalType":"bytes32"}],"outputs":[{"name":"","type":"uint256","internalType":"uint256"}],"stateMutability":"view"},{"type":"function","name":"stakers","inputs":[{"name":"","type":"bytes32","internalType":"bytes32"}],"outputs":[{"name":"staked","type":"uint256","internalType":"uint256"},{"name":"pendingUnstake","type":"uint256","internalType":"uint256"},{"name":"unstakeRequestTime","type":"uint256","internalType":"uint256"},{"name":"tier","type":"uint8","internalType":"enum Staking.StakeTier"},{"name":"banned","type":"bool","internalType":"bool"}],"stateMutability":"view"},{"type":"function","name":"supportsInterface","inputs":[{"name":"interfaceId","type":"bytes4","internalType":"bytes4"}],"outputs":[{"name":"","type":"bool","internalType":"bool"}],"stateMutability":"view"},{"type":"function","name":"tierThresholds","inputs":[{"name":"","type":"uint8","internalType":"enum Staking.StakeTier"}],"outputs":[{"name":"minStake","type":"uint256","internalType":"uint256"},{"name":"dailyLimit","type":"uint256","internalType":"uint256"},{"name":"rewardMultiplier","type":"uint256","internalType":"uint256"}],"stateMutability":"view"},{"type":"function","name":"trustToken","inputs":[],"outputs":[{"name":"","type":"address","internalType":"contract SkillToken"}],"stateMutability":"view"},{"type":"function","name":"unstake","inputs":[{"name":"nodeId","type":"bytes32","internalType":"bytes32"},{"name":"amount","type":"uint256","internalType":"uint256"}],"outputs":[],"stateMutability":"nonpayable"},{"type":"event","name":"Banned","inputs":[{"name":"nodeId","type":"bytes32","indexed":true,"internalType":"bytes32"}],"anonymous":false},{"type":"event","name":"RoleAdminChanged","inputs":[{"name":"role","type":"bytes32","indexed":true,"internalType":"bytes32"},{"name":"previousAdminRole","type":"bytes32","indexed":true,"internalType":"bytes32"},{"name":"newAdminRole","type":"bytes32","indexed":true,"internalType":"bytes32"}],"anonymous":false},{"type":"event","name":"RoleGranted","inputs":[{"name":"role","type":"bytes32","indexed":true,"internalType":"bytes32"},{"name":"account","type":"address","indexed":true,"internalType":"address"},{"name":"sender","type":"address","indexed":true,"internalType":"address"}],"anonymous":false},{"type":"event","name":"RoleRevoked","inputs":[{"name":"role","type":"bytes32","indexed":true,"internalType":"bytes32"},{"name":"account","type":"address","indexed":true,"internalType":"address"},{"name":"sender","type":"address","indexed":true,"internalType":"address"}],"anonymous":false},{"type":"event","name":"Slashed","inputs":[{"name":"nodeId","type":"bytes32","indexed":true,"internalType":"bytes32"},{"name":"amount","type":"uint256","indexed":false,"internalType":"uint256"},{"name":"reason","type":"uint8","indexed":false,"internalType":"enum Staking.SlashReason"},{"name":"affected","type":"address","indexed":false,"internalType":"address"}],"anonymous":false},{"type":"event","name":"Staked","inputs":[{"name":"nodeId","type":"bytes32","indexed":true,"internalType":"bytes32"},{"name":"amount","type":"uint256","indexed":false,"internalType":"uint256"},{"name":"tier","type":"uint8","indexed":false,"internalType":"enum Staking.StakeTier"}],"anonymous":false},{"type":"event","name":"UnstakeRequested","inputs":[{"name":"nodeId","type":"bytes32","indexed":true,"internalType":"bytes32"},{"name":"amount","type":"uint256","indexed":false,"internalType":"uint256"},{"name":"availableAt","type":"uint256","indexed":false,"internalType":"uint256"}],"anonymous":false},{"type":"event","name":"Unstaked","inputs":[{"name":"nodeId","type":"bytes32","indexed":true,"internalType":"bytes32"},{"name":"amount","type":"uint256","indexed":false,"internalType":"uint256"}],"anonymous":false},{"type":"error","name":"AccessControlBadConfirmation","inputs":[]},{"type":"error","name":"AccessControlUnauthorizedAccount","inputs":[{"name":"account","type":"address","internalType":"address"},{"name":"neededRole","type":"bytes32","internalType":"bytes32"}]},{"type":"error","name":"ReentrancyGuardReentrantCall","inputs":[]},{"type":"error","name":"SafeERC20FailedOperation","inputs":[{"name":"token","type":"address","internalType":"address"}]}],"bytecode":{"object":"0x60c034620002d5576200170890601f38839003908101601f19168201906001600160401b03821183831017620002d95780839160409586948552833981010312620002d5576200004f816200030d565b6200005e60208093016200030d565b60017f9b779b17422d0df92223018b32b4d1fa46e071723d6817e2486d003becc55f00819055916001600160a01b039081169182156200029157169081156200024d5760805260a052620000b23362000322565b50620000bd620002ed565b91683635c9adc5dea00000835280830190600a825284840191670de0b6b3a76400008352835f52838252855f209451855551838501556002938480935191015562000107620002ed565b69010f0cf064dd5920000081528282820160328152878301906710a741a4627800008252825f52868552885f20935184555186840155519101556200014b620002ed565b69054b40b1f852bda0000081528282820160c88152878301906714d1120d7b160000825260035f52868552885f209351845551868401555191015562000190620002ed565b69152d02c7e14af68000008152828282015f815287830190671bc16d674ec80000825260045f52868552885f20935184555186840155519101555f8052526101f4835f20555f526103e8825f20555f526109c4815f205560035f52612710815f205560045f5260c8815f2055516113439081620003a582396080518181816101e501528181610369015281816105ac015281816109880152610a56015260a05181818161015f015281816102c4015281816104fc0152610c830152f35b845162461bcd60e51b815260048101859052601660248201527f5374616b696e673a207a65726f207265676973747279000000000000000000006044820152606490fd5b855162461bcd60e51b815260048101869052601360248201527f5374616b696e673a207a65726f20746f6b656e000000000000000000000000006044820152606490fd5b5f80fd5b634e487b7160e01b5f52604160045260245ffd5b60405190606082016001600160401b03811183821017620002d957604052565b51906001600160a01b0382168203620002d557565b6001600160a01b03165f8181525f80516020620016e8833981519152602052604090205460ff166200039f575f8181525f80516020620016e883398151915260205260408120805460ff191660011790553391907f2f8788117e7eff1d82e926ec794901d17c78024a50270940304540a733656f0d8180a4600190565b505f9056fe60806040818152600480361015610014575f80fd5b5f925f3560e01c90816301ffc9a714610ed857508063045aef9314610e9e57806304e257c014610e3a5780630b60c58f14610e1d57806316ae261d14610c41578063248a9ca314610c175780632f2ff15d14610bdd57806336568abe14610b96578063374eedd51461087a5780635095af641461083f57806352b79f261461080e5780636388117d146107bf5780638caa5230146104bd57806391d148541461047b578063a07e049d14610280578063a217fddf14610265578063b4cb511f1461023b578063c81f23f014610214578063d13deb2f146101d0578063d547741f14610192578063d9b5c4a51461014a5763dc9d1a9e14610112575f80fd5b346101465760203660031901126101465760038260209460ff933581528286522001541690519061014281610f2a565b8152f35b8280fd5b50503461018e578160031936011261018e57517f00000000000000000000000000000000000000000000000000000000000000006001600160a01b03168152602090f35b5080fd5b5090346101465780600319360112610146576101cc91356101c760016101b6610f5e565b938387528660205286200154611142565b6111fd565b5080f35b50503461018e578160031936011261018e57517f00000000000000000000000000000000000000000000000000000000000000006001600160a01b03168152602090f35b50346101465760203660031901126101465760209282913581526003845220549051908152f35b509134610262576020366003190112610262575061025b6020923561104e565b9051908152f35b80fd5b50503461018e578160031936011261018e5751908152602090f35b503461014657602090816003193601126104775780359261029f611097565b80516001628aabd560e01b031981528281018590526001600160a01b039084816024817f000000000000000000000000000000000000000000000000000000000000000086165afa90811561046d5790610304918891610440575b5082163314610fc9565b84865260038452818620926001840180549485156103fd5760020191825462093a8081018091116103ea5742106103a75750938093928861038e93817feaf9a24a861b99687156137f32a9abfa90e5dd93a1eb9fb70cf4400e86b0839a9998555533907f00000000000000000000000000000000000000000000000000000000000000001661126f565b51908152a260015f805160206112ee8339815191525580f35b845162461bcd60e51b8152908101879052601860248201527f5374616b696e673a20636f6f6c646f776e2061637469766500000000000000006044820152606490fd5b634e487b7160e01b8a526011825260248afd5b845162461bcd60e51b8152808401889052601b60248201527f5374616b696e673a206e6f2070656e64696e6720756e7374616b6500000000006044820152606490fd5b6104609150863d8811610466575b6104588183610f74565b810190610faa565b5f6102fa565b503d61044e565b83513d89823e3d90fd5b8380fd5b503461014657816003193601126101465781602093610498610f5e565b92358152808552209060018060a01b03165f52825260ff815f20541690519015158152f35b5091903461018e576104ce36610f48565b6104d9929192611097565b8151631392c59160e11b81528086018490526001600160a01b03956020916024907f000000000000000000000000000000000000000000000000000000000000000089169084818481855afa9081156107b557899161077b575b501561073a5783829187519283809263ff75542b60e01b82528b888301525afa9081156107305790610570918991610713575b5089163314610fc9565b83156106dc578587526003835284872090600382019860ff8a5460081c166106a35786516323b872dd60e01b8a523385523083526044879052907f000000000000000000000000000000000000000000000000000000000000000016858a60648180855af160018b5114811615610684575b8289528a606052156106745750508154928584018094116106635750509661063a6106348360ff947f3272b20774c78f7de324518b661ac1b34fadbd307a2bbc4cda9490153dcb4f2a999a9b556110c6565b82611036565b541690835192835261064b82610f2a565b820152a260015f805160206112ee8339815191525580f35b601190634e487b7160e01b5f52525ffd5b635274afe760e01b825281850152fd5b600181151661069a57813b15153d1516166105e2565b823d8c823e3d90fd5b865162461bcd60e51b81528085018690526014818401527314dd185ada5b99ce881b9bd9194818985b9b995960621b6044820152606490fd5b60149060649386519362461bcd60e51b85528401528201527314dd185ada5b99ce881e995c9bc8185b5bdd5b9d60621b6044820152fd5b61072a9150853d8711610466576104588183610f74565b5f610566565b86513d8a823e3d90fd5b50601c9060649386519362461bcd60e51b85528401528201527f5374616b696e673a206e6f6465206e6f742072656769737465726564000000006044820152fd5b90508481813d83116107ae575b6107928183610f74565b810103126107aa575180151581036107aa575f610533565b8880fd5b503d610788565b87513d8b823e3d90fd5b50346101465760203660031901126101465735600581101561014657606092816107e98493610f2a565b8152600160205220805491600260018301549201549181519384526020840152820152f35b50346101465760203660031901126101465760038260209460ff9335815282865220015460081c1690519015158152f35b50503461018e578160031936011261018e57602090517f12b42e8a160f6064dc959c6f251e3af0750ad213dbecf573b4710d67d6c28e398152f35b5034610b09576060366003190112610b095780359160249081356005811015610b09576001600160a01b0393604435858116949190858103610b09577f12b42e8a160f6064dc959c6f251e3af0750ad213dbecf573b4710d67d6c28e3992835f526020935f8552865f20335f52855260ff875f20541615610b7c57506108fe611097565b885f5260038452855f20928354988915610b3b5761091b87610f2a565b865f5260028652875f2054808b02908b820403610b2957612710900499808b11610b21575b600361095a6109528d61096394611015565b8089556110c6565b96019586611036565b8960011c610971818c611015565b948a151580610b18575b15610b0d57906109ad91837f00000000000000000000000000000000000000000000000000000000000000001661126f565b83610a54575b50505050917fca952a5bd699867554c099043527e5b2baf3426c8eb73c869905037082d34538959391606095936109e983610f2a565b60038314610a1c575b508251948552610a0182610f2a565b840152820152a260015f805160206112ee8339815191525580f35b805461ff001916610100179055877fbd63c43045668d47785ad3a2543b0b3a3fc8a2da666499c2693e72dc3c6dae938a80a25f6109f2565b7f00000000000000000000000000000000000000000000000000000000000000001692833b15610b09575f938385928a519687938492630852cd8d60e31b8452878401525af18015610aff57610aab575b806109b3565b909192995067ffffffffffffffff8311610aee57505083525f968160607fca952a5bd699867554c099043527e5b2baf3426c8eb73c869905037082d34538610aa5565b604190634e487b7160e01b5f52525ffd5b87513d5f823e3d90fd5b5f80fd5b5050925088926109ad565b5081151561097b565b995089610940565b83601184634e487b7160e01b5f52525ffd5b5060196064928689519362461bcd60e51b85528401528201527f5374616b696e673a206e6f7468696e6720746f20736c617368000000000000006044820152fd5b865163e2517d3f60e01b8152338186015291820152604490fd5b509034610b095780600319360112610b0957610bb0610f5e565b90336001600160a01b03831603610bce5750610bcc91356111fd565b005b5163334bd91960e11b81529050fd5b509034610b095780600319360112610b0957610bcc9135610c126001610c01610f5e565b93835f525f6020525f200154611142565b611181565b509034610b09576020366003190112610b0957602091355f525f82526001815f2001549051908152f35b509034610b0957610c5136610f48565b610c5c929192611097565b81516001628aabd560e01b031981528481018490526020906001600160a01b0382826024817f000000000000000000000000000000000000000000000000000000000000000085165afa918215610e135790610cc392915f92610df4575b50163314610fc9565b835f5260038152825f208054838110610db15760018201908154610d6e57610d06610d0d939286610cf681600395611015565b91828655554260028501556110c6565b9101611036565b62093a80420190814211610d5b577fbe5e585f2432b417c3cd1e02d834adca55e5eb8b079c31456d3d404aca0887fa9495508351928352820152a260015f805160206112ee83398151915255005b601186634e487b7160e01b5f525260245ffd5b855162461bcd60e51b8152808901859052601f60248201527f5374616b696e673a2070656e64696e6720756e7374616b6520657869737473006044820152606490fd5b845162461bcd60e51b8152808801849052601b60248201527f5374616b696e673a20696e73756666696369656e74207374616b6500000000006044820152606490fd5b610e0c919250843d8611610466576104588183610f74565b9088610cba565b85513d5f823e3d90fd5b8234610b09575f366003190112610b09576020905162093a808152f35b509034610b09576020366003190112610b095760a091355f52600360205260ff815f209182549260018101549060036002820154910154928484169281519687526020870152850152610e8c81610f2a565b606084015260081c1615156080820152f35b5034610b09576020366003190112610b095735906005821015610b095781610ec7602093610f2a565b5f5260028252805f20549051908152f35b8234610b09576020366003190112610b0957359063ffffffff60e01b8216809203610b0957602091637965db0b60e01b8114908115610f19575b5015158152f35b6301ffc9a760e01b14905083610f12565b60051115610f3457565b634e487b7160e01b5f52602160045260245ffd5b6040906003190112610b09576004359060243590565b602435906001600160a01b0382168203610b0957565b90601f8019910116810190811067ffffffffffffffff821117610f9657604052565b634e487b7160e01b5f52604160045260245ffd5b90816020910312610b0957516001600160a01b0381168103610b095790565b15610fd057565b60405162461bcd60e51b815260206004820152601760248201527f5374616b696e673a206e6f74206e6f6465206f776e65720000000000000000006044820152606490fd5b9190820391821161102257565b634e487b7160e01b5f52601160045260245ffd5b9061104081610f2a565b60ff80198354169116179055565b5f52600360205260ff600360405f2001541661106981610f2a565b801561108a5761107881610f2a565b5f526001602052600260405f20015490565b50670de0b6b3a764000090565b5f805160206112ee83398151915260028154146110b45760029055565b604051633ee5aeb560e01b8152600490fd5b60045f5260016020527fedc95719e9a3b28dd8e80877cb5880a9be7de1a13fc8b05e7999683b6b5676435481101561113c5760035f5260405f20548110156111365760025f5260405f20548110156111305760015f5260405f2054111561112b575f90565b600190565b50600290565b50600390565b50600490565b805f525f60205260405f20335f5260205260ff60405f205416156111635750565b6044906040519063e2517d3f60e01b82523360048301526024820152fd5b90815f525f60205260405f209060018060a01b031690815f5260205260ff60405f205416155f146111f757815f525f60205260405f20815f5260205260405f20600160ff1982541617905533917f2f8788117e7eff1d82e926ec794901d17c78024a50270940304540a733656f0d5f80a4600190565b50505f90565b90815f525f60205260405f209060018060a01b031690815f5260205260ff60405f2054165f146111f757815f525f60205260405f20815f5260205260405f2060ff19815416905533917ff6391f5c32d9c69d2a47ea670b442974b53935d1edc7fd64eb21e047a839171b5f80a4600190565b60405163a9059cbb60e01b5f9081526001600160a01b039384166004526024949094529260209060448180855af160015f51148116156112ce575b83604052156112b857505050565b635274afe760e01b835216600482015260249150fd5b60018115166112e457813b15153d1516166112aa565b833d5f823e3d90fdfe9b779b17422d0df92223018b32b4d1fa46e071723d6817e2486d003becc55f00a2646970667358221220a2939a9ceac5ab253917890b8f58667750dce18289a70f234217a6239d32d16264736f6c63430008180033ad3228b676f7d3cd4284a5443f17f1962b36e491b30a40b2405849e597ba5fb5","linkReferences":{}},"methodIdentifiers":{"DEFAULT_ADMIN_ROLE()":"a217fddf","SLASHER_ROLE()":"5095af64","UNSTAKE_COOLDOWN()":"0b60c58f","completeUnstake(bytes32)":"a07e049d","getRoleAdmin(bytes32)":"248a9ca3","getTier(bytes32)":"dc9d1a9e","grantRole(bytes32,address)":"2f2ff15d","hasRole(bytes32,address)":"91d14854","isBanned(bytes32)":"52b79f26","nodeRegistry()":"d9b5c4a5","renounceRole(bytes32,address)":"36568abe","revokeRole(bytes32,address)":"d547741f","rewardMultiplier(bytes32)":"b4cb511f","slash(bytes32,uint8,address)":"374eedd5","slashRates(uint8)":"045aef93","stake(bytes32,uint256)":"8caa5230","stakedAmount(bytes32)":"c81f23f0","stakers(bytes32)":"04e257c0","supportsInterface(bytes4)":"01ffc9a7","tierThresholds(uint8)":"6388117d","trustToken()":"d13deb2f","unstake(bytes32,uint256)":"16ae261d"},"id":59}