{"abi":[{"type":"constructor","inputs":[],"stateMutability":"nonpayable"},{"type":"function","name":"authorSkillCount","inputs":[{"name":"author","type":"address","internalType":"address"}],"outputs":[{"name":"count","type":"uint256","internalType":"uint256"}],"stateMutability":"view"},{"type":"function","name":"creatorOf","inputs":[{"name":"skillId","type":"bytes32","internalType":"bytes32"}],"outputs":[{"name":"","type":"address","internalType":"address"}],"stateMutability":"view"},{"type":"function","name":"deactivateSkill","inputs":[{"name":"skillId","type":"bytes32","internalType":"bytes32"}],"outputs":[],"stateMutability":"nonpayable"},{"type":"function","name":"getSkill","inputs":[{"name":"skillId","type":"bytes32","internalType":"bytes32"}],"outputs":[{"name":"creator","type":"address","internalType":"address"},{"name":"ipfsCid","type":"string","internalType":"string"},{"name":"name","type":"string","internalType":"string"},{"name":"domain","type":"string","internalType":"string"},{"name":"price","type":"uint256","internalType":"uint256"},{"name":"licenseType","type":"uint8","internalType":"enum SkillRegistry.LicenseType"},{"name":"version","type":"uint256","internalType":"uint256"},{"name":"active","type":"bool","internalType":"bool"},{"name":"totalValidations","type":"uint256","internalType":"uint256"},{"name":"successRate","type":"uint256","internalType":"uint256"}],"stateMutability":"view"},{"type":"function","name":"isActive","inputs":[{"name":"skillId","type":"bytes32","internalType":"bytes32"}],"outputs":[{"name":"","type":"bool","internalType":"bool"}],"stateMutability":"view"},{"type":"function","name":"owner","inputs":[],"outputs":[{"name":"","type":"address","internalType":"address"}],"stateMutability":"view"},{"type":"function","name":"priceOf","inputs":[{"name":"skillId","type":"bytes32","internalType":"bytes32"}],"outputs":[{"name":"","type":"uint256","internalType":"uint256"}],"stateMutability":"view"},{"type":"function","name":"registerSkill","inputs":[{"name":"ipfsCid","type":"string","internalType":"string"},{"name":"name","type":"string","internalType":"string"},{"name":"domain","type":"string","internalType":"string"},{"name":"tags","type":"string[]","internalType":"string[]"},{"name":"inputKeys","type":"string[]","internalType":"string[]"},{"name":"outputKeys","type":"string[]","internalType":"string[]"},{"name":"price","type":"uint256","internalType":"uint256"},{"name":"licenseType","type":"uint8","internalType":"enum SkillRegistry.LicenseType"}],"outputs":[{"name":"skillId","type":"bytes32","internalType":"bytes32"}],"stateMutability":"nonpayable"},{"type":"function","name":"renounceOwnership","inputs":[],"outputs":[],"stateMutability":"nonpayable"},{"type":"function","name":"skillCount","inputs":[],"outputs":[{"name":"","type":"uint256","internalType":"uint256"}],"stateMutability":"view"},{"type":"function","name":"skillIds","inputs":[{"name":"","type":"uint256","internalType":"uint256"}],"outputs":[{"name":"","type":"bytes32","internalType":"bytes32"}],"stateMutability":"view"},{"type":"function","name":"transferOwnership","inputs":[{"name":"newOwner","type":"address","internalType":"address"}],"outputs":[],"stateMutability":"nonpayable"},{"type":"function","name":"updateSkill","inputs":[{"name":"skillId","type":"bytes32","internalType":"bytes32"},{"name":"newIpfsCid","type":"string","internalType":"string"},{"name":"newPrice","type":"uint256","internalType":"uint256"}],"outputs":[],"stateMutability":"nonpayable"},{"type":"function","name":"updateStats","inputs":[{"name":"skillId","type":"bytes32","internalType":"bytes32"},{"name":"totalValidations","type":"uint256","internalType":"uint256"},{"name":"successRate","type":"uint256","internalType":"uint256"}],"outputs":[],"stateMutability":"nonpayable"},{"type":"event","name":"OwnershipTransferred","inputs":[{"name":"previousOwner","type":"address","indexed":true,"internalType":"address"},{"name":"newOwner","type":"address","indexed":true,"internalType":"address"}],"anonymous":false},{"type":"event","name":"SkillDeactivated","inputs":[{"name":"skillId","type":"bytes32","indexed":true,"internalType":"bytes32"}],"anonymous":false},{"type":"event","name":"SkillRegistered","inputs":[{"name":"skillId","type":"bytes32","indexed":true,"internalType":"bytes32"},{"name":"creator","type":"address","indexed":true,"internalType":"address"},{"name":"name","type":"string","indexed":false,"internalType":"string"},{"name":"ipfsCid","type":"string","indexed":false,"internalType":"string"}],"anonymous":false},{"type":"event","name":"SkillStatsUpdated","inputs":[{"name":"skillId","type":"bytes32","indexed":true,"internalType":"bytes32"},{"name":"totalValidations","type":"uint256","indexed":false,"internalType":"uint256"},{"name":"successRate","type":"uint256","indexed":false,"internalType":"uint256"}],"anonymous":false},{"type":"event","name":"SkillUpdated","inputs":[{"name":"skillId","type":"bytes32","indexed":true,"internalType":"bytes32"},{"name":"version","type":"uint256","indexed":false,"internalType":"uint256"},{"name":"newIpfsCid","type":"string","indexed":false,"internalType":"string"},{"name":"newPrice","type":"uint256","indexed":false,"internalType":"uint256"}],"anonymous":false},{"type":"error","name":"OwnableInvalidOwner","inputs":[{"name":"owner","type":"address","internalType":"address"}]},{"type":"error","name":"OwnableUnauthorizedAccount","inputs":[{"name":"account","type":"address","internalType":"address"}]}],"bytecode":{"object":"0x60808060405234610078573315610063575f8054336001600160a01b03198216811783556040519290916001600160a01b0316907f8be0079c531659141344cd1fd0a4f28419497f9722a3daafe3b4186f6b6457e09080a361182a908161007d8239f35b631e4fbdf760e01b81525f6004820152602490fd5b5f80fdfe60806040526004361015610011575f80fd5b5f3560e01c80632e6c95b4146113e157806340fde1e0146111af5780635c36901c1461117d578063715018a6146111265780638da5cb5b146110ff5780639651862f14611044578063b82c1b4a14611027578063c1d34f5514610fa1578063da80308114610e92578063e50fa76f14610275578063eec332fd14610248578063f2fde38b146101bc578063f61ad14c146100ec5763ff94e4f3146100b3575f80fd5b346100e85760203660031901126100e8576004355f526001602052602060018060a01b03600160405f20015416604051908152f35b5f80fd5b346100e85760203660031901126100e857600435805f52600160205260405f20600d810190600182549161012260ff84166114fc565b818060a01b0391829101541633149081156101af575b501561016a5760ff191690557f809ff3b2891d6e9e174e028934049a19fe0ff087183acd4658d5b8fe27c33e485f80a2005b60405162461bcd60e51b815260206004820152601d60248201527f536b696c6c52656769737472793a206e6f7420617574686f72697a65640000006044820152606490fd5b90505f5416331484610138565b346100e85760203660031901126100e8576004356001600160a01b03818116918290036100e8576101eb6117c9565b8115610230575f54826bffffffffffffffffffffffff60a01b8216175f55167f8be0079c531659141344cd1fd0a4f28419497f9722a3daafe3b4186f6b6457e05f80a3005b604051631e4fbdf760e01b81525f6004820152602490fd5b346100e85760203660031901126100e8576004355f5260016020526020600860405f200154604051908152f35b346100e8576101003660031901126100e8576004356001600160401b0381116100e8576102a6903690600401611461565b6024356001600160401b0381116100e8576102c5903690600401611461565b92906044356001600160401b0381116100e8576102e6903690600401611461565b93906064356001600160401b0381116100e8576103079036906004016114cc565b6084969196356001600160401b0381116100e8576103299036906004016114cc565b91909260a4356001600160401b0381116100e85761034b9036906004016114cc565b94600460e43510156100e8578715610e4d578b15610e08576040516020810190898c83376103886020828c81015f8382015203808452018261168e565b5190209a8b5f526001602052600b60405f200154610db9576103a9856116c6565b945f5b818110610d8c575050506103bf856116c6565b945f5b818110610d5f575050506103d5856116c6565b945f5b818110610d2b5750505060405194856102008101106001600160401b03610200880111176107cb5761043c9161020087016040528a875233602088015261042036898c611764565b6040880152610430368d8b611764565b60608801523691611764565b608085015260a084015260c083015260e082015260c43561010082015260e4356101208201526001610140820152426101608201524261018082015260016101a08201525f6101c08201525f6101e0820152845f52600160205260405f2090805182556001820160018060a01b036020830151166bffffffffffffffffffffffff60a01b82541617905560408101518051906001600160401b0382116107cb576104f6826104ed6002870154611548565b60028701611596565b602090601f8311600114610cbd5761052592915f9183610bd6575b50508160011b915f199060031b1c19161790565b60028301555b60608101518051906001600160401b0382116107cb5761055b826105526003870154611548565b60038701611596565b602090601f8311600114610c4f5761058992915f9183610bd65750508160011b915f199060031b1c19161790565b60038301555b60808101518051906001600160401b0382116107cb576105bf826105b66004870154611548565b60048701611596565b602090601f8311600114610be1576105ed92915f9183610bd65750508160011b915f199060031b1c19161790565b60048301555b60a0810151805190600160401b82116107cb576005840154826005860155808310610b62575b5060200190600584015f5260205f20915f905b828210610a90575050505060c0810151805190600160401b82116107cb576006840154826006860155808310610a1c575b5060200190600684015f5260205f20915f905b82821061094a575050505060e0810151805190600160401b82116107cb5760078401548260078601558083106108d6575b5060200190600784015f5260205f20915f905b8282106107f357505050506101008101516008830155600982016101208201519160048310156107df57600f926101e09260ff199160ff838354169116179055610140820151600a860155610160820151600b860155610180820151600c860155600d85019060ff6101a084015115159183541691161790556101c0810151600e850155015191015560025491600160401b8310156107cb576020956107c07fc020cbfb8c64b1841c1d4ba7d5cd7438b880aac41acbbbdde10ec58455fee8de936107868660018a9801600255611418565b81549060031b9088821b915f19901b19161790556107b16040519485946040865260408601916117a9565b908382038a85015233976117a9565b0390a3604051908152f35b634e487b7160e01b5f52604160045260245ffd5b634e487b7160e01b5f52602160045260245ffd5b80518051906001600160401b0382116107cb5761081a826108148854611548565b88611596565b602090601f831160011461086a5792610850836001959460209487965f9261085f5750508160011b915f199060031b1c19161790565b87555b019401910190926106b4565b015190505f80610511565b90865f5260205f20915f5b601f19851681106108be575083602093600196938796938794601f198116106108a6575b505050811b018755610853565b01515f1960f88460031b161c191690555f8080610899565b91926020600181928685015181550194019201610875565b600785015f5260205f20908382015b81830181106108f55750506106a1565b8061090260019254611548565b8061090f575b50016108e5565b601f8111831461092457505f81555b8d610908565b5f90828252610941601f60208420920160051c8201858301611580565b8183555561091e565b80518051906001600160401b0382116107cb5761096b826108148854611548565b602090601f83116001146109b057926109a1836001959460209487965f9261085f5750508160011b915f199060031b1c19161790565b87555b01940191019092610670565b90865f5260205f20915f5b601f1985168110610a04575083602093600196938796938794601f198116106109ec575b505050811b0187556109a4565b01515f1960f88460031b161c191690555f80806109df565b919260206001819286850151815501940192016109bb565b600685015f5260205f20908382015b8183018110610a3b57505061065d565b80610a4860019254611548565b80610a55575b5001610a2b565b601f81118314610a6a57505f81555b8d610a4e565b5f90828252610a87601f60208420920160051c8201858301611580565b81835555610a64565b80518051906001600160401b0382116107cb57610ab1826108148854611548565b602090601f8311600114610af65792610ae7836001959460209487965f9261085f5750508160011b915f199060031b1c19161790565b87555b0194019101909261062c565b90865f5260205f20915f5b601f1985168110610b4a575083602093600196938796938794601f19811610610b32575b505050811b018755610aea565b01515f1960f88460031b161c191690555f8080610b25565b91926020600181928685015181550194019201610b01565b600585015f5260205f20908382015b8183018110610b81575050610619565b80610b8e60019254611548565b80610b9b575b5001610b71565b601f81118314610bb057505f81555b8d610b94565b5f90828252610bcd601f60208420920160051c8201858301611580565b81835555610baa565b015190508a80610511565b9190600485015f5260205f20905f935b601f1984168510610c34576001945083601f19811610610c1c575b505050811b0160048301556105f3565b01515f1960f88460031b161c19169055898080610c0c565b81810151835560209485019460019093019290910190610bf1565b9190600385015f5260205f20905f935b601f1984168510610ca2576001945083601f19811610610c8a575b505050811b01600383015561058f565b01515f1960f88460031b161c19169055898080610c7a565b81810151835560209485019460019093019290910190610c5f565b9190600285015f5260205f20905f935b601f1984168510610d10576001945083601f19811610610cf8575b505050811b01600283015561052b565b01515f1960f88460031b161c19169055898080610ce8565b81810151835560209485019460019093019290910190610ccd565b80610d43610d3c600193858761170f565b3691611764565b610d4d828a611750565b52610d588189611750565b50016103d8565b80610d70610d3c600193858761170f565b610d7a828a611750565b52610d858189611750565b50016103c2565b80610d9d610d3c600193858761170f565b610da7828a611750565b52610db28189611750565b50016103ac565b60405162461bcd60e51b815260206004820152602160248201527f536b696c6c52656769737472793a20616c7265616479207265676973746572656044820152601960fa1b6064820152608490fd5b60405162461bcd60e51b815260206004820152601960248201527f536b696c6c52656769737472793a20656d707479206e616d65000000000000006044820152606490fd5b60405162461bcd60e51b815260206004820152601860248201527f536b696c6c52656769737472793a20656d7074792043494400000000000000006044820152606490fd5b346100e85760203660031901126100e8576004355f52600160205260405f2060018060a01b0360018201541690600881015460ff60098301541691600a81015460ff600d83015416600e83015491610f6f6004610f61600f87015496610f53604051610f0c81610f0581600287016115fd565b038261168e565b610f3b60405193610f2b85610f2481600385016115fd565b038661168e565b610f2460405180988193016115fd565b6040519c8d5261014060208e018190528d019061148e565b908b820360408d015261148e565b9089820360608b015261148e565b94608088015260048610156107df57869560a087015260c0860152151560e08501526101008401526101208301520390f35b346100e8576020806003193601126100e8576001600160a01b0390600435828116908190036100e8575f925f92600254935b848110610fe557602086604051908152f35b610fee81611418565b90549060031b1c5f528383600180855260405f2001541614611013575b600101610fd3565b9461101f6001916115db565b95905061100b565b346100e8575f3660031901126100e8576020600254604051908152f35b346100e85760603660031901126100e8576004356044356024356110666117c9565b825f52600160205260405f2090600b820154156110ba57827f2eb3b68af210bd5fbe3420e98e657b6de6f19717dce21bc6f1a52af82cd9138f93600f8484600e6040970155015582519182526020820152a2005b60405162461bcd60e51b815260206004820152601c60248201527f536b696c6c52656769737472793a20756e6b6e6f776e20736b696c6c000000006044820152606490fd5b346100e8575f3660031901126100e8575f546040516001600160a01b039091168152602090f35b346100e8575f3660031901126100e85761113e6117c9565b5f80546001600160a01b0319811682556001600160a01b03167f8be0079c531659141344cd1fd0a4f28419497f9722a3daafe3b4186f6b6457e08280a3005b346100e85760203660031901126100e8576004355f526001602052602060ff600d60405f200154166040519015158152f35b346100e85760603660031901126100e8576001600160401b036004356024358281116100e8576111e3903690600401611461565b9092604435835f526001916020936001855260405f209361120a60ff600d870154166114fc565b60018501546001600160a01b0316330361139c578161128f575b867f1fbd7da3d7f2865c9fc8246b95279cccc66535b3279a255d828967bbfd6f6663878787806008830155611284600a83019261126184546115db565b80945542600c8201556060604051958695865285015260026060850191016115fd565b9060408301520390a2005b600285019282116107cb576112ae826112a88554611548565b85611596565b5f90601f8311600114611316575090806112ff927f1fbd7da3d7f2865c9fc8246b95279cccc66535b3279a255d828967bbfd6f666398995f9261130b5750508160011b915f199060031b1c19161790565b90555b84938680611224565b013590508980610511565b90601f198316845f52875f20925f905b828210611385575050988392916001947f1fbd7da3d7f2865c9fc8246b95279cccc66535b3279a255d828967bbfd6f66639a9b1061136c575b505050811b019055611302565b01355f19600384901b60f8161c1916905588808061135f565b8b8401358555938401939289019290890190611326565b60405162461bcd60e51b815260048101879052601a60248201527f536b696c6c52656769737472793a206e6f742063726561746f720000000000006044820152606490fd5b346100e85760203660031901126100e8576004356002548110156100e85761140a602091611418565b90546040519160031b1c8152f35b60025481101561144d5760025f527f405787fa12a823e0f2b7631cc41b3ba8828b3321ca811111fa75cd3aa3bb5ace01905f90565b634e487b7160e01b5f52603260045260245ffd5b9181601f840112156100e8578235916001600160401b0383116100e857602083818601950101116100e857565b91908251928382525f5b8481106114b8575050825f602080949584010152601f8019910116010190565b602081830181015184830182015201611498565b9181601f840112156100e8578235916001600160401b0383116100e8576020808501948460051b0101116100e857565b1561150357565b60405162461bcd60e51b815260206004820152601960248201527f536b696c6c52656769737472793a206e6f7420616374697665000000000000006044820152606490fd5b90600182811c92168015611576575b602083101461156257565b634e487b7160e01b5f52602260045260245ffd5b91607f1691611557565b81811061158b575050565b5f8155600101611580565b9190601f81116115a557505050565b6115cf925f5260205f20906020601f840160051c830193106115d1575b601f0160051c0190611580565b565b90915081906115c2565b5f1981146115e95760010190565b634e487b7160e01b5f52601160045260245ffd5b80545f939261160b82611548565b918282526020936001916001811690815f1461166f5750600114611631575b5050505050565b90939495505f92919252835f2092845f945b83861061165b57505050500101905f8080808061162a565b805485870183015294019385908201611643565b60ff19168685015250505090151560051b010191505f8080808061162a565b90601f801991011681019081106001600160401b038211176107cb57604052565b6001600160401b0381116107cb5760051b60200190565b906116d0826116af565b6116dd604051918261168e565b82815280926116ee601f19916116af565b01905f5b8281106116fe57505050565b8060606020809385010152016116f2565b919081101561144d5760051b81013590601e19813603018212156100e85701908135916001600160401b0383116100e85760200182360381136100e8579190565b805182101561144d5760209160051b010190565b9291926001600160401b0382116107cb576040519161178d601f8201601f19166020018461168e565b8294818452818301116100e8578281602093845f960137010152565b908060209392818452848401375f828201840152601f01601f1916010190565b5f546001600160a01b031633036117dc57565b60405163118cdaa760e01b8152336004820152602490fdfea2646970667358221220ac1f71561bcc75e40f39e1ed37f2618ed90e4ff611683f6fc1d02ed204ff9e4064736f6c63430008180033","linkReferences":{}},"methodIdentifiers":{"authorSkillCount(address)":"c1d34f55","creatorOf(bytes32)":"ff94e4f3","deactivateSkill(bytes32)":"f61ad14c","getSkill(bytes32)":"da803081","isActive(bytes32)":"5c36901c","owner()":"8da5cb5b","priceOf(bytes32)":"eec332fd","registerSkill(string,string,string,string[],string[],string[],uint256,uint8)":"e50fa76f","renounceOwnership()":"715018a6","skillCount()":"b82c1b4a","skillIds(uint256)":"2e6c95b4","transferOwnership(address)":"f2fde38b","updateSkill(bytes32,string,uint256)":"40fde1e0","updateStats(bytes32,uint256,uint256)":"9651862f"},"id":57}