{"abi":[{"type":"constructor","inputs":[{"name":"_staking","type":"address","internalType":"address"},{"name":"_trustOracle","type":"address","internalType":"address"},{"name":"_nodeRegistry","type":"address","internalType":"address"}],"stateMutability":"nonpayable"},{"type":"function","name":"EMERGENCY_TIMELOCK","inputs":[],"outputs":[{"name":"","type":"uint256","internalType":"uint256"}],"stateMutability":"view"},{"type":"function","name":"EMERGENCY_VOTING_PERIOD","inputs":[],"outputs":[{"name":"","type":"uint256","internalType":"uint256"}],"stateMutability":"view"},{"type":"function","name":"QUORUM_BPS","inputs":[],"outputs":[{"name":"","type":"uint256","internalType":"uint256"}],"stateMutability":"view"},{"type":"function","name":"TIMELOCK","inputs":[],"outputs":[{"name":"","type":"uint256","internalType":"uint256"}],"stateMutability":"view"},{"type":"function","name":"VOTING_PERIOD","inputs":[],"outputs":[{"name":"","type":"uint256","internalType":"uint256"}],"stateMutability":"view"},{"type":"function","name":"cancel","inputs":[{"name":"proposalId","type":"uint256","internalType":"uint256"}],"outputs":[],"stateMutability":"nonpayable"},{"type":"function","name":"execute","inputs":[{"name":"proposalId","type":"uint256","internalType":"uint256"}],"outputs":[],"stateMutability":"nonpayable"},{"type":"function","name":"finalize","inputs":[{"name":"proposalId","type":"uint256","internalType":"uint256"}],"outputs":[],"stateMutability":"nonpayable"},{"type":"function","name":"getProposalState","inputs":[{"name":"proposalId","type":"uint256","internalType":"uint256"}],"outputs":[{"name":"","type":"uint8","internalType":"enum GovernanceDAO.ProposalState"}],"stateMutability":"view"},{"type":"function","name":"hasVoted","inputs":[{"name":"","type":"uint256","internalType":"uint256"},{"name":"","type":"address","internalType":"address"}],"outputs":[{"name":"","type":"bool","internalType":"bool"}],"stateMutability":"view"},{"type":"function","name":"nodeRegistry","inputs":[],"outputs":[{"name":"","type":"address","internalType":"contract NodeRegistry"}],"stateMutability":"view"},{"type":"function","name":"owner","inputs":[],"outputs":[{"name":"","type":"address","internalType":"address"}],"stateMutability":"view"},{"type":"function","name":"proposalCount","inputs":[],"outputs":[{"name":"","type":"uint256","internalType":"uint256"}],"stateMutability":"view"},{"type":"function","name":"proposals","inputs":[{"name":"","type":"uint256","internalType":"uint256"}],"outputs":[{"name":"proposalId","type":"uint256","internalType":"uint256"},{"name":"proposer","type":"address","internalType":"address"},{"name":"proposalType","type":"uint8","internalType":"enum GovernanceDAO.ProposalType"},{"name":"data","type":"bytes","internalType":"bytes"},{"name":"description","type":"string","internalType":"string"},{"name":"createdAt","type":"uint256","internalType":"uint256"},{"name":"votingEndsAt","type":"uint256","internalType":"uint256"},{"name":"executableAt","type":"uint256","internalType":"uint256"},{"name":"forVotes","type":"uint256","internalType":"uint256"},{"name":"againstVotes","type":"uint256","internalType":"uint256"},{"name":"voterCount","type":"uint256","internalType":"uint256"},{"name":"state","type":"uint8","internalType":"enum GovernanceDAO.ProposalState"}],"stateMutability":"view"},{"type":"function","name":"propose","inputs":[{"name":"proposalType","type":"uint8","internalType":"enum GovernanceDAO.ProposalType"},{"name":"data","type":"bytes","internalType":"bytes"},{"name":"description","type":"string","internalType":"string"}],"outputs":[{"name":"proposalId","type":"uint256","internalType":"uint256"}],"stateMutability":"nonpayable"},{"type":"function","name":"renounceOwnership","inputs":[],"outputs":[],"stateMutability":"nonpayable"},{"type":"function","name":"reputation","inputs":[{"name":"","type":"bytes32","internalType":"bytes32"}],"outputs":[{"name":"","type":"uint256","internalType":"uint256"}],"stateMutability":"view"},{"type":"function","name":"setReputation","inputs":[{"name":"nodeId","type":"bytes32","internalType":"bytes32"},{"name":"rep","type":"uint256","internalType":"uint256"}],"outputs":[],"stateMutability":"nonpayable"},{"type":"function","name":"staking","inputs":[],"outputs":[{"name":"","type":"address","internalType":"contract Staking"}],"stateMutability":"view"},{"type":"function","name":"transferOwnership","inputs":[{"name":"newOwner","type":"address","internalType":"address"}],"outputs":[],"stateMutability":"nonpayable"},{"type":"function","name":"trustOracle","inputs":[],"outputs":[{"name":"","type":"address","internalType":"contract TrustOracle"}],"stateMutability":"view"},{"type":"function","name":"vote","inputs":[{"name":"proposalId","type":"uint256","internalType":"uint256"},{"name":"support","type":"bool","internalType":"bool"}],"outputs":[],"stateMutability":"nonpayable"},{"type":"function","name":"votingPower","inputs":[{"name":"nodeId","type":"bytes32","internalType":"bytes32"}],"outputs":[{"name":"","type":"uint256","internalType":"uint256"}],"stateMutability":"view"},{"type":"event","name":"OwnershipTransferred","inputs":[{"name":"previousOwner","type":"address","indexed":true,"internalType":"address"},{"name":"newOwner","type":"address","indexed":true,"internalType":"address"}],"anonymous":false},{"type":"event","name":"ProposalCancelled","inputs":[{"name":"proposalId","type":"uint256","indexed":true,"internalType":"uint256"}],"anonymous":false},{"type":"event","name":"ProposalCreated","inputs":[{"name":"proposalId","type":"uint256","indexed":true,"internalType":"uint256"},{"name":"proposer","type":"address","indexed":true,"internalType":"address"},{"name":"proposalType","type":"uint8","indexed":false,"internalType":"enum GovernanceDAO.ProposalType"}],"anonymous":false},{"type":"event","name":"ProposalExecuted","inputs":[{"name":"proposalId","type":"uint256","indexed":true,"internalType":"uint256"}],"anonymous":false},{"type":"event","name":"ProposalQueued","inputs":[{"name":"proposalId","type":"uint256","indexed":true,"internalType":"uint256"},{"name":"executableAt","type":"uint256","indexed":false,"internalType":"uint256"}],"anonymous":false},{"type":"event","name":"ReputationUpdated","inputs":[{"name":"nodeId","type":"bytes32","indexed":true,"internalType":"bytes32"},{"name":"reputation","type":"uint256","indexed":false,"internalType":"uint256"}],"anonymous":false},{"type":"event","name":"Voted","inputs":[{"name":"proposalId","type":"uint256","indexed":true,"internalType":"uint256"},{"name":"voter","type":"address","indexed":true,"internalType":"address"},{"name":"support","type":"bool","indexed":false,"internalType":"bool"},{"name":"weight","type":"uint256","indexed":false,"internalType":"uint256"}],"anonymous":false},{"type":"error","name":"OwnableInvalidOwner","inputs":[{"name":"owner","type":"address","internalType":"address"}]},{"type":"error","name":"OwnableUnauthorizedAccount","inputs":[{"name":"account","type":"address","internalType":"address"}]},{"type":"error","name":"ReentrancyGuardReentrantCall","inputs":[]}],"bytecode":{"object":"0x60e0346200021a57601f62001bac38819003918201601f191683019291906001600160401b038411838510176200021e5781606092849260409687528339810103126200021a57620000518162000232565b6200006c83620000646020850162000232565b930162000232565b90331562000203575f8054336001600160a01b03198216811783558651956001600160a01b0394909385939192918416907f8be0079c531659141344cd1fd0a4f28419497f9722a3daafe3b4186f6b6457e09080a360017f9b779b17422d0df92223018b32b4d1fa46e071723d6817e2486d003becc55f005516938415620001cd575081169182156200019657169182156200015e5760805260a05260c05251611964908162000248823960805181818161073601528181610a45015261162c015260a051818181610f5c015261168a015260c05181818161034d01528181610416015281816109ab01526113af0152f35b835162461bcd60e51b815260206004820152601160248201527044414f3a207a65726f206e6f646552656760781b6044820152606490fd5b845162461bcd60e51b815260206004820152601060248201526f44414f3a207a65726f206f7261636c6560801b6044820152606490fd5b62461bcd60e51b815260206004820152601160248201527044414f3a207a65726f207374616b696e6760781b6044820152606490fd5b8351631e4fbdf760e01b81525f6004820152602490fd5b5f80fd5b634e487b7160e01b5f52604160045260245ffd5b51906001600160a01b03821682036200021a5756fe60806040526004361015610011575f80fd5b5f3560e01c8063013cf08b14610fcf57806305261aea14610fb157806306b6a79a14610f8b57806310a626de14610f47578063393c7f1a14610f2b5780633c560a27146109365780633c7991b2146108de57806340e58ee5146107b357806343859632146107655780634cf088d91461072157806360d7442b14610705578063715018a6146106ae5780637aadef8b146106915780638da5cb5b1461066a5780639080936f14610628578063a8b21c1b1461060c578063b1610d7e146105ef578063c9d27afe1461037c578063d9b5c4a514610338578063da35c6641461031b578063e998f09d146102f1578063f2fde38b146102655763fe0d94c114610116575f80fd5b34610261576020366003190112610261576004357f9b779b17422d0df92223018b32b4d1fa46e071723d6817e2486d003becc55f00600281541461024f576002815561016560025483106112a4565b61016e826110e6565b5091600a830180549360ff8516600681101561023b57600303610204576006015442106101c857600460019460ff19161790557f712ae1383f79ac853f8d882153778e0260ef8f03b504e2866e0593e04d2b291f5f80a255005b60405162461bcd60e51b815260206004820152601460248201527344414f3a2074696d656c6f636b2061637469766560601b6044820152606490fd5b60405162461bcd60e51b815260206004820152600f60248201526e111053ce881b9bdd081c5d595d5959608a1b6044820152606490fd5b634e487b7160e01b5f52602160045260245ffd5b604051633ee5aeb560e01b8152600490fd5b5f80fd5b34610261576020366003190112610261576004356001600160a01b03818116918290036102615761029461179a565b81156102d9575f54826bffffffffffffffffffffffff60a01b8216175f55167f8be0079c531659141344cd1fd0a4f28419497f9722a3daafe3b4186f6b6457e05f80a3005b604051631e4fbdf760e01b81525f6004820152602490fd5b34610261576020366003190112610261576004355f526001602052602060405f2054604051908152f35b34610261575f366003190112610261576020600254604051908152f35b34610261575f366003190112610261576040517f00000000000000000000000000000000000000000000000000000000000000006001600160a01b03168152602090f35b3461026157604036600319011261026157602480358015159160043591838103610261576103ad60025484106112a4565b6103b6836110e6565b5060ff600a8201541660068110156105dc576103d290156112e8565b60058101544210156105a457835f526020916003835260405f20335f52835260ff60405f20541661056b5760405163d752267560e01b8152336004820152838186817f00000000000000000000000000000000000000000000000000000000000000006001600160a01b03165afa8015610560575f90610531575b610462915061045d811515611523565b611604565b9384156104f55750845f526003835260405f20335f52835260405f20600160ff198254161790556009820161049781546115f6565b9055156104e0576007016104ac83825461134d565b90555b6040519384528301527f7c2de587c00d75474a0c6c6fa96fd3b45dc974cd4e8a75f712bb84c950dce1b560403393a3005b6008016104ee83825461134d565b90556104af565b8360166064926040519262461bcd60e51b84526004840152820152752220a79d103d32b937903b37ba34b733903837bbb2b960511b6044820152fd5b508381813d8311610559575b61054781836111fc565b8101031261026157610462905161044d565b503d61053d565b6040513d5f823e3d90fd5b60405162461bcd60e51b81526004810184905260128186015271111053ce88185b1c9958591e481d9bdd195960721b6044820152606490fd5b60405162461bcd60e51b81526020600482015260118185015270111053ce881d9bdd1a5b99c8195b991959607a1b6044820152606490fd5b83634e487b7160e01b5f5260216004525ffd5b34610261575f3660031901126102615760206040516203f4808152f35b34610261575f3660031901126102615760206040516103e88152f35b3461026157602036600319011261026157602060ff600a61065760043561065260025482106112a4565b6110e6565b500154166106686040518092611269565bf35b34610261575f366003190112610261575f546040516001600160a01b039091168152602090f35b34610261575f366003190112610261576020604051620151808152f35b34610261575f366003190112610261576106c661179a565b5f80546001600160a01b0319811682556001600160a01b03167f8be0079c531659141344cd1fd0a4f28419497f9722a3daafe3b4186f6b6457e08280a3005b34610261575f366003190112610261576020604051610e108152f35b34610261575f366003190112610261576040517f00000000000000000000000000000000000000000000000000000000000000006001600160a01b03168152602090f35b34610261576040366003190112610261576024356001600160a01b03811690819003610261576004355f52600360205260405f20905f52602052602060ff60405f2054166040519015158152f35b34610261576020366003190112610261576004356107d460025482106112a4565b6107dd816110e6565b50600a81019081549060ff8216600681101561023b5780159081156108d3575b50156108995760010154336001600160a01b039182161490811561088c575b50156108515760ff191660051790557f416e669c63d9a3a5e36ee7cc7e2104b8db28ccd286aa18966e98fa230c73b08c5f80a2005b60405162461bcd60e51b8152602060048201526013602482015272111053ce881b9bdd08185d5d1a1bdc9a5e9959606a1b6044820152606490fd5b90505f541633148461081c565b60405162461bcd60e51b8152602060048201526012602482015271111053ce8818d85b9b9bdd0818d85b98d95b60721b6044820152606490fd5b6003915014856107fd565b34610261576040366003190112610261576004357f643d988938d60eb0f25f427e235470754905356536009cff1faf041b0e510b2e602060243561092061179a565b835f52600182528060405f2055604051908152a2005b3461026157606036600319011261026157600560043510156102615760243567ffffffffffffffff811161026157610972903690600401611276565b9060443567ffffffffffffffff811161026157610993903690600401611276565b60405163d752267560e01b81523360048201529093907f00000000000000000000000000000000000000000000000000000000000000006001600160a01b0316602082602481845afa918215610560575f92610ef6575b5060206024916109fb841515611523565b60405192838092631392c59160e11b82528660048301525afa908115610560575f91610ebb575b5015610e8157604051630c81f23f60e41b815260048101919091526020816024817f00000000000000000000000000000000000000000000000000000000000000006001600160a01b03165afa908115610560575f91610e4f575b5015610e1a576004803503610e0e57610a996154605b4261134d565b91600254946040519461018086019086821067ffffffffffffffff831117610d7157610aea94610ade9260405288885233602089015260043560408901523691611561565b60608601523691611561565b60808301524260a083015260c08201525f60e08201525f6101008201525f6101208201525f6101408201525f61016082015268010000000000000000821015610d715760018201600255610b3d826110e6565b929092610dfb57815183556001830160018060a01b036020840151168154906040850151600581101561023b5760ff60a01b9060a01b16916affffffffffffffffffffff60a81b1617179055606082015192835167ffffffffffffffff8111610d7157610bba81610bb16002850154611133565b600285016115a7565b6020601f8211600114610d90578190610beb939495965f92610d85575b50508160011b915f199060031b1c19161790565b60028201555b608083015180519067ffffffffffffffff8211610d7157610c2282610c196003860154611133565b600386016115a7565b602090601f8311600114610d015782600a936101609593610c57935f92610cf65750508160011b915f199060031b1c19161790565b60038201555b60a0850151600482015560c0850151600582015560e085015160068201556101008501516007820155610120850151600882015561014085015160098201550192015191600683101561023b5760209260ff80198354169116179055604051610cc88160043561121e565b817f876b000c101c27e7aaff6a3254ea503d0e9bf516112d43803bd82989b1355235843393a3604051908152f35b015190508880610bd7565b90601f19831691600385015f5260205f20925f5b818110610d595750926001928592600a96610160989610610d41575b505050811b016003820155610c5d565b01515f1960f88460031b161c19169055878080610d31565b92936020600181928786015181550195019301610d15565b634e487b7160e01b5f52604160045260245ffd5b015190508680610bd7565b600283015f5260205f20905f5b601f1984168110610de3575060019394959683601f19811610610dcb575b505050811b016002820155610bf1565b01515f1960f88460031b161c19169055858080610dbb565b9091602060018192858b015181550193019101610d9d565b634e487b7160e01b5f525f60045260245ffd5b610a996203f480610a93565b60405162461bcd60e51b815260206004820152600d60248201526c44414f3a206e6f207374616b6560981b6044820152606490fd5b90506020813d602011610e79575b81610e6a602093836111fc565b81010312610261575185610a7d565b3d9150610e5d565b60405162461bcd60e51b815260206004820152601260248201527144414f3a206e6f646520696e61637469766560701b6044820152606490fd5b90506020813d602011610eee575b81610ed6602093836111fc565b81010312610261575180151581036102615786610a22565b3d9150610ec9565b9091506020813d602011610f23575b81610f12602093836111fc565b8101031261026157519060206109ea565b3d9150610f05565b34610261575f3660031901126102615760206040516154608152f35b34610261575f366003190112610261576040517f00000000000000000000000000000000000000000000000000000000000000006001600160a01b03168152602090f35b34610261576020366003190112610261576020610fa9600435611604565b604051908152f35b3461026157602036600319011261026157610fcd60043561135a565b005b346102615760203660031901126102615760043560025481101561026157610ff6906110e6565b5060608154916110e260018201546040519261102084611019816002850161116b565b03856111fc565b6040519361103c85611035816003860161116b565b03866111fc565b60048201549460058301546006840154906110b56007860154936110a760088801549660ff600a60098b01549a015416996040519e8f9e8f61109d610180948594835260018060a01b038116602084015260ff604084019160a01c1661121e565b01528d019061122b565b908b820360808d015261122b565b9760a08a015260c089015260e0880152610100870152610120860152610140850152610160840190611269565b0390f35b60025481101561111f57600b9060025f52027f405787fa12a823e0f2b7631cc41b3ba8828b3321ca811111fa75cd3aa3bb5ace01905f90565b634e487b7160e01b5f52603260045260245ffd5b90600182811c92168015611161575b602083101461114d57565b634e487b7160e01b5f52602260045260245ffd5b91607f1691611142565b80545f939261117982611133565b918282526020936001916001811690815f146111dd575060011461119f575b5050505050565b90939495505f92919252835f2092845f945b8386106111c957505050500101905f80808080611198565b8054858701830152940193859082016111b1565b60ff19168685015250505090151560051b010191505f80808080611198565b90601f8019910116810190811067ffffffffffffffff821117610d7157604052565b90600582101561023b5752565b91908251928382525f5b848110611255575050825f602080949584010152601f8019910116010190565b602081830181015184830182015201611235565b90600682101561023b5752565b9181601f840112156102615782359167ffffffffffffffff8311610261576020838186019501011161026157565b156112ab57565b60405162461bcd60e51b8152602060048201526015602482015274111053ce881a5b9d985b1a59081c1c9bdc1bdcd85b605a1b6044820152606490fd5b156112ef57565b60405162461bcd60e51b815260206004820152600f60248201526e44414f3a206e6f742061637469766560881b6044820152606490fd5b8181029291811591840414171561133957565b634e487b7160e01b5f52601160045260245ffd5b9190820180921161133957565b61136760025482106112a4565b611370816110e6565b50600a810190815460ff8116600681101561023b5761138f90156112e8565b600582015442106114e857604051636da49b8360e01b81526020816004817f00000000000000000000000000000000000000000000000000000000000000006001600160a01b03165afa908115610560575f916114b6575b506103e89081810291818304149015171561133957612710900480156114ae575b600983015410801561149c575b61148e575060ff600182015460a01c16600581101561023b577f9a2e42fd6722813d69113e7d0079d3d940171428df7373df9c7f7617cfda28929260209260069260040361148257611469610e104261134d565b9201829055805460ff19166003179055604051908152a2565b61146962015180610a93565b60ff19166002179091555050565b50600782015460088301541015611415565b506001611408565b90506020813d6020116114e0575b816114d1602093836111fc565b8101031261026157515f6113e7565b3d91506114c4565b60405162461bcd60e51b815260206004820152601360248201527244414f3a20766f74696e67206f6e676f696e6760681b6044820152606490fd5b1561152a57565b60405162461bcd60e51b815260206004820152600f60248201526e44414f3a206e6f742061206e6f646560881b6044820152606490fd5b92919267ffffffffffffffff8211610d71576040519161158b601f8201601f1916602001846111fc565b829481845281830111610261578281602093845f960137010152565b601f82116115b457505050565b5f5260205f20906020601f840160051c830193106115ec575b601f0160051c01905b8181106115e1575050565b5f81556001016115d6565b90915081906115cd565b5f1981146113395760010190565b604051630c81f23f60e41b815260048101829052906001600160a01b039060209081846024817f000000000000000000000000000000000000000000000000000000000000000087165afa938415610560575f9461176b575b50831561176357816116706024956117c5565b936040519586809263a2cb50ad60e01b82528560048301527f0000000000000000000000000000000000000000000000000000000000000000165afa938415610560575f94611734575b508315611724575b906001915f525260405f205490670de0b6b3a764000091828111611704575b5090670de0b6b3a76400006116fa819461170094611326565b04611326565b0490565b61170d9061183b565b820180921161133957670de0b6b3a76400006116e1565b6706f05b59d3b2000093506116c2565b9093508181813d831161175c575b61174c81836111fc565b810103126102615751925f6116ba565b503d611742565b505050505f90565b9093508181813d8311611793575b61178381836111fc565b810103126102615751925f61165d565b503d611779565b5f546001600160a01b031633036117ad57565b60405163118cdaa760e01b8152336004820152602490fd5b90811561183657670de0b6b3a76400009182810290810483036113395791820182818111611339579060019060011c915b84831061180257505050565b91935090838015611822578061181991830461134d565b821c91906117f6565b634e487b7160e01b5f52601260045260245ffd5b5f9150565b9081156118f457670de0b6b3a76400008083049182156118ec575f929192915b600180821115611876571c91611870906115f6565b9161185b565b505091909281840284810483148515171561133957931c5f905b6040821061189d57505050565b6118a8818492611326565b0490671bc16d674ec800008210156118c4575b60010190611890565b909360019485830180841161133957600192856118e2921c9061134d565b951c9190506118bb565b925050505f90565b60405162461bcd60e51b815260206004820152601260248201527154727573744d6174683a206c6f673228302960701b6044820152606490fdfea264697066735822122048dde1f6240594349fef0652e163b55413dd62e01e8cfc707e149cfa149914dd64736f6c63430008180033","linkReferences":{}},"methodIdentifiers":{"EMERGENCY_TIMELOCK()":"60d7442b","EMERGENCY_VOTING_PERIOD()":"393c7f1a","QUORUM_BPS()":"a8b21c1b","TIMELOCK()":"7aadef8b","VOTING_PERIOD()":"b1610d7e","cancel(uint256)":"40e58ee5","execute(uint256)":"fe0d94c1","finalize(uint256)":"05261aea","getProposalState(uint256)":"9080936f","hasVoted(uint256,address)":"43859632","nodeRegistry()":"d9b5c4a5","owner()":"8da5cb5b","proposalCount()":"da35c664","proposals(uint256)":"013cf08b","propose(uint8,bytes,string)":"3c560a27","renounceOwnership()":"715018a6","reputation(bytes32)":"e998f09d","setReputation(bytes32,uint256)":"3c7991b2","staking()":"4cf088d9","transferOwnership(address)":"f2fde38b","trustOracle()":"10a626de","vote(uint256,bool)":"c9d27afe","votingPower(bytes32)":"06b6a79a"},"id":52}